:020000040000FA
:10000000C07200102102000025020000270200003B
:10001000290200002B0200002D0200000000000059
:100020000000000000000000000000002F0200009F
:1000300031020000000000007D1C0000A91C00002F
:10004000370200004D1F00005D1F00006D1F000003
:100050007D1F00008D1F0000A51F0000370200005B
:10006000BD1F00006D1C00003702000037020000B9
:10007000370200003702000037020000370200009C
:10008000370200003702000037020000370200008C
:100090003702000037020000491C00003702000050
:1000A000D51F0000370200003702000037020000B1
:1000B000370200003702000037020000370200005C
:1000C00037020000370200003702000000F002F89B
:1000D00000F096F80AA090E8000C82448344AAF14C
:1000E0000107DA4501D100F08BF8AFF2090EBAE84A
:1000F0000F0013F0010F18BFFB1A43F0010318475C
:10010000385D0000585D0000103A24BF78C878C1FF
:10011000FAD8520724BF30C830C144BF04680C600D
:10012000704700000023002400250026103A28BF55
:1001300078C1FBD8520728BF30C148BF0B60704759
:100140006E2900F0D383702900F04A87662905F0F4
:100150001881652905F01581672905F0128161294B
:10016000AFF3008003681B0A28BF41F080016929B2
:1001700000F07281642900F06F81752900F06C81B4
:100180006F2900F0D586782900F01687E92900F05C
:100190006D86E42900F06A86F52900F06786EF296C
:1001A00000F0D286F82900F015870368DB0928BF24
:1001B00041F08001632900F0EE85732900F0F3859A
:1001C000E32901F00780F32901F00C80002070473B
:1001D0001FB59DE8030000F0E5FA00F04DFF0400B4
:1001E0000020002104F0B2FB401C606000200021D0
:1001F00004F096FBE06000F0A1FA1FBD10B510BD41
:1002000001F0ABF81146FFF7E3FF04F03DFA01F00F
:10021000D1F803B4FFF7F2FF03BC00F0A1FA00002D
:1002200008480047FEE7FEE7FEE7FEE7FEE7FEE7D9
:10023000FEE7FEE7FEE7FEE703480449044A054BF4
:1002400070470000CD000000C0020010C072001016
:10025000C0620010C062001080F30888EFF30880CD
:10026000B0E8F00F80F308887047EFF3088020E9CA
:10027000F00F80F30888704770B5064600F076FAF4
:10028000056806F10B0020F00704B4429CBF002073
:1002900070BD2B466A68BAB11068A04210D304F151
:1002A000080188423CBF5068586007D35168101954
:1002B00041601168091B016058601460101D70BD19
:1002C00013465268002AE7D12146284600F056FA24
:1002D0000028DED170BD00001CB50C46064B7B44E7
:1002E00069460090204600F02CFD04460020694637
:1002F00000F03AFD20461CBD870A0000FFFFFFFF0B
:1003000070B50446051F00F031FA0068002C14BFD8
:10031000446870BD002C18BFAC423CBF20466468E6
:10032000F8D301680A18AA4218BF456003D12A68A9
:1003300005461144016028684119A1421CBF6C6048
:1003400070BD6168696021680844286070BD000064
:100350000FB41CB5084B06AA7B446946009005986B
:1003600000F0EFFC04460020694600F0FDFC20464A
:100370001CBC5DF814FB00000D0A00000FB47CB536
:100380000C0009AA009001D02044401E084B7B4479
:1003900069460190089800F0D4FC05461CB1002085
:1003A000694600F0E1FC28467CBC5DF814FB0000C7
:1003B000E109000070B5044685690068C10601D5F1
:1003C000302600E02026C00708D070BDD4E9012106
:1003D00030469047206A00F1010020626D1EF5D57D
:1003E00070BD70B5044685690078C00708D170BD3E
:1003F000D4E9012120209047206A00F10100206209
:100400006D1EF5D570BD70B50C460546012A05D0A8
:100410002878800600D5EA69002302E0012305E080
:100420005B1C934202D2E05C0028F9D1A869E6186F
:10043000C01AA861286A184428622846FFF7BAFF44
:1004400004E0D5E9012114F8010B9047B442F8D338
:100450002846FFF7C6FF70BD2DE9F041064600248F
:1004600010687529314616A511D000F0D1F9002881
:1004700003DAC0F1000013A507E031688A0701D54F
:1004800011A502E0490704D510A5012401E000F000
:10049000C8F900210A2306F1240707E0B0FBF3F2B4
:1004A00003FB1200303078541046491C0028F5D167
:1004B00023462A463046BDE8F04100F0BBB90000B3
:1004C000000000002D0000002B00000020000000B4
:1004D0002DE9F05F894604464FF0000ADFF878B155
:1004E000FB44C0F820A02046E1688847002875D06A
:1004F000252806D0D4E901219047206A401C2062BB
:10050000F1E700265F462046E16888472028054637
:1005100008DB312D06D207EB050010F8200C08B1DE
:100520000643F0E7B00701D526F00406C4F81CA086
:100530000027C4F818A02A2D09D0284604F09CF8FA
:1005400038B304EB8708303DC8F8185019E059F863
:10055000041B204604EB87029161E1688847012F64
:10056000054618D1E069002820DA26F020061DE0B3
:10057000D8F8180000EB800005EB40003038C8F8D0
:1005800018002046E1688847054604F075F8002801
:10059000EED1012F0AD02E2D08D12046E1688847E0
:1005A0007F1C0546022F46F02006C4DBA069002808
:1005B00003DA404246F00106A061F00701D026F0C0
:1005C00010066C2D0BD0682D09D04C2D39D06A2D1A
:1005D00035D0742D35D07A2D33D016E038E0E1686F
:1005E0002F4620468847B842054609D16C2F26D0B1
:1005F0004FF48060E168064320468847054604E0E2
:100600006C2F1AD04FF4807006430DB3A5F1410052
:10061000192802D8203546F400664A462946204665
:1006200026604E46FFF78CFD80B101280BD0F61DE9
:1006300026F0070000F1080955E74020E4E7802094
:10064000D8E70020D6E706F104094CE7284651E731
:10065000206ABDE8F09F000027530000002000F052
:10066000CBFCFFF7CBFD012000F07AF810B5431C5E
:1006700002E010F8011B71B18107FAD14FF001328D
:1006800002C88C1A8C4314EAC211F9D0C01A0A06A7
:1006900003D0C01E10BDC01A10BD0A0401D0801EB8
:1006A00010BD0902FCD0401E10BD032A40F230806C
:1006B00010F0030C00F0158011F8013BBCF1020FA3
:1006C000624498BF11F801CB00F8013B38BF11F824
:1006D000013BA2F1040298BF00F801CB38BF00F83B
:1006E000013B11F0030300F08E84083AC0F008804B
:1006F00051F8043B083A51F804CBA0E80810F5E79C
:10070000121D5CBF51F8043B40F8043BAFF300807E
:10071000D20724BF11F8013B11F801CB48BF11F8F3
:10072000012B24BF00F8013B00F801CB48BF00F8C3
:10073000012B7047704770477047000070B5064C3A
:100740007C44064D7D4403E0206820448047241DFE
:10075000AC42F9D170BD0000405800004458000080
:1007600001491820ABBEFEE7260002000048704792
:1007700068020010704770477047704738B50446EC
:100780000A4600206946AFF30080002808BF38BD44
:1007900002460099204600F073FC012038BD01207C
:1007A00000F0D4BDF8B5AFF30080054600200C463C
:1007B000102000BF0646A819A0420DD9324669464E
:1007C0000020AFF30080070008BF00F0BFFD0098D5
:1007D000A04218BF0546C419FFF7C8FF05600746C9
:1007E000F01D20F007004619284600F00AF8B44230
:1007F00008BFF8BDA21B31463868BDE8F84000F0DC
:100800003FBC00210160C0E9011070471020704713
:1008100009684A0501D540B27047C905FCD500B248
:10082000704709684A0501D5C0B27047C905FCD5B3
:1008300080B270472DE9F0470D469946924604462E
:1008400000F124080168880604D5E06921F0100150
:10085000216000E00120A84202DDA0EB050700E0D6
:100860000027A16907EB050202EB0900A1EB0000DC
:10087000A0612078C00602D42046FFF79BFD002629
:1008800008E0D4E901211AF806009047206A401CCC
:10089000761C20624E45F4DB2078C0060AD520463F
:1008A000FFF788FD06E0D4E9012130209047206A57
:1008B000401C2062381EA7F10107F4DC07E0D4E9F0
:1008C000012118F805009047206A401C2062281E6C
:1008D000A5F10105F3DC2046FFF783FD2078000633
:1008E00002D50220BDE8F0870120FBE7116802680D
:1008F000006A530501D508700BE0D30501D50880C7
:1009000007E0130603D5C217C1E9000201E0520651
:1009100008600120704770472DE9FF4F0C461E46C6
:100920004FF0FF378BB0D2E90001DDF860800A900C
:100930008A46C1F30A5505B93D46002108464FF0E5
:100940000000BAF1000F00F4400005DA00EB80006F
:100950004FF4400101EA50004FEA9059B9F1010FFC
:1009600000DDB9460A9850EA4A000ED044F610500D
:10097000A5F2FF3545432F14B8F1000F1ED0754284
:10098000291E1EDDC9F100021CE0B8F1010F4FF075
:10099000000001D0302103E0F24305E02154401C67
:1009A000B042FBDB30460022002121540B99C1F8F4
:1009B0000880C1E900200FB0BDE8F08FBD1B6D1CA1
:1009C000DEE74A4600DA694206A800F00FFC06ABF3
:1009D00007CB03AB07C350460A9900F07AFD8DE8B8
:1009E0000700A0F500501F3800900398002D09DD86
:1009F00042F21F014A46084403A90390684600F0EA
:100A0000D9FF08E0A0F500504A461F3803A903901B
:100A1000684600F0E3FF8DE807000004000C03D0F7
:100A20004FF0FF30410800E01046B8F1000F03D04E
:100A30000022009215461FE0751E06D400F03AFB16
:100A400002F1300262556D1EF8D5B346012208430B
:100A500002D000227F1C04E02078302801D100223F
:100A60007F1E002A099787D01DE0112D07DA00F0BC
:100A700021FB303262556D1C50EA0102F5D108436A
:100A80000FD10021681E05E0235C625C6354491CA1
:100A90002254401E8142F7DBAB46A81B401E099042
:100AA00001E0009848B1002004F80B000B98099A67
:100AB000C0F80880C0E9002B7DE711264FF0000840
:100AC0005AE72DE9F04F88460446D21D22F007016F
:100AD00091B0D1E90001CDE90A0103F0F6FC02462C
:100AE0000B98C00F01D02D2007E02068810701D5A9
:100AF0002B2002E0202101EAC000032A099001D046
:100B0000072A05DB03464146204600F019FB0FE1AA
:100B10002078800601D5E06900E00620B8F1650F75
:100B2000814606D0B8F1660F18D0B8F1670F72D1C0
:100B300032E00020B9F1110F009001DB112301E038
:100B400009F101030AAA01A90CA8FFF7E5FEDDE9F6
:100B50000C70002609F10105834648E001204B4650
:100B600000904FF000470AAA01A90CA8FFF7D4FE95
:100B7000DDE90DB00C995D46002618B909F10100B8
:100B800001EB0005B9EB050003D4C0F1FF3609F114
:100B90000105A5EB09002BE0B9F1010F01DA4FF0D7
:100BA00001090020B9F1110F0090484601DD112321
:100BB00000E003460AAA01A90CA8FFF7ADFEDDE993
:100BC0000C704D4600268346207800070AD4AB45BA
:100BD00000DA5D4601A8012D04DD411911F8011C60
:100BE000302907D04F4502DA17F1040F04DA01204B
:100BF000824610E06D1EEEE7002F02DCED1B3E4446
:100C000003E0781CA84200DD0546A7EB060000F1D2
:100C1000010A4FF000472078000703D4AA4501DB02
:100C20004FF0FF3A0021B7F1004F0DF143088DF866
:100C3000431023D002202B23002F01DA7F422D23E3
:100C40004FF00A0C011EA0F1010000DC4FB197FB30
:100C5000FCF10CFB11720F4602F1300208F8012D75
:100C6000F0E7A8F1010003702188090501D54521AD
:100C700000E06521A0F1010800F8011C09980FA906
:100C8000A1EB080707F1070700B1012000EB050100
:100C900001EBEA70A1693844A1EB0000A0F101006A
:100CA000A0612078C00602D42046FFF783FB099894
:100CB00030B1D4E901219047206A00F1010020629F
:100CC0002078C00620D52046FFF774FB1CE0002EDC
:100CD00004DBB34502DD01A8805D00E03020D4E9EB
:100CE00001219047206A761C401CBAF1010A20625B
:100CF0000AD100F0C1F9C0680168405CD4E9012163
:100D00009047206A401C2062281EA5F10105DEDC08
:100D100007E0D4E9012118F8010B9047206A401C34
:100D20002062381EA7F10107F3DC2046FFF759FBCC
:100D3000022011B040E6000001694A1C02610878F7
:100D4000704700B58FB0CDE901310021059105490B
:100D50007944CDE9031011466846FFF7B9FB0FB09F
:100D600000BD0000E5FFFFFF0A6802F8010B0A6002
:100D70007047D1E900239A4202D2531C0B601070D5
:100D8000704710B5436913B1AFF3008001E0FFF77E
:100D90003AFB012010BD127800F124010A700022F4
:100DA0004A700122EDE711684FF0FF32E9E70000D9
:100DB0002DE9FF5F15468A460446DFF8AC80F8440B
:100DC0000027D8E900103E46CDE9001011E03AF8BE
:100DD00016106A4602A800F07BFA411C07D0217861
:100DE000890603D5E269391891420ED8074406F105
:100DF00001062078800602D5E069B84205DDAE42E2
:100E0000E5DB3AF816000028E1D1A069C01BA0611B
:100E10002046FFF7CFFAD8E90010CDE900100020F6
:100E200016E03AF818106A4602A800F051FA814616
:100E3000401C0BD000250DF1080B05E0D4E9012181
:100E40001BF8050090476D1C4D45F7D308F10100D4
:100E5000B0428046E5DB206A384420622046FFF736
:100E6000C0FABDE8FF9F00005A4A00002DE9F0419A
:100E70008046D21D22F007020025D2E90002F529A2
:100E800014A612D0002A06DA0023D0EB030063EB8D
:100E9000020211A608E0D8F800108B0701D50FA6B2
:100EA00002E0490701D50EA601251146002408F1EC
:100EB000240704E000F0FEF830323A55641C50EA92
:100EC0000102F7D12B46324621464046BDE8F041AB
:100ED000FFF7B0BC000000002D0000002B00000058
:100EE0002000000030B4002100F124040CE002F0E6
:100EF000070505F130054FEAD20242EA4372655414
:100F000001F101014FEAD30352EA0305EFD104686E
:100F1000002310A2250708D504F020040C4304D0B8
:100F2000C46901230CA2641EC46130BCFFF782BCFB
:100F300010B5044621461068FFF773FC02462046B0
:100F4000BDE810400023CDE7D21D22F00701D1E912
:100F50000023C7E70000000030000000F0B40D4699
:100F60000188090502D5234C7C4402E0214C7C44D5
:100F70000E34002100F124060BE002F00F074FEAC7
:100F80001212E75D42EA03724FEA1313775401F13C
:100F9000010152EA0307F0D102780023120704D5B9
:100FA000702D06D009B1113402232246F0BCFFF7A0
:100FB00041BC10340123F8E770B504460D462146C4
:100FC0001068FFF72EFC024629462046BDE8704017
:100FD0000023C3E7D21D22F00703D3E90023BDE7B6
:100FE0000368126843F0200303600823C3610023F1
:100FF000B4E70000B848000010B500F08FF9BDE874
:10100000104000F085B910B5203AC0F00B80B1E86F
:101010001850203AA0E81850B1E81850A0E818502D
:10102000BFF4F5AF5FEA027C24BFB1E81850A0E836
:10103000185044BF18C918C0BDE810405FEA827C50
:1010400024BF51F8043B40F8043B08BF7047D20767
:1010500028BF31F8023B48BF11F8012B28BF20F808
:10106000023B48BF00F8012B704700000048704762
:1010700060020010704700000048704780020010B6
:10108000034640688C46002818BF88423CBF034690
:101090004068F8D318681844884207D00CF1030060
:1010A00020F00700001D411A521A0146081D0A606F
:1010B000FFF726B930B5B0F10A024FEA900E71F190
:1010C00000034EEA817EB0EB0E0061EB91014FEA26
:1010D000101E4EEA017E10EB0E0041EB11114FEA9B
:1010E000102E4EEA016E10EB0E0041EB11214FEA7B
:1010F000104E4EEA014E10EB0E0041EB114140182C
:1011000041F100014FEAD00040EA41704FEAD101BD
:1011100010EB80054FEA810444EA907444EB01042B
:101120006D1944EB0404521BA3414FF0000348BF68
:101130000A3200D530BD401C41F1000130BD000035
:101140002DE9F0411F46044603260168072A01F4F1
:10115000006004DB08B116A505E016A503E008B1A0
:1011600015A500E015A521F010002060A069C01EA3
:10117000A0610FB1401EA0612046FFF71BF94FB1DF
:10118000D4E9012138469047206A401C2062C01CE7
:10119000206206E0206AFAE7D4E9012115F8010B84
:1011A0009047761EF8D22046FFF71BF9BDE8F08184
:1011B0004E414E006E616E00494E4600696E6600FB
:1011C00010B5436913B1AFF3008001E0FFF7F0FD04
:1011D000012010BD128800F1240182840022C28403
:1011E0000122EDE711684FF0FF32E9E72DE9F04702
:1011F000814616468AB035487844D0E90023806895
:101200000092CDE90130314878440C38D0E902230E
:10121000006903924FF03702CDE9043041F69B306C
:10122000014491FBF2F0A0F1800502FB10141B3C7D
:1012300002D56442012000E00020DFF890A0804643
:101240000027FA44AAF1C60A0DE0E00709D03246A9
:10125000684607EB47010AEB810100F0BFFB8DE810
:10126000070064107F1C002CEFD1184F7F44B43F5F
:1012700017E0E80713D007EB04100DF1180A90E807
:101280000E00AAE80E00C068F04201D1981908903B
:10129000324606A903A800F0A1FB03AB07C36D10FB
:1012A000641C002DE5D132466946B8F1000F03A851
:1012B00002D000F07FFB01E000F090FBC9E90001E3
:1012C000C9F808200AB0BDE8F0870000CC4600004D
:1012D00070B516460C46054600F064F8036893F8AE
:1012E0000101012806D0FF2C0FD8185D68B101203C
:1012F0002C7070BDD3F807013246214603442846BE
:10130000BDE8704003F2071318474FF0FF3070BD7F
:10131000002801D0FFF724BA7047000010B5002163
:1013200002A000F04DF8012010BD000053494741D4
:101330004252543A2041626E6F726D616C20746546
:10134000726D696E6174696F6E00000010B500F017
:1013500051F8BDE81040FFF7DBBF7546FFF786FE8A
:10136000AE4605006946534620F00700854618B092
:1013700020B5FEF761FFBDE820404FF000064FF0BA
:1013800000074FF000084FF0000B21F00701AC46BA
:10139000ACE8C009ACE8C009ACE8C009ACE8C009D9
:1013A0008D46704710B5FFF767FE001D10BD00BFEA
:1013B0009D3500000446AFF300802046FEF729FF6C
:1013C00070B505460C460A2000E06D1C00F07AF866
:1013D00035B128780028F8D102E0641C00F072F8DA
:1013E00014B120780028F8D1BDE870400A2000F040
:1013F00069B8000010B5012805D0002103A0FFF74F
:10140000DFFF012010BD09A1F8E700005349475252
:10141000544D454D3A204F7574206F6620686561C4
:1014200070206D656D6F7279000000003A2048658C
:101430006170206D656D6F727920636F7272757067
:10144000746564004FF0013C50F8042B51F8043BE4
:101450009A4221D1A2EB0C03934313EACC1317D188
:1014600050F8042B51F8043B9A4215D1A2EB0C031F
:10147000934313EACC130BD150F8042B51F8043BDF
:101480009A4209D1A2EB0C03934313EACC13DBD0AD
:101490004FF00000704700BFD01A01BAB1FA81F1D5
:1014A00001F0180122FA01F0CB40C1F12001DBB2BA
:1014B000C0B2C01A2CFA01F3D11A914311EAC31138
:1014C000E6D1704708B569468DF800000320ABBE31
:1014D00008BD5FEA400C08BF91F0000F4FEA8C2373
:1014E0004FEAC12243EA51514FEA1C5018BF00F5A0
:1014F000F0404FEA300018BF41F000415FEA6C5CF9
:1015000000F02980BCF1FF3F08BF40F080407047E9
:10151000130C06BF12044FF0100C4FF0000C130E0A
:1015200004BF12020CF1080C130F04BF12010CF1DE
:10153000040C930F04BF92000CF1020CD30F04BFF4
:1015400052000CF1010C11464FF00002A0F11F00F7
:10155000A0EB0C00704711F0004F08BF704731F04E
:1015600000413FF4D5AF0B0C06BF09044FF0100C3F
:101570004FF0000C0B0E04BF09020CF1080C0B0F0E
:1015800004BF09010CF1040C8B0F04BF89000CF19E
:10159000020CCB0F04BF49000CF1010CCCF120036D
:1015A000A0EB0C0022FA03F302FA0CF241EA030169
:1015B00000F10100704720F07F4C80EA030023F027
:1015C0007F47ACEB070303F57C5300F0004003F1C9
:1015D000FF032DE980494FEA154B09B44FEA144344
:1015E00025EA0B4E24EA03480FF2042606EB1327E4
:1015F00049083E785FEA320203FB0667C7F5000739
:1016000007FB06F64FEA54374FEAD64606F10206C4
:1016100007FB066CCCF1005C4FEA1C472CEA074C38
:1016200007FB06F40CFB06F504EB15464FEA96168D
:1016300034BF00204FF000404FEAD13706FB07FCD3
:101640004FEA1C4C0CFB0BF7D21B03FB0CF761EBB6
:1016500007010CFB0EF7B0EB074072EB17420CFBD7
:1016600008F734BFA2EB0742B2EB074261EB174128
:101670004FEA0C444FEA910706FB07FC4FEA1C4C6B
:101680000CFB0BF7B0EBC74072EB573203FB0CF7C8
:1016900034BFA2EBC742B2EBC74261EB57310CFB40
:1016A0000EF7B0EBC70072EB57720CFB08F734BFB4
:1016B000A2EBC702B2EBC70261EB5771039F4FEA7F
:1016C000816141EA921104EBCC044FEAD1374FEA31
:1016D000826206FB07FC42EA90124FEA80604FEA02
:1016E0001C4C0CFB0BF7D21B03FB0CF761EB070147
:1016F0000CFB0EF7B0EB074072EB17420CFB08F740
:1017000034BFA2EB0742B2EB074261EB17414FEA4D
:101710008C554FEA910704EB9C2406FB07FC4FEA2B
:101720001C4C0CFB0BF7B0EBC74072EB573203FBC2
:101730000CF734BFA2EBC742B2EBC74261EB5731A3
:101740000CFB0EF7B0EBC70072EB57720CFB08F7FF
:1017500034BFA2EBC702B2EBC70261EB577115EBC6
:101760004C254FEA816141EA92114FEA82624FEAC9
:10177000D13742EA901206FB07FC44F100044FEA1D
:1017800080604FEA1C4C0CFB0BF7D21B03FB0CF7E1
:1017900061EB07010CFB0EF7B0EB074072EB174251
:1017A0000CFB08F734BFA2EB0742B2EB074261EB38
:1017B000174115EB1C154FEA813141EA92414FEA7E
:1017C000823242EA90424FEA80304FEA0C7644F18E
:1017D000000448EA03434EEA0B484FF0000EB2EB18
:1017E000080C71EB030724BF624639464EEB0E0E20
:1017F0004FF0000B0018524149414BEB0B0BB2EB81
:10180000080C71EB03077BF1000B24BF62463946DD
:101810004EEB0E0E4FF0000B0018524149414BEBBE
:101820000B0BB2EB080C71EB03077BF1000B24BF31
:10183000624639464EEB0E0E51EA020718BF46F0DB
:10184000010616EB0E7655F1000254F1000103D5A6
:10185000BDE88901BDE80088BDE88901BDE8004810
:10186000B619524141EB0101A3F101037047808099
:101870007F7E7D7C7B7A79787776767574737271EA
:1018800071706F6E6E6D6C6C6B6A6A6968686766A2
:1018900066656464636362616160605F5F5E5E5D34
:1018A0005D5C5C5B5B5A5A595958585757565655A8
:1018B00055555454535352525251515050504F4F0A
:1018C0004F4E4E4D4D4D4C4C4C4B4B4B4A4A4A495A
:1018D000494948484847474747464646454545449D
:1018E0004444444343434342424242414141002B2A
:1018F00026D4770021D01CB54FEA370703B44FF048
:1019000010004FF010014FF000000FBCBDE8104078
:101910000BF1010BBBF1010F08BF5FEA170722BFF4
:1019200012F1010211F101014FF0004143F10003F6
:1019300000F0004043EA00007047F9D35708DAE7A7
:1019400046EA064613F1400F4FEA16461FDD13F133
:10195000200FDFBF16430A46002120335B42C8D068
:10196000C3F1200746EA064602FA07F74FEA164691
:1019700046EA0706C3F1200722FA03F201FA07F745
:1019800021FA03F14FF0000342EA0702B1E746EA09
:10199000020646EA06464FEA164646EA0106BCBF7C
:1019A00046EA0646360C4FF000034FF000024FF0B7
:1019B00000019EE72DE9C048934630B491E8380015
:1019C00007C831EA400C48BF34EA430C03D5FFF79F
:1019D000F2FDFFF78CFFF0BCBDE800882DE9C048A0
:1019E000934630B491E8380007C810F0804F08BF24
:1019F00013F0804F03D100F005F8FFF778FFF0BC3B
:101A0000BDE8008820F07F4780EA030023F07F4C88
:101A100007EB0C03A3F57C5300F00040A3F1FE0399
:101A200092F0000F00F0B38095F0000F00F0778087
:101A30002DE901494FEA11404FEA144621EA0048D6
:101A400000FB06FC24EA064708FB06F607FB08F83D
:101A500000FB07F718EB06484CEB164C4FEA124B0D
:101A600018EB07484FEA15464CEB174022EA0B4E9D
:101A70000BFB06FC25EA06470EFB06F607FB0EFEEF
:101A80000BFB07F71EEB064E4CEB164C4FF0000617
:101A90001EEB074E4CEB174B18EB0B0840F1000008
:101AA00018EB0E0B58EB000840F100008F1A4FF0B6
:101AB00000013CBFC943661B14BFB5EB040C0021F9
:101AC0003CBFC943F61B4FEA17444EEA8E0E27EA85
:101AD00004454FEA1C4704FB07622CEA074C05FB50
:101AE00007F70CFB05F604FB0CFC16EB074642EB74
:101AF000174216EB0C4642EB1C421BEB060658EB5A
:101B00000202414146EA9E0601D5BDE80189B619A7
:101B1000524141EB0101A3F10103BDE801894FEA04
:101B200014454FEA114724EA054621EA074C05FB14
:101B300007F406FB07F70CFB06F105FB0CFC11EBA9
:101B4000074144EB17444FEA124711EB0C4144EBB9
:101B50001C4422EA074C05FB07F206FB07F70CFBC7
:101B600006F605FB0CFC16EB074642EB174216EB9C
:101B70000C4642EB1C456A1854F1000148BF7047FF
:101B8000B619524141EB0101A3F10103704795F0F1
:101B9000000F37D04FEA11424FEA144721EA0246BC
:101BA00024EA074C02FB07F106FB07F70CFB06F4DF
:101BB00002FB0CFC14EB074441EB17414FEA1547BD
:101BC00014EB0C4441EB1C4125EA074C02FB07F5E2
:101BD00006FB07F70CFB06F602FB0CFC16EB0746B0
:101BE00045EB174516EB0C4645EB1C42121951F11B
:101BF000000148BF7047B619524141EB0101A3F102
:101C0000010370474FEA14454FEA114724EA05469D
:101C100021EA074C05FB07F106FB07F70CFB06F270
:101C20004FF0000605FB0CFC12EB074241EB17419D
:101C300012EB0C4251EB1C4148BF7047921841EB2C
:101C40000101A3F10103704710B54FF4803005493D
:101C50000863054800680068016903480068884710
:101C600010BD0000004003401C00001010B50248E9
:101C7000006800F0CBF910BD3000001010B5FEF781
:101C8000F4FA07490860002105480068054A12680F
:101C900090470349086008460068FEF7DDFA10BD6A
:101CA000480000101000001010B5FEF7DEFA0A49D7
:101CB00008600A480068401C08490860012106487D
:101CC0000068074A126890470349086008460068A0
:101CD000FEF7C2FA10BD000044000010140000100E
:101CE0001000001020208649086000BF844800686A
:101CF00010F0400FFAD00320824908604FF0000036
:101D00008149C1F8A801814908604FF0010080496C
:101D100008608048804908604FF00100A1F104018B
:101D200008604FF0AA007D4908604FF055007649E1
:101D3000C1F88C0000BF7A48006810F0806FFAD0BC
:101D40000320784908604FF0AA006F49C1F88C0061
:101D50004FF05500714908604FF023007249086048
:101D60004FF00100A1F1040108604FF0AA006F4993
:101D700008604FF05500086000BF6D48006810F41F
:101D8000806FFAD003206B4908604FF0AA005E49CB
:101D9000C1F8AC004FF055006449086066486749D7
:101DA00008604FF000005849C1F8C8010846D0F853
:101DB0008800C0F30160032868D15548006810F01E
:101DC000030006D0012823D002283FD003285CD18D
:101DD00000E000BF52480068C0F30E0000F10100AF
:101DE0004FEA4000564900FB01F04749D1F88810FE
:101DF000C1F3074101F10101B0FBF1F14148006875
:101E0000C0B200F10100B1FBF0F04E4908603CE0C7
:101E100043480068C0F30E0000F101004FEA4000A3
:101E2000494900FB01F03849D1F88810C1F3074156
:101E300001F10101B0FBF1F132480068C0B200F1DC
:101E40000100B1FBF0F03F4908601EE03448006833
:101E5000C0F30E0000F101004FEA40004FF4FA41D8
:101E600000FB01F02849D1F88810C1F3074101F1C6
:101E70000101B0FBF1F123480068C0B200F101009C
:101E8000B1FBF0F02F49086000BF2FE02048006848
:101E900010F0030006D0012810D0022819D0032822
:101EA00023D100E000BF17480068C0B200F1010074
:101EB0002349B1FBF0F02349086016E0114800689F
:101EC000C0B200F101002049B1FBF0F01D490860EB
:101ED0000BE00C480068C0B200F101004FF4FA4179
:101EE000B1FBF0F01749086000BF00BF064800686A
:101EF00020F4704040F480400349086070470000BF
:101F0000A0C10F4004C10F4000C00F40ACC10F4042
:101F10000CC10F406300050084C00F408CC00F400F
:101F200088C00F4080C00F40A4C00F40ACC00F401D
:101F3000A8C00F40A0C00F40DE872804C4C00F40D7
:101F400000093D0000000010001BB70010B502485A
:101F5000006800F05BF810BD2000001010B50248CA
:101F6000006800F053F810BD2400001010B50248BE
:101F7000006800F04BF810BD2800001010B50248B2
:101F8000006800F043F810BD2C00001010B50448A4
:101F900000680068816A02480068884710BD000038
:101FA0003400001010B5044800680068816A0248D7
:101FB0000068884710BD00003800001010B50448C4
:101FC00000680068816A02480068884710BD000008
:101FD0003C00001010B50248006801F0EFFF10BD92
:101FE0004000001000F01F020121914042094FF013
:101FF000E02303EB8202C2F800117047024B03603A
:102000008180C28070470000E858000010B5044687
:102010006069006810F0010F07D001206169086055
:10202000206801692046884703E0606900686169AB
:10203000086010BD2DE9F04788B004460E46914671
:1020400022464A48206002F1080001F09AFDA0F102
:10205000080200BF1446464810602674207C0528FC
:1020600004D2DFE800F0040D151D250028E04FF034
:10207000402060613F4804600120FFF7B3FF1FE08C
:102080003D4860613D4804600220FFF7ABFF17E068
:102090003B4860613B4804600320FFF7A3FF0FE06B
:1020A00039486061394804600420FFF79BFF07E06E
:1020B00037486061374804600920FFF793FF00BF8D
:1020C00000BF484603F018F88046334903F05CF837
:1020D0000746324903F058F88246012507E005EB30
:1020E000850045002E49504602F024FF82462D49C6
:1020F000504603F015F9F2D3504602F0DDFFE060E0
:10210000284602F0FAFD07468846E06802F0F5FD31
:102110000022254BCDE9000102F002FE3A4643467B
:10212000CDE9020102F0FCFD0022204BCDE90401C3
:1021300002F05EFCCDE9060102F0B2FD6060681EAF
:102140006169C8606169E06888610320616948610C
:10215000207C042803D109206169486002E0012045
:1021600061694860204608B0BDE8F087B05C0000B7
:1021700004590000200000100080004024000010DE
:102180000000094028000010004009402C00001009
:10219000008001403000001020BCBE4BBD378635AA
:1021A0000000204100FF7F4780842E4184D7774183
:1021B0002DE9F04186B004466068026811688847DE
:1021C00060680268D168884705466068026851689F
:1021D000884707466068026891688847804602A879
:1021E000A7F10A01A8F10A021426334601604260F1
:1021F0008660C36000BF207AA84210D02572DDE956
:102200000401CDE900010DB1012200E003221146D5
:1022100020680268D668DDE90223B0470BE055B1BB
:10222000DDE90401CDE9000120680168CE680221E2
:10223000DDE90223B04706B0BDE8F08101464879E8
:1022400018B9087908B1012070470020FCE7014661
:10225000487918B1087908B9012070470020FCE7D7
:1022600010B5044604F1080001F018FDE179884238
:1022700001D0012010BD0020FCE7014648797047DD
:1022800010B504466079207120684169204688476E
:10229000607110BD2DE9F04104460F4690461D4681
:1022A000069E0E4820604246394604F1080001F0BF
:1022B00025FDA0F10804002060712071A071E67175
:1022C000314604F1080001F0F6FC294604F108004B
:1022D00001F009FD2046BDE8F08100002059000012
:1022E0000149016070470000645900002DE9F04188
:1022F00004460D461646032E3DD1276B208E81B233
:1023000004F12C0001F040FC01210173A06B10B11D
:10231000A06B283000E00020A84203D1206B401EB3
:1023200020630AE0E06B10B1E06B283000E0002091
:10233000A84202D1206B401C2063206B002801DAE8
:10234000002007E0D4E90C01884202DB606B401EEC
:1023500000E0206B2063208E81B204F12C0001F09C
:1023600013FC00210173206BB84203D0206841693F
:102370002046884700BFBDE8F0810FB4F8B5044699
:10238000208E81B204F12C0001F0FEFB05460A9874
:10239000009028688668284607A90EC9B047F8BC8F
:1023A0005DF814FB0FB42DE9FC4104460E46DDE94F
:1023B0000C01CDE9000131462046DDE90A2301F098
:1023C00049FB208E81B204F12C0001F0DDFB0546B3
:1023D000DDE90C01CDE900012868C76831462846CF
:1023E000DDE90A23B847BDE8FC015DF814FB0000F5
:1023F0000FB42DE9F04188B00446139F00200190EE
:102400001298009020460FA90EC901F05DFB04460A
:1024100004F1280000F080FAA0F12804414820606F
:102420003030A06204F12C0001F0ABFBA0F12C04D1
:102430000020206315A80390DDF8508000260FE0EF
:102440000EB1012000E0002088F80C00414604F1A4
:102450002C0001F05DFB039850F8048B0390761C70
:10246000BE42EDDB67633C2002F029F805463220CE
:102470000090129B10981844A0F13202322304A855
:102480000F9901F001FA064627A00021CDE90110BD
:10249000F0680090284696E80E0001F079FE0546A7
:1024A000A063A16B01F1280004F1280100F04DF8B0
:1024B0002046A16B01F0F9FA3C2002F000F8054635
:1024C00032200090129B10981844A0F13202119B08
:1024D0000F981844A0F13201322304A801F0D4F976
:1024E000064612A00021CDE90110F06800902846B0
:1024F00096E80E0001F04CFE0546E063E16B01F149
:10250000280004F1280100F020F82046E16B01F0DA
:10251000CCFA00200390204608B0BDE8F0015DF839
:1025200014FB0000745900003C0000003E00000055
:1025300070B504460D46606828B1606801682A4697
:102540000B682146984770BD704770B504460D462C
:102550006560206801682046884770BD01490160B8
:1025600070470000B05900002DE9F04704460F46BF
:1025700090461E46DDE9089A002501202071607909
:1025800008B101F003FCA6B12068816820468847A5
:1025900020683946026920469047002507E018F870
:1025A00005102068426920469047681CC5B2B542B4
:1025B000F5DBBAF1000F1DD02068816820468847FE
:1025C00047F001012068026920469047002507E096
:1025D000206881692046884709F80500681CC5B253
:1025E000AAF10100A842F3DC2068C16920468847AF
:1025F00009F805002068C16820468847607908B15D
:1026000001F0B4FB207910B90120BDE8F08700206B
:10261000FBE72DE9F0470446894617461E46DDE9EB
:1026200008A8002501202071607908B101F0AEFBF7
:1026300016B9B8F1000F1FD020688168204688477E
:1026400020684946026920469047002506E0795DEA
:102650002068426920469047681CC5B2B542F6DB47
:10266000002507E01AF805102068426920469047C7
:10267000681CC5B24545F5DB2068C168204688471F
:10268000607908B101F072FB207910B90120BDE832
:10269000F0870020FBE733B583B0044600200290AA
:1026A000012002A9CDE90010217A606802680123A7
:1026B000556804AAA847617A084360729DF808002B
:1026C00005B030BDFFB583B0044615461E46CDE9C2
:1026D0000056217A606802680123576804AAB84747
:1026E000617A0843607207B0F0BD37B582B0044626
:1026F000012004A9CDE90010217A60680268012355
:10270000156803AAA847617A0843607205B030BD16
:102710000146487A00224A7270470000034B03606A
:10272000416002720023437270470000B05D0000F8
:10273000024A02600122027141717047BC590000D7
:102740002DE9F04307460C4600216DE0DFF8EC80F0
:1027500058F82180B7EB184F65D1DFF8E08038F8E2
:102760002180C8F30335DFF8D48038F82180C8F31E
:102770000712DFF8C88018F8218008F00F0C4FEA24
:1027800002784FEAD8634FEA450808EB1216DFF8E3
:10279000B08008EB86004FF0030909FA03F9D0F87E
:1027A000008028EA0908C0F800800CFA03F9D0F884
:1027B000008048EA0908C0F80080DFF8848008F14A
:1027C000400808EB86004FF0030909FA03F9D0F836
:1027D000008028EA0908C0F8008004F0030909FA1B
:1027E00003F9D0F8008048EA0908C0F80080DFF853
:1027F000508008F1680808EB85004FF0010909FADC
:1028000002F9D0F8008028EA0908C0F80080C4F373
:10281000001909FA02F9D0F8008048EA0908C0F85E
:102820000080BDE8F083491CDFF8108058F8218053
:10283000B8F1000F8AD100BFF3E700005C00001080
:1028400000C0024010B5044604F1080001F043FA4C
:1028500010BD10B5044604F1080001F017FA10BDD0
:102860002DE9F04104460E46174601F08FFA204646
:10287000FFF7EFFF002506E0715D606803681A68E6
:102880009047681C85B2BD42F6DB2046FFF7DAFFB1
:1028900001F06CFABDE8F081024607481060486814
:1028A000064BC2E90103CB68D3600B7C13744B6900
:1028B0001046536170470000EC5D0000245E00008C
:1028C0002DE9F04104460D4616461F460E4820608D
:1028D00065603A46314604F1080001F00FFAA0F1B4
:1028E00008044FF00108217CE06802685368424602
:1028F000984700BF00BF6169E06803689A68904725
:1029000000BF2046BDE8F081EC5D00000149016098
:1029100070470000E4590000014901607047000061
:10292000F45900000FB47CB504460D46DDE90A01F8
:10293000CDE9000129462046DDE9082301F08AF8A7
:102940007CBC5DF814FB70B504460D462B46204652
:10295000D4E90D1200F002F870BD00002DE9F84F27
:1029600080460D46164699462846FDF77FFE82466C
:102970003046FDF77BFE82444846FDF777FE504423
:10298000471C3846FDF778FC04464B462A4609A109
:1029900020460096FDF7DCFCD8F800002146426A8C
:1029A00040469047274617B13846FDF7A9FC00BFBF
:1029B000BDE8F88F257320257320257300000000E3
:1029C00070B504460D4625B906A12046FFF7BBFFAA
:1029D00003E029462046FFF7B6FF206841692046FC
:1029E000884770BD2D2D00007FB505460C46234657
:1029F00004A20F216846FDF7C1FC69462846FFF78F
:102A0000A2FF7FBD256400000FB42DE9FE430446FC
:102A1000DDE90F75119E1EA0CDE901700E980090A2
:102A200020460BA90EC901F00BFA04461948206094
:102A30002846FDF71BFE00F101084046FDF71CFC8F
:102A400060633046FDF712FE00F101084046FDF7D5
:102A500013FCA0632846FDF709FE00F10108424679
:102A60002946606BFDF721FE3046FDF7FFFD00F1C2
:102A7000010842463146A06BFDF717FE06A120462D
:102A8000FFF79EFF2046BDE8FE035DF814FB000043
:102A90002D2D2D00005A00002D2D000010B5002214
:102AA00003681B788B4207DC03685B788B4203DB8F
:102AB00003681B78CB1ADAB2D0E90043A47802FB92
:102AC0000433836010BDF0B503460C46184601F090
:102AD000CBFC02FB004085B2986800EBE500007873
:102AE00005F007078021394100EA01060EB10120F7
:102AF000F0BD0020FCE701604260436883607047DE
:102B000010B504460420A16808600820A168886107
:102B100020685021026A20469047A0688068C0B2B1
:102B200010BD70B504460D464FF6FF76207950B1C2
:102B300000BF701E80B2060005D0A068406800F09B
:102B4000FC00A842F5D12EB9002020712068C16890
:102B50002046884770BD10B504460C20A1688861E6
:102B600020685821026A20469047A0688068C0B259
:102B700010BD102182681160082182689161704740
:102B800070B50446012020712068C168204688473E
:102B900040F2FF6500BF681E80B20500FBD1202017
:102BA000A168086020680821026A2046904770BD2D
:102BB00070B504460D46A06885602820A16888612C
:102BC00015F0010F05D020684021026A2046904789
:102BD00004E020681821026A2046904770BD70B555
:102BE00004460D46A06885600820A16888612068B9
:102BF0002821026A2046904770BD00002DE9F0436D
:102C000004460E461746984641462046FFF790FD7B
:102C100004461E4820604FF01209012E02D0022EF9
:102C20000BD000BF1A48A06049462820FFF788FD56
:102C300049462620FFF784FD0AE01648A060494671
:102C40002920FFF77DFD49462720FFF779FD00BFCA
:102C500000BF37B1012F07D0022F07D0032F07D0B5
:102C600000BF40F2E24505E07D2503E01F2501E0BD
:102C70000C2500BF00BFA0684561A0680561402029
:102C8000A16808602046BDE8F0830000305A0000CB
:102C900000C0054000000A400246002000BF0B4B68
:102CA000DB6813F0010FFAD0084B996000BF074BA7
:102CB000DB6813F0100FFAD102E0044B9B68D8B226
:102CC000024BDB6813F0040FF7D17047000003409C
:102CD000F0B506460C4615463046FFF717FE064689
:102CE0001E483060002700212520FFF729FD002124
:102CF0001520FFF725FD00211820FFF721FD1848BA
:102D0000006840F480601749C1F8C400062C04D262
:102D1000DFE804F00406080A0C0E00BF312709E0C2
:102D2000182707E00B2705E0052703E0022701E04D
:102D3000002700BF00BFC5F30010072141EA801043
:102D400005F0010140EAC11040EA07200649086089
:102D50000220086148603046F0BD00005C5A000067
:102D6000C4C00F4000C00F400000034070B50446CF
:102D70000D462046FFF7B4FA04460448206065601B
:102D80006068026811688847204670BD6C5A000070
:102D90000181428170472DE9F84F044689469246E9
:102DA0001D460A9E009620682B4652464946C76B30
:102DB0002046B84700270FE04FF0000808E0A18B3D
:102DC0002068426C2046904708F101001FFA80F805
:102DD000A845F4DB781C87B2B742EDDBBDE8F88F7D
:102DE00041837047C1837047818370472DE9F84F55
:102DF00004468946494604F10C00FFF74FFE04F1F2
:102E00000C0001F035FB217E4843401C85B204F1E3
:102E10000C0001F029FB217E00FB01F60095628980
:102E2000218920683346C76B2046B84700252EE02D
:102E3000002727E000261DE02A46314604F10C0059
:102E4000FFF741FE82464FF000080EE0BAF1000F96
:102E500001D0E08B00E0608B01462068426C204688
:102E6000904708F1010000F0FF08207E4045EDDCAE
:102E7000701CC6B204F10C0001F0F6FAB042DBDCC3
:102E8000781CC7B2207EB842D4DC681CC5B204F1FD
:102E90000C0001F0EDFAA842CADC04F10C0001F0CC
:102EA000E3FA2189227E02FB00102081BDE8F88F21
:102EB0003FB50446079D14220A212046FFF79EF8DD
:102EC00004460B48206001A807C8C4E90412E0606A
:102ED00025761F2060834CF21860A0834FF6FF70A8
:102EE000E083002020816081204604B030BD0000D6
:102EF000805A00002DE9F04107460D46164615B1EF
:102F0000A5F1280000E000200446012E05D1606BE9
:102F100001684A6A05A1904706E0032E04D1606B60
:102F200001684A6A03A19047BDE8F081636C696358
:102F30006B00000074657374000000001CB504464B
:102F400004F1080001F023FDD0B920688168204613
:102F50008847012802D0022810D107E00120019003
:102F600001A904F1080001F022FD08E00220009010
:102F7000694604F1080001F01AFD00E000BF00BF3F
:102F800004F1080001F003FDD0B920684168204633
:102F90008847032802D0042810D107E003200190BD
:102FA00001A904F1080001F002FD08E004200090EE
:102FB000694604F1080001F0FAFC00E000BF00BF20
:102FC0001CBD10B50446206988B12069026891696A
:102FD000884720690268916A884708B1032010BDBC
:102FE00020690268516A884708B10420F7E7002089
:102FF000F5E700002DE9F04105460F461646002191
:10300000284600F09FFD05460F48286005F108049A
:103010004FF01408002020716071A07184F80780BF
:10302000E079002803DDE07901F043FA206000BF79
:10303000A4F108052F6126B1306829464268304660
:1030400090472846BDE8F081DC5A000070B5044680
:103050000D4660680168CA692946904770BD70B521
:1030600004460D46606801684A6A2946904770BD6B
:103070002DE9F84304460D4616461F46DDE908894A
:10308000606801680A6A49469047CDF80080606828
:1030900001683B463246D1F830C02946E047BDE8DA
:1030A000F88310B50446606802681168884710BD4F
:1030B0002DE9F04104460F4690461D4660680168C0
:1030C00042468B6A39469847002606E0A95D60684B
:1030D00003689A689047701CC6B2A85D0028F5D1B5
:1030E000BDE8F0812DE9FC470446884691469A46A2
:1030F000DDE90A750C9ECDE90056206853464A4624
:103100004146D0F824C02046E04709EB0700401BA9
:1031100082B2CDE90056206853464146D0F824C01B
:103120002046E047CDE9007620682B464A464146D6
:10313000D0F824C02046E04708EB0A00401B81B2CB
:10314000CDE9007620682B464A46D0F824C02046B8
:10315000E047BDE8FC87000070B504460D462046F8
:10316000FFF7BEF804460448206065602046FFF77C
:1031700098FF204670BD0000F05A000010B50446CC
:10318000322000F0E5FD00220721204600F058F92A
:103190004FF480720121204600F052F94FF4C062D2
:1031A0000221204600F04CF900220421204600F0C4
:1031B00047F940F207220821204600F041F9002299
:1031C0000921204600F03CF900220A21204600F0A7
:1031D00037F900220C21204600F032F900220D219F
:1031E000204600F02DF900220F21204600F028F99A
:1031F00000221021204600F023F900221121204650
:1032000000F01EF900221221204600F019F90022D8
:103210001321204600F014F9C82000F099FD41F276
:10322000B0221021204600F00BF907221121204680
:1032300000F006F9322000F08BFD40F285121221D9
:10324000204600F0FDF8322000F082FD4FF4A0523D
:103250001321204600F0F4F80E222921204600F028
:10326000EFF800222A21204600F0EAF8322000F090
:103270006FFD4FF41C526021204600F0E1F801225E
:103280006121204600F0DCF800226A21204600F08F
:10329000D7F800228021204600F0D2F800228121B8
:1032A000204600F0CDF800228221204600F0C8F828
:1032B00000228321204600F0C3F80022842120460A
:1032C00000F0BEF800228521204600F0B9F8102257
:1032D0009021204600F0B4F800229221204600F010
:1032E000AFF803229321204600F0AAF84FF4887229
:1032F0009521204600F0A4F800229721204600F0F6
:103300009FF800229821204600F09AF841F23802F6
:103310000321204600F094F8002084F8380020466D
:1033200000F09BF84FF489720721204600F088F8DE
:1033300010BDF8B50446F020009020684FF4A0734B
:1033400000221146C56B2046A84700250CE0002648
:1033500006E0618B2068426C20469047701C86B264
:10336000F02EF6DB681C85B2B5F5A07FEFDBF8BD6B
:103370002DE9F04105460C4616461F46DDF818803B
:1033800032465021284600F05BF806EB0800401E4C
:1033900082B25121284600F053F822465221284695
:1033A00000F04EF8E019401E82B25321284600F08A
:1033B00047F832462021284600F042F822462121D3
:1033C000284600F03DF82221284600F00DF80020A4
:1033D00085F83800BDE8F08170B504460D462946F1
:1033E000204600F017F870BD38B505460C4608A019
:1033F0000068009020128DF80100E0B28DF8020004
:103400000322694605F12000FFF72AFA38BD0000C3
:103410007000000038B505460C4608A00068009012
:1034200020128DF80100E0B28DF8020003226946F7
:1034300005F12000FFF714FA38BD0000720000000B
:1034400070B505460E46144631462846FFF7CCFFB8
:1034500021462846FFF7DEFF70BD10B5044694F8FC
:103460003800B8B9002250212046FFF7E9FFEF22CB
:1034700051212046FFF7E4FF002252212046FFF7AA
:10348000DFFF40F23F1253212046FFF7D9FF012012
:1034900084F8380010BD00000FB4F8B505460E469C
:1034A00014460C9F0097284609A90EC9FFF700FD96
:1034B00005460E482860314605F12000FFF7ECF97B
:1034C000A0F120052068012102682046904720686D
:1034D000C168204688472846FFF750FE20684168AB
:1034E000204688472846F8BC5DF814FB345B000092
:1034F0002DE9FC4104460B2104F11000FFF7CBF845
:10350000002856D005236A464D2104F11000FFF72C
:10351000D9F801224B2104F11000FFF7E6F8002250
:103520004B2104F11000FFF7E0F89DF801009DF831
:1035300000104FF4807202FB010085B29DF8030079
:103540009DF8021002FB010086B29DF8048004F190
:103550001000FFF7DDF840BBB8F10A0F26DD0A2D99
:1035600021DDB5F57F6F1EDC0A2E1CDDB6F57F6F01
:1035700019DC608900FB06F7421EF91707EB1151B1
:103580000813002101F0F8F9A080A18901FB05F7DB
:10359000F91707EB1151A389A3EB21305A1E002123
:1035A00001F0EAF9E0800120207201E000202072A1
:1035B00000BFBDE8FC8100002DE9F04104460F4644
:1035C00015461E46DDF8188042463146204600F07A
:1035D000E9FC0446384820600DB1882000E08220D4
:1035E0000246394604F11000FFF798F8A0F11004E4
:1035F0000222032104F11000FFF777F80A2000F0FF
:10360000A7FB0C22042104F11000FFF76EF8002242
:103610000A2104F11000FFF768F86922202104F163
:103620001000FFF762F8022000F092FB0122212136
:1036300004F11000FFF759F80022172104F11000DF
:10364000FFF753F80022412104F11000FFF74DF875
:1036500001224A2104F11000FFF747F801224B2113
:1036600004F11000FFF741F800224B2104F1100093
:10367000FFF73BF80722562104F11000FFF735F859
:103680000122582104F11000FFF72FF801224021F8
:1036900004F11000FFF729F8FF220B2104F11000BC
:1036A000FFF723F80122092104F11000FFF71DF8AC
:1036B0002046BDE8F0810000845B00002DE9F04762
:1036C00006460C461746032F10D114B1A4F12C0066
:1036D00000E0002080467568D8F83810486BC16A51
:1036E00089462868426A2846904700BFBDE8F087AF
:1036F00010B50446E08A10B1E08A401EE082A0695D
:10370000A8B1A069026891698847A0690268916AB6
:10371000884740B9E08A50B9A08A40B1A0690268E0
:10372000D169884718B1A08AE082012010BDE06904
:10373000A8B1E069026891698847E0690268916A06
:10374000884740B9E08A50B9A08A40B1E069026870
:10375000D169884718B1A08AE0820220E6E70020FC
:10376000E4E700002DE9F04704460E461746984668
:10377000DDE908592A4641462046FFF73BFC04464E
:103780000E482060A661E76185B128680168284677
:10379000884758B128680168284688474FF47A71ED
:1037A00009FB01F1B1FBF0F0A08201E00020A08252
:1037B000A08AE0822046BDE8F0870000A85B0000F8
:1037C0000FB4F0B5C3B04D9E4C9D4FA8019002A818
:1037D000019A4E99FCF780FD002001901348007873
:1037E00010F0010F08D1114800F083FE20B11048FD
:1037F00000BF0E48AFF300800D48046820682946DA
:103800004269204690472068314602692046904729
:10381000499882B2489881B2206802AB87692046F5
:10382000B84743B0F0BC5DF814FB0000E80000109E
:10383000EC000010FFB583B0DDE90C5610480078AD
:1038400010F0010F08D10E4800F053FE20B10D48D2
:1038500000BF0B48AFF300800A480468069880B2A6
:10386000CDE901650090059883B2049882B203986F
:1038700081B22068876A2046B84707B0F0BD0000D3
:10388000E8000010EC00001010B5029C01604260DE
:103890008360C46010BD70470FB410B5044600BF0C
:1038A000059903980844A169884211DB0699049898
:1038B0000844E16988420BDB216AA0690844039946
:1038C000884205DD616AE06908440499884203DCA6
:1038D000002010BC5DF814FB0120FAE710B5044687
:1038E000207B30B9A06830B1A06802685168884771
:1038F00008B1012010BD0020FCE70FB4F8B5044664
:10390000206841682046884710B1F8BC5DF814FB78
:1039100000BF0998002804DD0A98002801DD012075
:1039200000E0002078B30A980090206805692046DE
:1039300007A90EC9A84730B30A9800902068C66945
:10394000204607A90EC9B04704F1100000F00AF99B
:1039500005460DE0002028730A98009028688668C4
:10396000284607A90EC9B047284600F0E8F80546E2
:10397000002DEFD10A9800902068066A204607A91A
:103980000EC9B04700BF00BFBFE700000FB4F0B5DD
:103990008BB00446DDE913010144D4E9082010444A
:1039A000814204DA11A80FC807AD0FC504E004F185
:1039B00018000FC807AD0FC507A80FC803AD0FC586
:1039C000A68A1148007810F0010F08D10E4800F0C7
:1039D00090FD20B10D4800BF0B48AFF300800B48AD
:1039E0000568069880B2CDE90006059883B2049870
:1039F00082B2039881B22868476A2846B84700BF58
:103A00000BB0F0BC5DF814FBE8000010EC000010F7
:103A100038B50446206841682046884700B138BD63
:103A2000A06848B1606A0090A06801688D68D4E918
:103A30000723A169A84708E00548C06800902068EE
:103A4000856803480EC82046A84700BFE7E7000086
:103A5000500200100FB42DE9FC4105460E4605F159
:103A6000100000F07FF8044619E0032E08D00D98EE
:103A700000902068076920460AA90EC9B84750B1CE
:103A8000DDE90C01CDE900012068C7683146204618
:103A9000DDE90A23B847204600F051F80446002C1F
:103AA000E3D1BDE8FC015DF814FB70B504460D469A
:103AB000AC6028682146826928469047294604F16F
:103AC000100000F025F870BD0FB470B50446099ED3
:103AD00025460021284600F035F805460A482C46C0
:103AE0000A48286004F1100000F04BF8A0F110041F
:103AF000A68205A80FC804F118050FC50120207380
:103B0000204670BC5DF814FB685D0000BC5B0000E3
:103B100003460A46196808E0914201D10020704727
:103B2000486808B1496800E001E00029F4D100BF0D
:103B300009B14A6000E01A600120F0E770470146D1
:103B40004868704730B504460D460548206000209F
:103B500060601DB121462846FFF7DAFF204630BDE0
:103B6000185E000001460868704770B505462C686D
:103B700004E020680168204688476468002CF8D17A
:103B800070BD00210160704710B50246106800E06A
:103B9000406820B10B00A1F10104A1B2F8D110BD21
:103BA00010B504462068416920468847217C09B148
:103BB000012200E0002204F1080151F82210A27E47
:103BC00021F81200E07E401CE076E07E617E8842B3
:103BD00009DAE17E6069405CA076A17E2068826996
:103BE0002046904707E00020E076E17E6069405C77
:103BF000A0760020207710BD10B50446607EA0B1ED
:103C0000207F90B90020E076E17E6069405CA0767C
:103C1000207C08B9012000E00020207401202077DA
:103C2000A17E206882692046904710BD70B5044689
:103C30000D46164600212046FFF784FF04460F4834
:103C4000206026B130682146426830469047002007
:103C5000A076E07660762576680000F02AFCA06009
:103C6000680000F026FCE060284600F022FC60615D
:103C7000002020742077204670BD0000E85B000023
:103C8000014A026001717047105C000010B50446E3
:103C9000E168606803681A69904710BD10B5044672
:103CA0006068026851698847E168084201D00120D4
:103CB00010BD0020FCE770B504460D462DB1E1684B
:103CC000606803689A68904704E0E1686068036888
:103CD0001A69904770BD10B50446E16860680368D2
:103CE0009A68904710BD70B504460D46217A606809
:103CF000026853682A46984770BD000010B5044B0F
:103D0000036041600272047A0123A340C36010BDC6
:103D1000245E00000149016070470000245C00003F
:103D20002DE9F0410446204600F0E7FF0546002259
:103D3000064B00F0F5FF074600F0B2FF84B201E049
:103D4000601E84B2002CFBDCBDE8F08100803040B6
:103D500010B5044605E04FF47A70FFF7E1FF601EEE
:103D600084B2002CF7DC10BD7047000006480078D4
:103D7000002804DD04480078401E0349087002480A
:103D8000007800B962B670470C00001072B60348A4
:103D90000078401C01490870704700000C000010BA
:103DA00000B503460A46FDF79DFFFFF7DDFF0AB1A8
:103DB000FFF7ECFF184600BD0FB43EB504460A9865
:103DC0000090204607A90EC9FFF7E0FDA18A228EC8
:103DD000E06ACDE90021029004F118000FC8FFF756
:103DE000EFFC3EBC5DF814FB70B504460E46304651
:103DF000FCF73CFCA16A884201D8E06AA0B9E06AFD
:103E000030B1E56A15B12846FCF77AFA00BF00BF69
:103E10003046FCF72BFCA062A16A481CFCF72CFA88
:103E2000E062E06A00B970BDA16A4A1C3146E06AEE
:103E3000FCF73BFC206841692046884700BFF2E759
:103E40000FB47CB50446DDE90B6501960A98009035
:103E5000204607A90EC9FFF737FE0446094820602F
:103E60004FF6FF7020860020E0622846FCF7FEFB3C
:103E7000A06229462046FFF7B7FF20467CBC5DF8CC
:103E800014FB0000445C000001238B40026A1A43CB
:103E900042F08072014B1A607047000000400340FE
:103EA00001460248406880B270470000004003406D
:103EB00070B504460D462A4608212046FFF7B6FE97
:103EC00004460F4820600F4804600F48006840F423
:103ED00080500E49C1F8C4000D48006840F400103D
:103EE0000B4908604FF48070C8600A482062206A5D
:103EF00008604FF01600FEF775F8204670BD000010
:103F0000745C00001C000010C4C00F4000C00F40D3
:103F1000004003400001200010B504460121204666
:103F2000FFF7AEFE04460D48206002210820FEF790
:103F300007FC0B48006820F440000A49C1F8A801BA
:103F400007480068064908604FF0190006490881D3
:103F50004FF006004860204610BD00009C5C000049
:103F6000A8C10F4000C00F4000C0084010B5044673
:103F700004F10800FFF7F9FD10BD014648687047DD
:103F800030B504460D46294604F10800FFF7C0FD90
:103F900030BD0146888870470146C8887047014691
:103FA000087A7047044B036041818281002383803B
:103FB000C380037270470000CC5C00002DE9F0471D
:103FC00007462F48D0F8008018F0080F14D00820BA
:103FD0002C4908602C49384600F064F82B493846D3
:103FE00000F074F8044614F0100F03D038688168AC
:103FF00038468847BDE8F08718F4007F0CD0244984
:10400000384600F04FF82349384600F05FF8044680
:104010004FF400701B49086018F0040F2ED01E48A2
:10402000D0F800904FF001054FF000061DE019EAAE
:10403000050F17D029EA05091848056000BF104888
:10404000006810F0200FFAD0154804684FEA6600A7
:1040500006F0010240EAC2113868C4F38002036826
:1040600038469847701CC6B26D00202E02DAB9F1AE
:10407000000FDCD104200349086000BF00BFB9E78E
:1040800000C2005008C200500005FE000002FE0001
:104090000005FB000002FB0030C2005038C2005097
:1040A00014C200501022064B1A60064AC2F81012C1
:1040B00000BF054A126812F0100FFAD070470000D6
:1040C00008C2005000C0005000C20050024630201C
:1040D000064B18600648C0F8101200BF054800687B
:1040E00010F0200FFAD004480068704708C2005052
:1040F00000C0005000C2005014C200500FB438B5C8
:10410000044608980090204605A90EC9FFF73EFC1A
:1041100038BC5DF814FB0FB42DE9FC4104460D4694
:10412000DDE90C01CDE9000129462046DDE90A233D
:10413000FFF790FC012D04D0032D24D194F830001A
:1041400008B3012D01D1012000E0002084F83000E7
:10415000022194F8300008B1208F00E0A08ACDE958
:10416000000104F118000FC8FFF764FB04F12806F2
:104170002F46706828B1706801683A460B6831466E
:10418000984700BF00BFBDE8FC015DF814FB0000CC
:104190000FB4FEB50446DDE90D5701950C9800906B
:1041A000204609A90EC9FFF78FFC044604F1280038
:1041B000FEF7D4F9A0F12804104820602C30A0624A
:1041C0004FF478402087342000F079F90646CDE995
:1041D00001570C980090304609A90EC9FFF730FE30
:1041E00006466063002084F830002046616BFFF7CC
:1041F0005CFC2046FEBC5DF814FB0000E45C0000A3
:104200000FB438B5044608980090204605A90EC999
:10421000FFF741FB0021204600F01CF838BC5DF898
:1042200014FB10B50446032104F12C00FEF780F9BD
:1042300010BD70B506460C461546032D05D114B1C8
:10424000A4F1280000E00020B0632946304600F0C9
:1042500001F870BD7CB504460E4604F11000FFF76E
:1042600081FC054611E00221A06BA84201D1A08F7C
:1042700000E0A88ACDE9000105F118000FC8FFF79A
:10428000D9FA2846FFF75BFC0546002DEBD13146F5
:1042900004F12C00FEF74CF97CBD0FB438B5044690
:1042A00008980090204605A90EC9FFF76FFB38BC9F
:1042B0005DF814FB0FB47CB504460D46DDE90A0138
:1042C000CDE9000129462046DDE90823FFF7C2FBBE
:1042D0007CBC5DF814FB00000FB42DE9F04F89B0F1
:1042E0000446179F019716980090204613A90EC9FF
:1042F000FFF7EAFB044604F12800FEF70DFBA0F1EE
:10430000280404F12C00FEF729F9A0F12C042D4813
:1043100020603430A0620C30E062189860634FF681
:10432000E070A087002020641AA8089019980790D0
:104330004FF00008C14639E03C2000F0C0F80546C7
:104340001598616B90FBF1FB16980090DDE9130264
:1043500000EB08015B4603A8FFF796FA8246079830
:10436000CDE90170DAF80C00009028469AE80E00BA
:10437000FFF70EFF05462E4604F1280106F128003E
:10438000FEF7E3F831462046FFF78FFBA66315984A
:10439000616B90FBF1F0404400F0FF080898006862
:1043A00007900898001D089009F10109606B4845C5
:1043B000C2DC00200890204609B0BDE8F00F5DF88F
:1043C00014FB00001C5D00000146087B704770472D
:1043D000704710B512F0010F07D043681B68012425
:1043E0008C4023434468236006E043681B68012433
:1043F0008C40A3434468236010BD4268D16170477C
:104400000146486840697047426891617047000002
:1044100070B504460D462046FFF77CFC0446104864
:104420002060052D04D2DFE805F004070B0F130010
:1044300000BF0C4860600FE00A48203060600BE06D
:1044400008484030606007E006486030606003E084
:1044500004488030606000BF00BF204670BD00008F
:10446000905D000000C0092001460868C0787047D0
:10447000014608680079704770B504460D46164637
:10448000283C324629462046FDF730FF70BD70B506
:1044900004460D461646283C324629462046FFF77C
:1044A000C8FE70BD10B504462C3C2046FFF7B9FE8F
:1044B00010BD10B504462046FBF7DEFE10BD10B55A
:1044C00004462046FBF7D8FE10BD490050EAC12043
:1044D00018BF04204A0D18BF40F0010040F2FF72DF
:1044E000B2EB515F08BF40F00200012808BF052071
:1044F0007047016809B1002070470121016008463A
:104500007047FCF7ABF80000014800BF704700009F
:104510005002001030B587B000214248FFF740FC40
:104520004FF47A7200214048FDF784FD6422042193
:104530003E48FDF77FFD00213D48FFF769FF01215F
:104540003C48FFF765FF04213B48FFF761FF3B480C
:10455000FFF7E2FC34493A48FFF7AAFC1122052193
:104560003848FEF7B5FB0623314A36493648FEF790
:10457000A7F91C2230493548FFF7C0FB04AD344C85
:10458000621D21462846FEF7B6FA00BF02200290BF
:10459000DDE90501CDE900012C4A2B492D48049B9A
:1045A000FEF77AFF2B492C48FEF7E0FB01231A4661
:1045B00002212A48FEF722FBF0204FF4A0730022CC
:1045C000264900902648FEF7F7FF01200023182215
:1045D000184900902348FDF75DFE012000231A22B0
:1045E000144900902048FDF755FE012000231422B5
:1045F000104900901D48FDF74DFEC8200A491B4B8D
:10460000184ACDE9001018491948FFF7ABF8002007
:1046100001231F22074900901648FDF73BFE07B013
:1046200030BD0000B8000010F000001008010010BC
:10463000BC000010C4000010CC000010D40000101A
:1046400020010010DC000010440100105C0100108B
:10465000865300006C010010E0000010A80100105B
:10466000B4010010D0010010E80100100002001099
:10467000180200103802001030380A2801D2012038
:1046800070470020704700009AB095490CA8FEF7CB
:1046900063FD0CA806904FF4A0700790F0200890DE
:1046A0009048007810F0010F08D18E48FFF721FFE5
:1046B00020B18D4800BF8B48AFF300808A4906982F
:1046C0000860089800900022114602A8079BFFF797
:1046D000DBF8864990E80C10C06881E80C10C860CF
:1046E00000BF2820FFF7EBFE199040F2FF70019009
:1046F0007E48C06800907D480EC81998FFF7E4F91D
:10470000814619900420FFF7DAFE80461890FEF7E4
:1047100003F980467648C8F80000CDF860803C2058
:10472000FFF7CDFE17901E2064231422014600904F
:1047300013A8FFF7A9F808906EA00021CDE9011099
:104740000898C068009008980EC81798FFF720FDD9
:104750008246179041460AF12800FDF7F6FE5146C1
:104760004846FFF7A2F93420FFF7A9FE12901E2059
:1047700064231A461946009013A8FFF785F808909D
:104780005EA00021CDE901100898C068009008984B
:104790000EC81298FFF754FB12900B9048460B99E5
:1047A000FFF783F90820FFF78AFE002111900160CE
:1047B0004160119E3046FEF7AFF806465148306022
:1047C00011960B9870604420FFF779FE10901E2020
:1047D000C82396223221009013A8FFF755F80890BD
:1047E00049A04AA14AA20323CDE90232CDE904102F
:1047F000002001900898C068009008980EC8109892
:10480000FFF76AFD10900A9031460A982C30FDF7A8
:104810009CFE48460A99FFF748F92820FFF74FFE0B
:1048200019904FF6FF7001903048C06800902F48F3
:104830000EC81998FFF748F9834619903C20FFF7F6
:104840003EFE0F901E20C8230A221146009013A896
:10485000FFF71AF808902FA02FA10022CDE901211F
:1048600003900898C068009008980EC80F98FEF74B
:10487000CBF80F9009900A210998FEF7B5F8584631
:104880000999FFF712F94020FFF719FE0E90022058
:10489000CDE9029B01901548C068009013480EC8EE
:1048A0000E98FDF7A5FD07460E900C20FFF707FEBA
:1048B00004461A482760606000212268117300BF17
:1048C00025460A48C06800903868D0F808C00748F4
:1048D0000EC83846E04702E02846FDF769FCFBE7D2
:1048E0006C010010E8000010EC00001050020010F5
:1048F000D05A000074657374000000006C6162653A
:104900006C0000009C5B000062330000623200001B
:104910006231000073000000743A0000B40100101E
:1049200010B500290AD00878002807D00548784437
:10493000FCF788FD002801D0002010BD0248784413
:1049400010BD00002A1500002215000010B5002936
:104950000AD00878002807D005487844FCF772FD93
:10496000002801D0002010BD0248784410BD00008E
:104970001A150000121500000346934201DD10468F
:1049800070478B4201DA0846FAE71846F8E700B5A7
:104990000246FFF7FBF99079D179884201DB0120CB
:1049A00000E000200346FFF7E1F9184600BD30B5EE
:1049B00002460B460024FFF7E9F99079D179884245
:1049C00011DA18781579116848551179D079401E97
:1049D000814202DA1079401C00E0002010719079C9
:1049E000401C90710124FFF7C1F9204630BD000042
:1049F0002DE9C04130B4DFF8A0C23CEA111418BF61
:104A00003CEA131400F0EC8081EA03051CEA11145F
:104A100044EAD57418BF1CEA131500F0C780A4EB54
:104A200005044FF0004545EAC12145EAC32341EAA8
:104A3000505143EA525304F17F74994204F5003413
:104A40004FEAC0204FEAC22208BF904200F09C808B
:104A50004FEA13650FF24016765D4FEA134506FBE9
:104A600005F7C7F1807706FB07F74FEAD737A7FBB3
:104A700003687642C8F58038A7FB06CE38BFA8F198
:104A8000010807FB08E64FF0000EA6FB028CE6FBD0
:104A900003CEDCF1000CCEF1004E38BFAEF1010EBA
:104AA000A6FB0C584FF000074FF00005E6FB0E8701
:104AB000A1FB08C6A0FB07CE16EB0E0645F10005CC
:104AC000E1FB076515F1E04E7EBFA4F580345FEA97
:104AD00046066D4116F1800745F100054FEA17279C
:104AE0004FEA066647EA0567A6F1DE46B6F1805F43
:104AF0004FEA15251FD9384624F0010C05EBC47187
:104B0000BCF1FE6F01EB0C1102D8F0BCBDE80081D6
:104B100024425CBF01F5801E9EEAC47F02D4F0BC33
:104B2000BDE80081244238D4F0BCA1F1C041BDE809
:104B3000004100F0EDB94FEAD22242EA43524FEA77
:104B4000D323A7FB02864FEAD02040EA415007FB5F
:104B500003661EEA0E0F4FEAD12105FB026658BF1D
:104B6000A6EB0056B6EB00564FEA520E4EEAC37E55
:104B700018EB0E0E56EB530EBDD518EB02085E4136
:104B80007F1C55F10005B6E74FF480154FF0000784
:104B90004FF000064FF00008ADE7F0BC4FF000000A
:104BA00001F1C04101F00041BDE8008111EA0C1F94
:104BB0000CEA131500D00CE013EA0C1F00F025805E
:104BC0004FF00000F0BC81EA030101F00041BDE8B4
:104BD0000081F0BCBDE8004181EA030100F098B912
:104BE000F0BCBDE8004170B500F044F9097EFC3E20
:104BF00000F007B881EA03014FF0000001F0004126
:104C0000704781EA030100F083B9F0BCBDE80041C0
:104C10004FF0000021497047FFFDFBF9F7F5F4F272
:104C2000F0EEEDEBE9E8E6E4E3E1E0DEDDDBDAD847
:104C3000D7D5D4D3D1D0CFCDCCCBCAC8C7C6C5C4A5
:104C4000C2C1C0BFBEBDBCBBBAB9B8B7B6B5B4B3BC
:104C5000B2B1B0AFAEADACABAAA9A8A8A7A6A5A4A7
:104C6000A3A3A2A1A09F9F9E9D9C9C9B9A9999986B
:104C70009797969595949393929191908F8F8E8E0E
:104C80008D8C8C8B8B8A898988888787868585849B
:104C900084838382828181800000FF070000F87F87
:104CA0004FEA1153A3F58063D3F11E03A8BFD3F1DC
:104CB000200C08DB4FF0004242EAC12252EA505277
:104CC00032FA03F0704709420BD4102BC4BF002006
:104CD000704703F5787CBCF1FF3F05D04FF0FF3003
:104CE00070474FF00000704770B500F0C3F800BF88
:104CF0004992248000207047F0E7B0FA80F310FA60
:104D000003F10AD0C3F11D0303F580634FEA41505C
:104D10004FEA035202EBD12170474FF00000704779
:104D2000DFF848C170B51CEA111E1EBF1CEA13153E
:104D30009EEA0C0F95EA0C0F00F06F8081EA0304E5
:104D400023EA4C134EEAD47E21EA4C1141F480113F
:104D500043F48013AE44A1FB024CA0FB0365AEF10B
:104D60007F7E361955EB0C05A1FB034C4CF100037B
:104D7000A0FB021C16EB0C06654153F1000309422F
:104D800018BF46F0010613F4007F0BD14FEA033140
:104D90004FEA0530340341EA155140EA16506FF0EE
:104DA00003020AE04FEAC3214FEAC520F40241EAB8
:104DB000555140EA56506FF0020202EB2E4201EBD1
:104DC000025585EACE710AD05FEA440C18BF24F080
:104DD000004450F1000041F1000120EAD47040F29B
:104DE000FE7C624500D270BDA84214BF4FF08044E3
:104DF0004FF04044002E08BF0024BEF1806FA8BFD2
:104E0000A1F1C041BDE8704080F282804FF0000007
:104E100001F1C04101F0004170479EEA0C0F0CEA1D
:104E2000131518BF95EA0C0F06D04FF0000081EA69
:104E3000030E0EF0004170BD00F01CF88900013E29
:104E400000F007B800F009B84FEA430C5FEA5C5C79
:104E500008D081EA030100F05BB84FEA410C5FEA39
:104E60005C5CF6D14FF00000014970470000FF077D
:104E70000000F87F0EF1020E2EF0030E5EF8046BB8
:104E8000364205D4012A43EB030515F5001F12D85D
:104E9000012841EB010C1CF5001F0CD80ED14FEA84
:104EA000D17C15F5001F0CEB4C0C0CF1020C08BF6B
:104EB0004CEBD37C04E04FF0080C01E04FEAD37CCC
:104EC0000CEB4C0526FA05F606F00706B6F1040CC5
:104ED00006D20EEB860CBDE870404CF0010C60472A
:104EE000DFE80CF0090B02024FF000414FF0000028
:104EF000A1F5002170BD19461046012851EB0104AF
:104F000018BFD4F5001484BF002001F0004170BD2B
:104F10000808A0F500114FEA31017047401058BF52
:104F2000C0F14040491058BFC1F140418142EFF308
:104F3000008070474FF47F0C1CEAD0121EBF1CEAA1
:104F4000D11392EA0C0F93EA0C0F00F0858090EADF
:104F5000010F48BF42F4807240F4000C41F400009D
:104F60002CF07F4120F07F4000B58142A2EB03028C
:104F70000FF2081CACEB504EC0F100009EF800E0B0
:104F80004FEA4E0E00FB0EFC38BF49004FEA2C1CC6
:104F900002F5FA020CFB0EF34FEACE1E4FEA112C7B
:104FA0004FEAC1210EEB635E42EB22420EFB0CFC8A
:104FB0004FEA1C5300FB03114FEA112C4FEA013159
:104FC0000EFB0CFC4FEADC4C00FB0C11C14228BF6D
:104FD00009184CEB03335DF804EB10EB410143EB94
:104FE000C250B2F57C0F38BF704729D512F0F00FD0
:104FF0001CBF00F1C04000F0004070470081828378
:105000008485868788898B8C8D8E8F9192939596D7
:1050100097999A9C9D9FA0A2A3A5A7A8AAACAEB061
:10502000B2B3B5B7B9BCBEC0C2C5C7C9CCCED1D466
:10503000D7D9DCDFE2E6E9ECF0F3F7FAFE00000096
:105040004FEA400C0CF1807CBCF17E4F28BF7047CA
:10505000B0F1C04000F05FB990EA010F0CEAD11343
:1050600048BF42F48072624538BF634507D213F4EB
:105070007F0F16D080EA010000F00040704710B5A5
:1050800000F003F9097EFC3E00F005B880EA01005B
:1050900000F00040704780EA010000F0004000F09E
:1050A0003AB912F47F0F04BF0248704780EA01004A
:1050B00000F031B90000C07FC10DD1F19E0206DBC6
:1050C0004FEA002343F0004323FA02F07047004206
:1050D00007D54FEA4001B1F1FE4F02D24FF0000078
:1050E000704710B500F0D1F8499224800020704735
:1050F0006FEA200070470000B0FA80F310FA03F264
:10510000C3F19D030AD0D90501EB1220530638BF25
:10511000704700F1010008BF20F001007047000057
:1051200050EA010C00F113801CF5000F58BFBCF5CC
:10513000000F01D48842704707D710F5000F58BF01
:1051400011F5000F15D488427047894270471CF54D
:10515000000F04D5BCF5000FF7D5814270474FF022
:10516000807C1CEB400F38BF1CEB410F01D2814209
:10517000704710B500F089F8922449004FF00050B4
:105180004FF08051FFF7CABE4FF47F0C1CEAD012DB
:105190001EBF1CEAD11392EA0C0F93EA0C0F00F029
:1051A000478090EA010F48BF42F480724FF0004CF4
:1051B0004CEA00204CEA012102EB0302A0FB0113A0
:1051C000A2F50002002918BF43F001035B0028BFCD
:1051D0004FEA330342EB22425FEA132C4CEBC250FE
:1051E0002EBFBCEB436FB2F57C0F70474FEA036CE8
:1051F000BCF1004F08BF20F00100B2F57C0F38BFB2
:1052000070470BD582F0FF0212F5803FC8BF704790
:1052100000F1C040D8BF00F00040704700F5000C1E
:105220005FEA4C0C48BF7047B0F1C04000F073B863
:1052300090EA010F0CEAD11348BF42F48072624534
:1052400038BF634504D280EA010000F00040704797
:1052500010B500F01AF800BF8900013E00F007B851
:1052600000F009B85FEA410C5FEA1C6C08D080EAE4
:10527000010000F050B85FEA400C5FEA1C6CF6D108
:105280004FF00040A0F5800070470EF1020E2EF0A6
:10529000030E5EF8044B244204D44FEA4102B2F1FB
:1052A0007F4F11D84FEA4003B3F17F4F0CD80ED196
:1052B0004FEAD07CB2F17F4F0CEB4C0C0CF1020C9E
:1052C00008BF4CEBD17C04E04FF0080C01E04FEA42
:1052D000D17C0CEB4C0324FA03F404F00704B4F182
:1052E000040C06D20EEB840CBDE810404CF0010C0F
:1052F0006047DFE80CF0070802024FF00040A0F51D
:10530000800010BD0846420018BFD2F1807288BFED
:1053100000F0004010BDFF2141EAD050C0057047A9
:1053200051EA000C00F113801CF5000F58BFBCF5CA
:10533000000F01D48142704707D711F5000F58BF05
:1053400010F5000F15D481427047894270471CF553
:10535000000F04D5BCF5000FF7D5884270474FF019
:10536000807C1CEB410F38BF1CEB400F01D2884200
:10537000704780EA010081EA000180EA0100FFF73E
:10538000F8BEFBF79EBB207F0C080C00000000005D
:1053900000000000000000000808080808080800D5
:1053A00008000000141414000000000000000000B9
:1053B0000A0A3F1414147E2828000000081C22202A
:1053C0001C02221C08000000205122040810224563
:1053D000020000001820201030494A443B00000021
:1053E0000808080000000000000000000408081081
:1053F0001010101008080400100808040404040425
:10540000080810000000361C7F1C36000000000059
:1054100000000808087F08080800000000000000DD
:10542000000000000810000000000000007F0000E5
:105430000000000000000000000000000800000064
:105440000001020408102040000000001C2222225B
:10545000222222221C000000083808080808080838
:105460003E0000001C220202040810203E00000042
:105470001C2202020C0202221C000000040C0C146C
:1054800014243E040E0000003E2020203C02022294
:105490001C0000000C1020203C2222221C000000D6
:1054A0003E22020404080810100000001C222222E0
:1054B0001C2222221C0000001C2222221E020204A6
:1054C00018000000000000080000000008000000B4
:1054D00000000008000000000810000000000408A0
:1054E00010201008040000000000003E003E0000F4
:1054F0000000000000001008040204081000000072
:105500001C22020204080800080000001E214D555C
:1055100055554E201C0000001808081414223E2285
:10552000770000007E2121213E2121217E00000004
:105530001E214040404040211E0000007C222121CD
:10554000212121227C0000007F2120243C242021D5
:105550007F0000007F2120243C24202078000000D0
:105560001E214040404741211E0000007722222298
:105570003E222222770000003E080808080808089A
:105580003E0000001E0404040404444438000000EB
:105590007322242428382422730000007C10101069
:1055A000101010117F000000632236362A2A2222B2
:1055B00077000000672232322A262622720000007D
:1055C0001C224141414141221C0000007E21212139
:1055D0003E202020780000001C2241414141412210
:1055E0001C1B00007E2121213E2424227300000088
:1055F0003E4140403E0101413E0000007F49080815
:10560000080808081C0000007722222222222222F9
:105610001C00000077222222141414080800000045
:10562000772222222A2A2A14140000007722141436
:1056300008141422770000007722221414080808A6
:105640001C0000007F420404081010217F000000AD
:105650001C1010101010101010101C000040201012
:1056600008040201000000001C04040404040404F3
:1056700004041C08142200000000000000000000C8
:1056800000000000000000000000FF001008000003
:1056900000000000000000000000003C023E42420A
:1056A0003D0000006020203E212121217E000000DD
:1056B0000000003E414040413E0000000602023E24
:1056C000424242423F0000000000003E417F404114
:1056D0003E0000000C10103C101010103C000000A8
:1056E0000000003F4242423E02023C006020202C6B
:1056F000322222227700000008000038080808083B
:105700003E0000000400003C0404040404043800CB
:105710006020202624283824630000001808080888
:10572000080808083E000000000000742A2A2A2AFF
:105730006B0000000000006C322222227700000083
:105740000000003E414141413E0000000000007E5B
:10575000212121213E2070000000003F42424242B0
:105760003E02070000000076191010107C000000B7
:105770000000003E413806413E0000000010103C91
:10578000101010120C0000000000006622222226D9
:105790001B00000000000077222214140800000003
:1057A00000000077222A2A1414000000000000776D
:1057B000221C1C2277000000000000772222141413
:1057C000080830000000007E440810227E0000001F
:1057D0000608080808300808080806080808080825
:1057E000080808080808080030080808080608081B
:1057F00008083000003149460000000000000000A9
:10580000001C1C1C1C1C1C1C1C1C00040000080090
:105810000000000000000200010000100000000075
:1058200000000000303132333435363738394142E8
:1058300043444546403058003031323334353637F2
:105840003839616263646566403078000240000068
:10585000000000A00000000005400000000000C89B
:10586000000000000C4000000000409C0000000010
:10587000194000000020BCBE0000000034400000C1
:10588000BFC91B8E00000004B5400000504BCFD0B4
:105890006607E2CF010000006C4100003E8251AA81
:1058A000DFEEA73401000000D9420000DCB5A0E221
:1058B0003A301F97FFFFFFFFB4450000FD25A0C849
:1058C000E9A3C14FFFFFFFFFFF3F00000000008082
:1058D00000000000FF3F000000000080000000000A
:1058E0000000000000000000034500000345000028
:1058F0000345000000000000000000000000000060
:10590000000000007B3F0000813F0000000000001D
:10591000000000006D3F00000000000000000000DB
:105920000000000000000000000000000000000077
:105930000000000061220000812200007B220000A4
:10594000000000003D2200004F2200000000000087
:105950000000000000000000000000000000000047
:1059600000000000034500000345000000000000A7
:1059700000000000D1430000DD380000FB380000CB
:10598000A523000099380000113A0000CF43000021
:105990007B23000097380000ED220000D8FFFFFFB6
:1059A000000000007944000000000000000000003A
:1059B0004925000000000000000000001326000040
:1059C0006925000003450000034500000345000071
:1059D00003450000034500000345000000000000EF
:1059E0000000000003450000034500000000000027
:1059F000000000000345000000000000000000005F
:105A0000D1430000DD380000FB38000025290000EC
:105A100099380000113A0000CF430000B93D000062
:105A200097380000E93D0000000000000000000081
:105A30001326000069250000812B0000732B000055
:105A4000B12B0000DF2B0000012B0000572B0000C2
:105A5000232B00000000000000000000992C000033
:105A60000000000000000000000000000000000036
:105A70000000000000000000000000000000000026
:105A80000345000000000000ED2D000000000000B4
:105A9000000000000000000000000000E12D0000F8
:105AA000E92D0000E52D0000912D00000000000010
:105AB000972D0000000000000000000003450000DA
:105AC0000345000003450000000000000000000046
:105AD000F52E000000000000000000003D2F000037
