:020000040000FA
:100000009072001075010000790100007B01000072
:100010007D0100007F010000810100000000000060
:10002000000000000000000000000000830100004C
:1000300085010000000000001D05000049050000CA
:100040008B010000ED070000FD0700000D08000017
:100050001D0800002D080000450800008B0100006D
:100060005D0800000D0500008B0100008B01000001
:100070008B0100008B0100008B0100008B01000050
:100080008B0100008B0100008B0100008B01000040
:100090008B0100008B010000E90400008B010000CF
:1000A000750800008B0100008B0100008B0100002F
:1000B0008B0100008B0100008B0100008B01000010
:1000C0008B0100008B0100008B01000000F002F8A2
:1000D00000F040F80AA090E8000C82448344AAF1A2
:1000E0000107DA4501D100F035F8AFF2090EBAE8A0
:1000F0000F0013F0010F18BFFB1A43F0010318475C
:1001000080300000A0300000103A24BF78C878C1C9
:10011000FAD8520724BF30C830C144BF04680C600D
:10012000704700000023002400250026103A28BF55
:1001300078C1FBD8520728BF30C148BF0B60704759
:100140001FB59DE8030000F0F1F800F0A1F81FBD15
:1001500010B510BD00F053F91146FFF7F1FF01F0A3
:10016000ADFE00F071F903B4FFF7F2FF03BC00F03D
:10017000A1F8000008480047FEE7FEE7FEE7FEE7BB
:10018000FEE7FEE7FEE7FEE7FEE7FEE70348044979
:10019000044A054B70470000CD000000900200109B
:1001A00090720010906200109062001080F3088836
:1001B000EFF30880B0E8F00F80F308887047EFF3A2
:1001C000088020E9F00F80F30888704770B5064674
:1001D00000F076F8056806F10B0020F00704B44241
:1001E0009CBF002070BD2B466A68BAB11068A0425F
:1001F00010D304F1080188423CBF5068586007D30F
:100200005168101941601168091B01605860146041
:10021000101D70BD13465268002AE7D121462846BA
:1002200000F070F80028DED170BD70B50446051FDF
:1002300000F046F80068002C14BF446870BD002C24
:1002400018BFAC423CBF20466468F8D301680A1866
:10025000AA4218BF456003D12A68054611440160CF
:1002600028684119A1421CBF6C6070BD616869605B
:1002700021680844286070BD002000F02EF8FFF7C8
:1002800067FF012000F016F87047704770470000C4
:1002900070B5064C7C44064D7D4403E02068204444
:1002A0008047241DAC42F9D170BD0000082F00002A
:1002B0000C2F000001491820ABBEFEE7260002000B
:1002C00000487047380200107047704700210160F5
:1002D000C0E9011070471020704710B500F070F8A9
:1002E000BDE8104000F005B800487047300200102B
:1002F0007047002801D0FFF7DDBF7047FFFFFFFF09
:100300007047704738B504460A4600206946AFF387
:100310000080002808BF38BD02460099204600F042
:1003200034F8012038BD012000F062B8F8B5AFF311
:100330000080054600200C46102000BF0646A81984
:10034000A0420DD9324669460020AFF30080070075
:1003500008BF00F04DF80098A04218BF0546C41928
:10036000FFF7AEFF05600746F01D20F007004619B5
:100370002846FFF7ABFFB44208BFF8BDA21B3146C9
:100380003868BDE8F840AFF30080034640688C460B
:10039000002818BF88423CBF03464068F8D318685D
:1003A0001844884207D00CF1030020F00700001D1C
:1003B000411A521A0146081D0A60FFF736BF0000B5
:1003C00010B5002102A000F045F8012010BD00008A
:1003D000534947414252543A2041626E6F726D61F7
:1003E0006C207465726D696E6174696F6E000000D7
:1003F00010B500F049F8BDE81040FFF77ABF754628
:10040000FFF772FFAE4605006946534620F007002D
:10041000854618B020B5FFF7B9FEBDE820404FF083
:1004200000064FF000074FF000084FF0000B21F0DE
:100430000701AC46ACE8C009ACE8C009ACE8C009AB
:10044000ACE8C0098D4670470446AFF300802046F3
:10045000FFF789FE70B505460C460A2000E06D1CCA
:1004600000F03AF835B128780028F8D102E0641C91
:1004700000F032F814B120780028F8D1BDE87040BF
:100480000A2000F029B8000010B5012805D000218D
:1004900003A0FFF7DFFF012010BD09A1F8E700006E
:1004A00053494752544D454D3A204F7574206F665D
:1004B0002068656170206D656D6F727900000000C5
:1004C0003A2048656170206D656D6F727920636FA9
:1004D000727275707465640008B569468DF8000025
:1004E0000320ABBE08BD000010B54FF480300549B5
:1004F0000863054800680068016903480068884788
:1005000010BD0000004003401C00001010B5024860
:10051000006800F0CBF910BD3000001010B5FFF7F7
:100520004EFE07490860002105480068054A126828
:1005300090470349086008460068FFF737FE10BD82
:10054000480000101000001010B5FFF738FE0A49EF
:1005500008600A480068401C0849086001210648F4
:100560000068074A12689047034908600846006817
:10057000FFF71CFE10BD0000440000101400001026
:100580001000001020208649086000BF84480068E1
:1005900010F0400FFAD00320824908604FF00000AD
:1005A0008149C1F8A801814908604FF001008049E4
:1005B00008608048804908604FF00100A1F1040103
:1005C00008604FF0AA007D4908604FF05500764959
:1005D000C1F88C0000BF7A48006810F0806FFAD034
:1005E0000320784908604FF0AA006F49C1F88C00D9
:1005F0004FF05500714908604FF0230072490860C0
:100600004FF00100A1F1040108604FF0AA006F490A
:1006100008604FF05500086000BF6D48006810F496
:10062000806FFAD003206B4908604FF0AA005E4942
:10063000C1F8AC004FF0550064490860664867494E
:1006400008604FF000005849C1F8C8010846D0F8CA
:100650008800C0F30160032868D15548006810F095
:10066000030006D0012823D002283FD003285CD104
:1006700000E000BF52480068C0F30E0000F1010026
:100680004FEA4000564900FB01F04749D1F8881075
:10069000C1F3074101F10101B0FBF1F141480068EC
:1006A000C0B200F10100B1FBF0F04E4908603CE03F
:1006B00043480068C0F30E0000F101004FEA40001B
:1006C000494900FB01F03849D1F88810C1F30741CE
:1006D00001F10101B0FBF1F132480068C0B200F154
:1006E0000100B1FBF0F03F4908601EE034480068AB
:1006F000C0F30E0000F101004FEA40004FF4FA4150
:1007000000FB01F02849D1F88810C1F3074101F13D
:100710000101B0FBF1F123480068C0B200F1010013
:10072000B1FBF0F02F49086000BF2FE020480068BF
:1007300010F0030006D0012810D0022819D0032899
:1007400023D100E000BF17480068C0B200F10100EB
:100750002349B1FBF0F02349086016E01148006816
:10076000C0B200F101002049B1FBF0F01D49086062
:100770000BE00C480068C0B200F101004FF4FA41F0
:10078000B1FBF0F01749086000BF00BF06480068E1
:1007900020F4704040F48040034908607047000036
:1007A000A0C10F4004C10F4000C00F40ACC10F40BA
:1007B0000CC10F406300050084C00F408CC00F4087
:1007C00088C00F4080C00F40A4C00F40ACC00F4095
:1007D000A8C00F40A0C00F40DE872804C4C00F404F
:1007E00000093D0000000010001BB70010B50248D2
:1007F000006800F05BF810BD2000001010B5024842
:10080000006800F053F810BD2400001010B5024835
:10081000006800F04BF810BD2800001010B5024829
:10082000006800F043F810BD2C00001010B504481B
:1008300000680068816A02480068884710BD0000AF
:100840003400001010B5044800680068816A02484E
:100850000068884710BD00003800001010B504483B
:1008600000680068816A02480068884710BD00007F
:100870003C00001010B50248006801F05FF910BD9F
:100880004000001000F01F020121914042094FF08A
:10089000E02303EB8202C2F800117047024B0360B1
:1008A0008180C280704700004C2E000010B50446C5
:1008B0006069006810F0010F07D0012061690860CD
:1008C000206801692046884703E060690068616923
:1008D000086010BD2DE9F04788B004460E469146E9
:1008E00022464A48206002F1080000F092FFA0F181
:1008F000080200BF1446464810602674207C052874
:1009000004D2DFE800F0040D151D250028E04FF0AB
:10091000402060613F4804600120FFF7B3FF1FE003
:100920003D4860613D4804600220FFF7ABFF17E0DF
:100930003B4860613B4804600320FFF7A3FF0FE0E2
:1009400039486061394804600420FFF79BFF07E0E5
:1009500037486061374804600920FFF793FF00BF04
:1009600000BF484601F0E6FE8046334901F02AFF09
:100970000746324901F026FF8246012507E005EBD4
:10098000850045002E49504601F0F2FD82462D4972
:10099000504601F0E3FFF2D3504601F0ABFEE060B9
:1009A000284601F0C8FC07468846E06801F0C3FC11
:1009B0000022254BCDE9000101F0D0FC3A46434628
:1009C000CDE9020101F0CAFC0022204BCDE904016F
:1009D00001F02CFBCDE9060101F080FC6060681E8F
:1009E0006169C8606169E068886103206169486184
:1009F000207C042803D109206169486002E00120BD
:100A000061694860204608B0BDE8F087C830000042
:100A1000682E00002000001000800040240000101C
:100A20000000094028000010004009402C00001080
:100A3000008001403000001020BCBE4BBD37863521
:100A40000000204100FF7F4780842E4184D77741FA
:100A50000146487918B9087908B10120704700208B
:100A6000FCE70146487918B1087908B901207047B8
:100A70000020FCE710B5044604F1080000F04AFF2E
:100A8000E179884201D0012010BD0020FCE7014639
:100A90004879704710B50446607920712068416933
:100AA00020468847607110BD2DE9F04104460F468D
:100AB00090461D46069E0E4820604246394604F187
:100AC000080000F057FFA0F10804002060712071B9
:100AD000A071E671314604F1080000F028FF2946B4
:100AE00004F1080000F03BFF2046BDE8F081000063
:100AF000842E00000149016070470000C82E0000EC
:100B00002DE9F04307460C4600216DE0DFF8EC804C
:100B100058F82180B7EB184F65D1DFF8E08038F83E
:100B20002180C8F30335DFF8D48038F82180C8F37A
:100B30000712DFF8C88018F8218008F00F0C4FEA80
:100B400002784FEAD8634FEA450808EB1216DFF83F
:100B5000B08008EB86004FF0030909FA03F9D0F8DA
:100B6000008028EA0908C0F800800CFA03F9D0F8E0
:100B7000008048EA0908C0F80080DFF8848008F1A6
:100B8000400808EB86004FF0030909FA03F9D0F892
:100B9000008028EA0908C0F8008004F0030909FA77
:100BA00003F9D0F8008048EA0908C0F80080DFF8AF
:100BB000508008F1680808EB85004FF0010909FA38
:100BC00002F9D0F8008028EA0908C0F80080C4F3D0
:100BD000001909FA02F9D0F8008048EA0908C0F8BB
:100BE0000080BDE8F083491CDFF8108058F82180B0
:100BF000B8F1000F8AD100BFF3E700005C000010DD
:100C000000C0024010B5044604F1080000F09FFE49
:100C100010BD10B5044604F1080000F073FE10BDCD
:100C20002DE9F04104460E46174600F0EBFE204643
:100C3000FFF7EFFF002506E0715D606803681A6842
:100C40009047681C85B2BD42F6DB2046FFF7DAFF0D
:100C500000F0C8FEBDE8F081024607481060486811
:100C6000064BC2E90103CB68D3600B7C13744B695C
:100C70001046536170470000343100006C310000B1
:100C80002DE9F04104460D4616461F460E482060E9
:100C900065603A46314604F1080000F06BFEA0F1B1
:100CA00008044FF00108217CE0680268536842465E
:100CB000984700BF00BF6169E06803689A68904781
:100CC00000BF2046BDE8F0813431000001490160D9
:100CD00070470000D82E000010B5002203681B7872
:100CE0008B4207DC03685B788B4203DB03681B786D
:100CF000CB1ADAB2D0E90043A47802FB0433836054
:100D000010BDF0B503460C46184601F01BF802FB77
:100D1000004085B2986800EBE500007805F0070711
:100D20008021394100EA01060EB10120F0BD00200A
:100D3000FCE7016042604368836070470246002020
:100D400000BF0B4BDB6813F0010FFAD0084B996022
:100D500000BF074BDB6813F0100FFAD102E0044B21
:100D60009B68D8B2024BDB6813F0040FF7D17047D1
:100D700000000340F0B506460C4615463046FFF726
:100D8000A5FF06461E483060002700212520FFF7FA
:100D9000B7FE00211520FFF7B3FE00211820FFF752
:100DA000AFFE1848006840F480601749C1F8C400DD
:100DB000062C04D2DFE804F00406080A0C0E00BF7B
:100DC000312709E0182707E00B2705E0052703E096
:100DD000022701E0002700BF00BFC5F30010072174
:100DE00041EA801005F0010140EAC11040EA072005
:100DF000064908600220086148603046F0BD0000E6
:100E0000E82E0000C4C00F4000C00F4000000340A7
:100E100070B504460D462046FFF76CFE04460448B4
:100E2000206065606068026811688847204670BD70
:100E3000F82E00000181428170472DE9F84F0446E9
:100E4000894692461D460A9E009620682B465246C9
:100E50004946C76B2046B84700270FE04FF000080F
:100E600008E0A18B2068426C2046904708F1010001
:100E70001FFA80F8A845F4DB781C87B2B742EDDB97
:100E8000BDE8F88F41837047C18370478183704705
:100E90002DE9F84F04468946494604F10C00FFF756
:100EA0001BFF04F10C0000F051FF217E4843401C61
:100EB00085B204F10C0000F045FF217E00FB01F635
:100EC00000956289218920683346C76B2046B84760
:100ED00000252EE0002727E000261DE02A463146A7
:100EE00004F10C00FFF70DFF82464FF000080EE002
:100EF000BAF1000F01D0E08B00E0608B0146206862
:100F0000426C2046904708F1010000F0FF08207E67
:100F10004045EDDC701CC6B204F10C0000F012FF7D
:100F2000B042DBDC781CC7B2207EB842D4DC681C3F
:100F3000C5B204F10C0000F009FFA842CADC04F1BC
:100F40000C0000F0FFFE2189227E02FB00102081B0
:100F5000BDE8F88F3FB50446079D14220A212046BC
:100F6000FFF79CFC04460B48206001A807C8C4E9B1
:100F70000412E06025761F2060834CF21860A08385
:100F80004FF6FF70E083002020816081204604B08E
:100F900030BD00000C2F00001CB5044604F1080011
:100FA00001F014F8D0B920688168204688470128EC
:100FB00002D0022810D107E00120019001A904F11C
:100FC000080001F013F808E002200090694604F1DF
:100FD000080001F00BF800E000BF00BF04F10800BA
:100FE00000F0F4FFD0B92068416820468847032804
:100FF00002D0042810D107E00320019001A904F1D8
:10100000080000F0F3FF08E004200090694604F1B6
:10101000080000F0EBFF00E000BF00BF1CBD10B5F2
:101020000446206988B1206902689169884720696F
:101030000268916A884708B1032010BD20690268E0
:10104000516A884708B10420F7E70020F5E700005F
:101050002DE9F04105460F4616460021284600F0CE
:10106000B9FB05460F48286005F108044FF0140845
:10107000002020716071A07184F80780E079002859
:1010800003DDE07900F066FE206000BFA4F10805F2
:101090002F6126B13068294642683046904728467D
:1010A000BDE8F0815C2F000070B504460D46606815
:1010B0000168CA692946904770BD70B504460D465F
:1010C000606801684A6A2946904770BD2DE9F84377
:1010D00004460D4616461F46DDE90889606801682A
:1010E0000A6A49469047CDF80080606801683B462F
:1010F0003246D1F830C02946E047BDE8F88310B544
:101100000446606802681168884710BD2DE9F04107
:1011100004460F4690461D466068016842468B6A49
:1011200039469847002606E0A95D606803689A681A
:101130009047701CC6B2A85D0028F5D1BDE8F081CB
:1011400070B504460D462046FFF7D4FC044604481B
:10115000206065602046FFF7D2FF204670BD00008A
:10116000702F000010B50446322000F02DFC002244
:101170000721204600F058F94FF4807201212046E3
:1011800000F052F94FF4C0620221204600F04CF901
:1011900000220421204600F047F940F207220821EE
:1011A000204600F041F900220921204600F03CF9D8
:1011B00000220A21204600F037F900220C212046A7
:1011C00000F032F900220D21204600F02DF9002216
:1011D0000F21204600F028F900221021204600F0BF
:1011E00023F900221121204600F01EF900221221CD
:1011F000204600F019F900221321204600F014F9CE
:10120000C82000F0E1FB41F2B0221021204600F09E
:101210000BF907221121204600F006F9322000F0D8
:10122000D3FB40F285121221204600F0FDF8322057
:1012300000F0CAFB4FF4A0521321204600F0F4F84E
:101240000E222921204600F0EFF800222A21204614
:1012500000F0EAF8322000F0B7FB4FF41C52602196
:10126000204600F0E1F801226121204600F0DCF880
:1012700000226A21204600F0D7F800228021204673
:1012800000F0D2F800228121204600F0CDF80022A3
:101290008221204600F0C8F800228321204600F079
:1012A000C3F800228421204600F0BEF800228521E8
:1012B000204600F0B9F810229021204600F0B4F842
:1012C00000229221204600F0AFF80322932120460D
:1012D00000F0AAF84FF488729521204600F0A4F897
:1012E00000229721204600F09FF8002298212046F6
:1012F00000F09AF841F238020321204600F094F8F9
:10130000002084F83800204600F09BF84FF48972E2
:101310000721204600F088F810BDF8B50446F020FB
:10132000009020684FF4A07300221146C56B204640
:10133000A84700250CE0002606E0618B2068426C7F
:1013400020469047701C86B2F02EF6DB681C85B2F2
:10135000B5F5A07FEFDBF8BD2DE9F04105460C4661
:1013600016461F46DDF8188032465021284600F008
:101370005BF806EB0800401E82B25121284600F0BF
:1013800053F822465221284600F04EF8E019401E3C
:1013900082B25321284600F047F8324620212846E1
:1013A00000F042F822462121284600F03DF8222193
:1013B000284600F00DF8002085F83800BDE8F081DF
:1013C00070B504460D462946204600F017F870BD5A
:1013D00038B505460C4608A00068009020128DF82C
:1013E0000100E0B28DF802000322694605F12000F9
:1013F000FFF716FC38BD00007000000038B5054648
:101400000C4608A00068009020128DF80100E0B2A0
:101410008DF802000322694605F12000FFF700FC69
:1014200038BD00007200000070B505460E46144637
:1014300031462846FFF7CCFF21462846FFF7DEFF5E
:1014400070BD10B5044694F83800B8B90022502198
:101450002046FFF7E9FFEF2251212046FFF7E4FF86
:10146000002252212046FFF7DFFF40F23F125321B6
:101470002046FFF7D9FF012084F8380010BD000096
:101480000FB4F8B505460E4614460C9F0097284643
:1014900009A90EC9FFF75EFD05460E4828603146D2
:1014A00005F12000FFF7D8FBA0F1200520680121FD
:1014B0000268204690472068C16820468847284631
:1014C000FFF750FE20684168204688472846F8BC50
:1014D0005DF814FBB42F000010B50446E08A10B18B
:1014E000E08A401EE082A069A8B1A0690268916903
:1014F0008847A0690268916A884740B9E08A50B974
:10150000A08A40B1A0690268D169884718B1A08A51
:10151000E082012010BDE069A8B1E069026891692C
:101520008847E0690268916A884740B9E08A50B903
:10153000A08A40B1E0690268D169884718B1A08AE1
:10154000E0820220E6E70020E4E700002DE9F04712
:1015500004460E4617469846DDE908592A46414694
:101560002046FFF775FD04460E482060A661E7613E
:1015700085B1286801682846884758B128680168FD
:10158000284688474FF47A7109FB01F1B1FBF0F06E
:10159000A08201E00020A082A08AE0822046BDE86F
:1015A000F0870000043000002DE9FF410AADE0CDD6
:1015B0001248007810F0010F08D1104800F0D0FB5D
:1015C00020B10F4800BF0D48AFF300800C480468FD
:1015D00020682946426920469047206831460269C2
:1015E00020469047019882B2009881B220683B461D
:1015F000D0F818C02046E047BDE8FF81E0000010A9
:10160000E400001010B5029C016042608360C46079
:1016100010BD0FB410B5044600BF059903980844E7
:101620006169884211DB069904980844A1698842DF
:101630000BDBE169606908440399884205DD216A92
:10164000A06908440499884203DC002010BC5DF8BE
:1016500014FB0120FAE70FB4F8B5044600BF09985F
:10166000002804DD0A98002801DD012000E00020A8
:1016700028B30A9800902068C568204607A90EC9BB
:10168000A847E0B10A98009020688668204607A91C
:101690000EC9B04704F10C0000F0ACF805460BE0B1
:1016A0000A98009028684668284607A90EC9B047DE
:1016B000284600F08CF80546002DF1D100BFF8BC9B
:1016C0005DF814FB0FB4F0B58BB00446DDE91301EF
:1016D0000144D4E907201044814204DA11A80FC85C
:1016E00007AD0FC504E004F114000FC807AD0FC526
:1016F00007A80FC803AD0FC5268A1148007810F05F
:10170000010F08D10E4800F02BFB20B10D4800BF9F
:101710000B48AFF300800B480568069880B2CDE90E
:101720000006059883B2049882B2039881B22868B3
:10173000476A2846B84700BF0BB0F0BC5DF814FB01
:10174000E0000010E400001070B504460D46AC60E7
:10175000294604F10C0000F023F870BD0FB470B5F9
:101760000446099E25460021284600F033F8054628
:1017700009482C460948286004F10C0000F049F89B
:10178000A0F10C04268205A80FC804F114050FC5AA
:10179000204670BC5DF814FBFC30000018300000DF
:1017A00003460A46196808E0914201D100207047BB
:1017B000486808B1496800E001E00029F4D100BFA1
:1017C00009B14A6000E01A600120F0E77047014665
:1017D0004868704730B504460D4605482060002033
:1017E00060601DB121462846FFF7DAFF204630BD74
:1017F0006031000001460868704770B505462C68E6
:1018000004E020680168204688476468002CF8D10D
:1018100070BD00210160704710B504462068416921
:1018200020468847217C09B1012200E0002204F112
:10183000080151F82210A27E21F81200E07E401C1F
:10184000E076E07E617E884209DAE17E6069405C94
:10185000A076A17E206882692046904707E000209C
:10186000E076E17E6069405CA0760020207710BDC4
:1018700010B50446607EA0B1207F90B90020E076CC
:10188000E17E6069405CA076207C08B9012000E020
:101890000020207401202077A17E206882692046E4
:1018A000904710BD70B504460D46164600212046EF
:1018B000FFF790FF04460F48206026B130682146AC
:1018C0004268304690470020A076E0766076257624
:1018D000680000F03FFAA060680000F03BFAE060AA
:1018E000284600F037FA60610020207420772046F7
:1018F00070BD000030300000014A02600171704785
:101900005830000010B50446E168606803681A6941
:10191000904710BD10B50446606802685169884759
:10192000E168084201D0012010BD0020FCE770B53D
:1019300004460D462DB1E168606803689A689047D7
:1019400004E0E168606803681A69904770BD10B5EB
:101950000446E168606803689A68904710BD70B5F6
:1019600004460D46217A6068026853682A46984703
:1019700070BD000010B5044B036041600272047A30
:101980000123A340C36010BD6C3100000149016018
:10199000704700006C3000002DE9F04104462046FD
:1019A00000F0C9FC05460022064B00F0D7FC0746B4
:1019B00000F094FC84B201E0601E84B2002CFBDCD9
:1019C000BDE8F0810080304010B5044605E04FF4DA
:1019D0007A70FFF7E1FF601E84B2002CF7DC10BDC7
:1019E0007047000006480078002804DD04480078AD
:1019F000401E034908700248007800B962B670477B
:101A00000C00001072B603480078401C01490870B1
:101A1000704700000C00001000B503460A46FEF7B0
:101A2000B1FDFFF7DDFF0AB1FFF7ECFF184600BD7F
:101A300001238B40026A1A4342F08072014B1A6004
:101A4000704700000040034001460248406880B2F1
:101A5000704700000040034070B504460D462A461A
:101A600008212046FFF71EFF04460F4820600F485C
:101A700004600F48006840F480500E49C1F8C4006B
:101A80000D48006840F400100B4908604FF4807066
:101A9000C8600A482062206A08604FF01600FEF70E
:101AA000F1FE204670BD00008C3000001C000010CC
:101AB000C4C00F4000C00F400040034000012000A0
:101AC00010B5044601212046FFF716FF04460D48D5
:101AD000206002210820FFF713F80B48006820F46B
:101AE00040000A49C1F8A801074800680649086093
:101AF0004FF01900064908814FF006004860204663
:101B000010BD0000B4300000A8C10F4000C00F405D
:101B100000C0084010B5044604F10800FFF76DFE50
:101B200010BD01464868704730B504460D46294649
:101B300004F10800FFF734FE30BD00002DE9F04746
:101B400007462F48D0F8008018F0080F14D008205E
:101B50002C4908602C49384600F064F82B49384677
:101B600000F074F8044614F0100F03D03868816850
:101B700038468847BDE8F08718F4007F0CD0244928
:101B8000384600F04FF82349384600F05FF8044625
:101B90004FF400701B49086018F0040F2ED01E4847
:101BA000D0F800904FF001054FF000061DE019EA53
:101BB000050F17D029EA05091848056000BF10482D
:101BC000006810F0200FFAD0154804684FEA66004C
:101BD00006F0010240EAC2113868C4F380020368CB
:101BE00038469847701CC6B26D00202E02DAB9F153
:101BF000000FDCD104200349086000BF00BFB9E733
:101C000000C2005008C200500005FE000002FE00A5
:101C10000005FB000002FB0030C2005038C200503B
:101C200014C200501022064B1A60064AC2F8101265
:101C300000BF054A126812F0100FFAD0704700007A
:101C400008C2005000C0005000C2005002463020C0
:101C5000064B18600648C0F8101200BF054800681F
:101C600010F0200FFAD004480068704708C20050F6
:101C700000C0005000C2005014C200500FB43EB566
:101C800004460A980090204607A90EC9FFF71AFDDE
:101C9000218A228D606ACDE90021029004F11400AE
:101CA0000FC8FFF781FC3EBC5DF814FB704710B510
:101CB00012F0010F07D043681B6801248C402343B6
:101CC0004468236006E043681B6801248C40A343FA
:101CD0004468236010BD4268D1617047014648687E
:101CE00040697047426891617047000070B50446D2
:101CF0000D462046FFF74AFE044610482060052D99
:101D000004D2DFE805F004070B0F130000BF0C48F6
:101D100060600FE00A48203060600BE00848403007
:101D2000606007E006486030606003E0044880308F
:101D3000606000BF00BF204670BD0000143100008D
:101D400000C0092001460868C0787047014608684D
:101D50000079704710B504462046FEF737FA10BDEB
:101D6000016809B1002070470121016008467047F1
:101D7000FEF782FA014800BF704700002002001001
:101D800030B587B000213A48FFF746FE4FF47A722B
:101D900000213848FEF79EFD642204213648FEF7F4
:101DA00099FD00213548FFF7A1FF01213448FFF7D5
:101DB0009DFF04213348FFF799FF3348FFF780FE6A
:101DC0002C493248FFF748FE112205213048FEF722
:101DD000D1FF0623294A2E492E48FEF751FF1C2227
:101DE00028492D48FFF7C6FD04AD2C4C621D214645
:101DF0002846FEF79EFF00BF02200290DDE90501A4
:101E0000CDE90001244A23492548049BFFF738FB0C
:101E100023492448FEF7FCFF01200023182218491B
:101E200000902148FEF740FE012000231A221449A9
:101E300000901E48FEF738FE0120002314221049AE
:101E400000901B48FEF730FEC8200A49184B164A7E
:101E5000CDE9001015491748FFF778FB0020012352
:101E60001F22074900901448FEF71EFE07B030BD40
:101E7000B0000010E800001000010010B4000010D5
:101E8000BC000010C4000010CC00001018010010AD
:101E9000D40000103C01001054010010BE290000C5
:101EA00064010010D8000010A0010010B80100105B
:101EB000D0010010E801001008020010AAB03C494F
:101EC00024A8FFF73DF924AC4FF4A075F02639485B
:101ED000007810F0010F08D13648FFF741FF20B11C
:101EE000354800BF3348AFF30080334804602B46C9
:101EF0000022114603A80096FFF784FB2F4990E8C3
:101F00008C00C06881E88C00C86000BF40F2FF70A0
:101F100001900846C068009008460EC81BA8FFF74D
:101F20001DFC0A20034602460146009026A8FFF742
:101F300069FB044600200190E068009012A894E834
:101F40000E00FFF70BFC12A91BA8FFF7FDFB07AC67
:101F50001E20642314220146009026A8FFF752FB9E
:101F600007460068391D0EC9002515A6CDE90523D1
:101F7000CDE90301019506980090204603A90EC9FA
:101F8000FFF7ECFB0446104820604FF6FF702085F9
:101F9000666200BF07A91BA8FFF7D6FB0748C06809
:101FA000009006480EC81BA8FFF755FB00BFFEE7D0
:101FB00064010010E0000010E40000102002001096
:101FC0007465737400000000E430000000B5024640
:101FD000FFF718FD9079D179884201DB012000E0FC
:101FE00000200346FFF7FEFC184600BD30B5024650
:101FF0000B460024FFF706FD9079D179884211DA6B
:1020000018781579116848551179D079401E8142A8
:1020100002DA1079401C00E0002010719079401C19
:1020200090710124FFF7DEFC204630BD2DE9C04150
:1020300030B4DFF8A0C23CEA111418BF3CEA131414
:1020400000F0EC8081EA03051CEA111444EAD5741F
:1020500018BF1CEA131500F0C780A4EB05044FF06D
:10206000004545EAC12145EAC32341EA505143EA0C
:10207000525304F17F74994204F500344FEAC020B2
:102080004FEAC22208BF904200F09C804FEA1365DD
:102090000FF24016765D4FEA134506FB05F7C7F1D0
:1020A000807706FB07F74FEAD737A7FB036876422E
:1020B000C8F58038A7FB06CE38BFA8F1010807FB9A
:1020C00008E64FF0000EA6FB028CE6FB03CEDCF127
:1020D000000CCEF1004E38BFAEF1010EA6FB0C583D
:1020E0004FF000074FF00005E6FB0E87A1FB08C686
:1020F000A0FB07CE16EB0E0645F10005E1FB0765D8
:1021000015F1E04E7EBFA4F580345FEA46066D41CE
:1021100016F1800745F100054FEA17274FEA0666DA
:1021200047EA0567A6F1DE46B6F1805F4FEA15255E
:102130001FD9384624F0010C05EBC471BCF1FE6FC9
:1021400001EB0C1102D8F0BCBDE8008124425CBF59
:1021500001F5801E9EEAC47F02D4F0BCBDE8008178
:10216000244238D4F0BCA1F1C041BDE8004100F0E8
:10217000EDB94FEAD22242EA43524FEAD323A7FBFA
:1021800002864FEAD02040EA415007FB03661EEA70
:102190000E0F4FEAD12105FB026658BFA6EB005691
:1021A000B6EB00564FEA520E4EEAC37E18EB0E0E07
:1021B00056EB530EBDD518EB02085E417F1C55F15E
:1021C0000005B6E74FF480154FF000074FF000060A
:1021D0004FF00008ADE7F0BC4FF0000001F1C04146
:1021E00001F00041BDE8008111EA0C1F0CEA131553
:1021F00000D00CE013EA0C1F00F025804FF0000027
:10220000F0BC81EA030101F00041BDE80081F0BCAF
:10221000BDE8004181EA030100F098B9F0BCBDE8D7
:10222000004170B500F044F9097EFC3E00F007B8AB
:1022300081EA03014FF0000001F00041704781EA9C
:10224000030100F083B9F0BCBDE800414FF000008D
:1022500021497047FFFDFBF9F7F5F4F2F0EEEDEBE5
:10226000E9E8E6E4E3E1E0DEDDDBDAD8D7D5D4D394
:10227000D1D0CFCDCCCBCAC8C7C6C5C4C2C1C0BFE0
:10228000BEBDBCBBBAB9B8B7B6B5B4B3B2B1B0AFE6
:10229000AEADACABAAA9A8A8A7A6A5A4A3A3A2A1CA
:1022A000A09F9F9E9D9C9C9B9A9999989797969585
:1022B00095949393929191908F8F8E8E8D8C8C8B21
:1022C0008B8A8989888887878685858484838382A9
:1022D000828181800000FF070000F87F4FEA1153E0
:1022E000A3F58063D3F11E03A8BFD3F1200C08DB54
:1022F0004FF0004242EAC12252EA505232FA03F051
:10230000704709420BD4102BC4BF0020704703F55F
:10231000787CBCF1FF3F05D04FF0FF3070474FF0A5
:102320000000704770B500F0C3F800BF49922480E8
:1023300000207047F0E7B0FA80F310FA03F10AD0FA
:10234000C3F11D0303F580634FEA41504FEA035286
:1023500002EBD12170474FF000007047DFF848C111
:1023600070B51CEA111E1EBF1CEA13159EEA0C0F65
:1023700095EA0C0F00F06F8081EA030423EA4C1306
:102380004EEAD47E21EA4C1141F4801143F48013CB
:10239000AE44A1FB024CA0FB0365AEF17F7E361973
:1023A00055EB0C05A1FB034C4CF10003A0FB021CF8
:1023B00016EB0C06654153F10003094218BF46F0C5
:1023C000010613F4007F0BD14FEA03314FEA0530C9
:1023D000340341EA155140EA16506FF003020AE057
:1023E0004FEAC3214FEAC520F40241EA555140EAC1
:1023F00056506FF0020202EB2E4201EB025585EAC5
:10240000CE710AD05FEA440C18BF24F0004450F1AA
:10241000000041F1000120EAD47040F2FE7C6245E8
:1024200000D270BDA84214BF4FF080444FF040442A
:10243000002E08BF0024BEF1806FA8BFA1F1C041EB
:10244000BDE8704080F282804FF0000001F1C04191
:1024500001F0004170479EEA0C0F0CEA131518BFFB
:1024600095EA0C0F06D04FF0000081EA030E0EF043
:10247000004170BD00F01CF88900013E00F007B873
:1024800000F009B84FEA430C5FEA5C5C08D081EACF
:10249000030100F05BB84FEA410C5FEA5C5CF6D1E7
:1024A0004FF00000014970470000FF070000F87F6F
:1024B0000EF1020E2EF0030E5EF8046B364205D4C8
:1024C000012A43EB030515F5001F12D8012841EB43
:1024D000010C1CF5001F0CD80ED14FEAD17C15F56C
:1024E000001F0CEB4C0C0CF1020C08BF4CEBD37C26
:1024F00004E04FF0080C01E04FEAD37C0CEB4C05F4
:1025000026FA05F606F00706B6F1040C06D20EEB25
:10251000860CBDE870404CF0010C6047DFE80CF021
:10252000090B02024FF000414FF00000A1F500211D
:1025300070BD19461046012851EB010418BFD4F5AF
:10254000001484BF002001F0004170BD0808A0F510
:1025500000114FEA31017047401058BFC0F14040B0
:10256000491058BFC1F140418142EFF300807047EC
:102570004FF47F0C1CEAD0121EBF1CEAD11392EA62
:102580000C0F93EA0C0F00F0858090EA010F48BF12
:1025900042F4807240F4000C41F400002CF07F41C2
:1025A00020F07F4000B58142A2EB03020FF2081C2D
:1025B000ACEB504EC0F100009EF800E04FEA4E0E2A
:1025C00000FB0EFC38BF49004FEA2C1C02F5FA0252
:1025D0000CFB0EF34FEACE1E4FEA112C4FEAC1213D
:1025E0000EEB635E42EB22420EFB0CFC4FEA1C53E7
:1025F00000FB03114FEA112C4FEA01310EFB0CFCDA
:102600004FEADC4C00FB0C11C14228BF09184CEB0F
:1026100003335DF804EB10EB410143EBC250B2F51C
:102620007C0F38BF704729D512F0F00F1CBF00F1A6
:10263000C04000F000407047008182838485868717
:1026400088898B8C8D8E8F919293959697999A9C71
:102650009D9FA0A2A3A5A7A8AAACAEB0B2B3B5B7E0
:10266000B9BCBEC0C2C5C7C9CCCED1D4D7D9DCDFB6
:10267000E2E6E9ECF0F3F7FAFE0000004FEA400C66
:102680000CF1807CBCF17E4F28BF7047B0F1C04098
:1026900000F05FB990EA010F0CEAD11348BF42F491
:1026A0008072624538BF634507D213F47F0F16D09E
:1026B00080EA010000F00040704710B500F003F917
:1026C000097EFC3E00F005B880EA010000F0004001
:1026D000704780EA010000F0004000F03AB912F4BF
:1026E0007F0F04BF0248704780EA010000F031B953
:1026F0000000C07FC10DD1F19E0206DB4FEA00232E
:1027000043F0004323FA02F07047004207D54FEA36
:102710004001B1F1FE4F02D24FF00000704710B5FA
:1027200000F0D1F849922480002070476FEA200021
:1027300070470000B0FA80F310FA03F2C3F19D0372
:102740000AD0D90501EB1220530638BF704700F1BB
:10275000010008BF20F001007047000050EA010CA2
:1027600000F113801CF5000F58BFBCF5000F01D419
:102770008842704707D710F5000F58BF11F5000FBA
:1027800015D488427047894270471CF5000F04D564
:10279000BCF5000FF7D5814270474FF0807C1CEBF1
:1027A000400F38BF1CEB410F01D28142704710B57A
:1027B00000F089F8922449004FF000504FF080510A
:1027C000FFF7CABE4FF47F0C1CEAD0121EBF1CEAF2
:1027D000D11392EA0C0F93EA0C0F00F0478090EAB5
:1027E000010F48BF42F480724FF0004C4CEA0020C9
:1027F0004CEA012102EB0302A0FB0113A2F5000247
:10280000002918BF43F001035B0028BF4FEA3303E0
:1028100042EB22425FEA132C4CEBC2502EBFBCEBC2
:10282000436FB2F57C0F70474FEA036CBCF1004F69
:1028300008BF20F00100B2F57C0F38BF70470BD500
:1028400082F0FF0212F5803FC8BF704700F1C04020
:10285000D8BF00F00040704700F5000C5FEA4C0C58
:1028600048BF7047B0F1C04000F073B890EA010F64
:102870000CEAD11348BF42F48072624538BF634509
:1028800004D280EA010000F00040704710B500F06B
:102890001AF800BF8900013E00F007B800F009B83F
:1028A0005FEA410C5FEA1C6C08D080EA010000F08E
:1028B00050B85FEA400C5FEA1C6CF6D14FF0004064
:1028C000A0F5800070470EF1020E2EF0030E5EF8A8
:1028D000044B244204D44FEA4102B2F17F4F11D895
:1028E0004FEA4003B3F17F4F0CD80ED14FEAD07CB2
:1028F000B2F17F4F0CEB4C0C0CF1020C08BF4CEB0F
:10290000D17C04E04FF0080C01E04FEAD17C0CEBE5
:102910004C0324FA03F404F00704B4F1040C06D2C7
:102920000EEB840CBDE810404CF0010C6047DFE872
:102930000CF0070802024FF00040A0F5800010BD27
:102940000846420018BFD2F1807288BF00F00040F4
:1029500010BDFF2141EAD050C005704751EA000C7C
:1029600000F113801CF5000F58BFBCF5000F01D417
:102970008142704707D711F5000F58BF10F5000FBF
:1029800015D481427047894270471CF5000F04D569
:10299000BCF5000FF7D5884270474FF0807C1CEBE8
:1029A000410F38BF1CEB400F01D28842704780EACC
:1029B000010081EA000180EA0100FFF7F8BE207FF4
:1029C0000C080C00000000000000000000000000E7
:1029D000080808080808080008000000141414007B
:1029E00000000000000000000A0A3F1414147E28B2
:1029F00028000000081C22201C02221C08000000E5
:102A00002051220408102245020000001820201046
:102A100030494A443B00000008080800000000005C
:102A2000000000000408081010101010080804002E
:102A30001008080404040404080810000000361CF0
:102A40007F1C36000000000000000808087F08080E
:102A50000800000000000000000000000810000056
:102A600000000000007F00000000000000000000E7
:102A700000000000080000000001020408102040CF
:102A8000000000001C222222222222221C00000020
:102A900008380808080808083E0000001C22020246
:102AA000040810203E0000001C2202020C02022238
:102AB0001C000000040C0C1414243E040E00000042
:102AC0003E2020203C0202221C0000000C1020208E
:102AD0003C2222221C0000003E22020404080810AE
:102AE000100000001C2222221C2222221C000000B6
:102AF0001C2222221E02020418000000000000080E
:102B000000000000080000000000000800000000B5
:102B10000810000000000408102010080400000045
:102B20000000003E003E0000000000000000100811
:102B300004020408100000001C220202040808001D
:102B4000080000001E214D5555554E201C00000068
:102B50001808081414223E22770000007E2121214B
:102B60003E2121217E0000001E21404040404021A6
:102B70001E0000007C222121212121227C00000056
:102B80007F2120243C2420217F0000007F2120245D
:102B90003C242020780000001E2140404047412175
:102BA0001E000000772222223E222222770000000F
:102BB0003E080808080808083E0000001E04040437
:102BC00004044444380000007322242428382422BA
:102BD000730000007C101010101010117F00000016
:102BE000632236362A2A22227700000067223232F8
:102BF0002A262622720000001C2241414141412226
:102C00001C0000007E2121213E20202078000000B1
:102C10001C224141414141221C1B00007E212121F7
:102C20003E242422730000003E4140403E01014109
:102C30003E0000007F490808080808081C00000042
:102C400077222222222222221C0000007722222226
:102C50001414140808000000772222222A2A2A14B9
:102C600014000000772214140814142277000000C6
:102C700077222214140808081C0000007F42040474
:102C8000081010217F0000001C10101010101010F0
:102C900010101C0000402010080402010000000079
:102CA0001C0404040404040404041C08142200008A
:102CB0000000000000000000000000000000000014
:102CC0000000FF00100800000000000000000000ED
:102CD0000000003C023E42423D0000006020203ED9
:102CE000212121217E0000000000003E41404041A2
:102CF0003E0000000602023E424242423F00000007
:102D00000000003E417F40413E0000000C10103C9E
:102D1000101010103C0000000000003F4242423EF4
:102D200002023C006020202C322222227700000088
:102D300008000038080808083E0000000400003CB5
:102D400004040404040438006020202624283824C5
:102D50006300000018080808080808083E00000082
:102D6000000000742A2A2A2A6B0000000000006C70
:102D700032222222770000000000003E4141414102
:102D80003E0000000000007E212121213E20700035
:102D90000000003F424242423E020700000000762F
:102DA000191010107C0000000000003E4138064160
:102DB0003E0000000010103C101010120C0000002B
:102DC00000000066222222261B000000000000777F
:102DD000222214140800000000000077222A2A147E
:102DE0001400000000000077221C1C227700000065
:102DF0000000007722221414080830000000007E32
:102E0000440810227E000000060808080830080860
:102E1000080806080808080808080808080808003C
:102E2000300808080806080808083000003149463C
:102E30000000000000000000001C1C1C1C1C1C1CCE
:102E40001C1C00000000000000000000711D0000BC
:102E5000711D0000711D0000000000000000000056
:102E60000000000000000000231B0000291B0000E0
:102E70000000000000000000151B00000000000022
:102E80000000000000000000000000000000000042
:102E90000000000000000000750A0000950A000014
:102EA0008F0A000000000000510A0000630A0000C1
:102EB0000000000000000000000000000000000012
:102EC0000000000000000000711D0000711D0000E6
:102ED0000000000000000000711D0000711D0000D6
:102EE00000000000000000003D0D00000000000098
:102EF00000000000000000000000000000000000D2
:102F0000000000000000000000000000711D000033
:102F100000000000910E0000000000000000000012
:102F20000000000000000000850E00008D0E000073
:102F3000890E0000350E0000000000003B0E00006E
:102F40000000000000000000711D0000711D000065
:102F5000711D00000000000000000000990F00003B
:102F60001F100000711D00000000000000000000A4
:102F7000FF10000000000000000000000000000042
:102F8000A9100000BB1000000D110000000000009F
:102F900000000000CD100000000000000000000054
:102FA0000000000000000000000000000000000021
:102FB000000000001B13000000000000910E000044
:102FC0000000000000000000000000000000000001
:102FD000850E00008D0E0000890E0000350E0000E9
:102FE000000000003B0E0000000000000000000098
:102FF0005913000000000000C11300000000000091
:1030000000000000990F00001F100000D9140000FC
:103010000000000000000000AD1C0000571600007A
:10302000C51600001316000000000000000000009C
:103030007118000000000000000000000000000007
:1030400019180000711D0000711D0000711D0000A5
:103050000000000000000000711D0000711D000054
:10306000000000000000000000000000711D0000D2
:10307000711D0000711D0000711D0000711D000018
:10308000711D000000000000000000007118000029
:1030900000000000000000000000000019180000FF
:1030A000491A0000311A0000000000000000000072
:1030B0000000000000000000000000000000000010
:1030C0000000000000000000231B0000291B00007E
:1030D000711D0000711D0000151B000000000000A4
:1030E00000000000AD1C0000571600007D1C000011
:1030F000131600000000000000000000AD1C0000DE
:10310000711D000000000000711D000000000000A3
:103110000000000000000000AF1C0000E51C0000E3
:1031200000000000D71C0000DD1C000000000000B3
:10313000000000000000000000000000000000008F
:10314000000000000000000000000000210C000052
:10315000000000000000000000000000000000006F
:10316000CD17000000000000000000005F19000003
:103170004F1900002F190000051900001519000053
:10318000A831000000000010E80000000801000065
:1031900090320000E8000010A87100002401000037
:1031A000E1EBFFFFD1EBFFFF00093D000000000055
:1031B000000000000000000000000000000000000F
:1031C00000000000000000000000000000000000FF
:1031D00000000000000000000000000000000000EF
:1031E00000000000000000000000000000000000DF
:1031F000000000000000000000000000CC000010F3
:10320000180100107101000081010100910102000C
:10321000A1010300E3110400F311050032000600D0
:1032200022000700A201080072002500820015009C
:10323000920018000120190011201A0021201B0003
:1032400031201C0041201D0051201E0002202E00B4
:10325000122020000000000000000000000000001C
:10326000000000000000000000000000000000005E
:10327000000000000000000000000000000000004E
:10328000000000000000000000000000000000003E
:040000050000017581
:00000001FF
