:020000040000FA
:1000000038730010210200002502000027020000C2
:10001000290200002B0200002D0200000000000059
:100020000000000000000000000000002F0200009F
:100030003102000000000000991C0000C51C0000F7
:1000400037020000691F0000791F0000891F0000AF
:10005000991F0000A91F0000C11F00003702000007
:10006000D91F0000891C0000370200003702000081
:10007000370200003702000037020000370200009C
:10008000370200003702000037020000370200008C
:100090003702000037020000651C00003702000034
:1000A000F11F000037020000370200003702000095
:1000B000370200003702000037020000370200005C
:1000C00037020000370200003702000000F002F89B
:1000D00000F096F80AA090E8000C82448344AAF14C
:1000E0000107DA4501D100F08BF8AFF2090EBAE84A
:1000F0000F0013F0010F18BFFB1A43F0010318475C
:100100007C7500009C750000103A24BF78C878C147
:10011000FAD8520724BF30C830C144BF04680C600D
:10012000704700000023002400250026103A28BF55
:1001300078C1FBD8520728BF30C148BF0B60704759
:100140006E2900F0DE83702900F05487662906F0DE
:10015000DE83652906F0DB83672906F0D8836129F1
:10016000AFF3008003681B0A28BF41F080016929B2
:1001700000F07281642900F06F81752900F06C81B4
:100180006F2900F0DF86782900F02087E92900F048
:100190007786E42900F07486F52900F07186EF294E
:1001A00000F0DC86F82900F01F870368DB0928BF10
:1001B00041F08001632900F0F885732900F0FD8586
:1001C000E32901F01580F32901F01A80002070471F
:1001D0001FB59DE8030000F0E5FA00F057FF0400AA
:1001E0000020002105F020FB401C60600020002161
:1001F00005F004FBE06000F0A1FA1FBD10B510BDD2
:1002000001F0B9F81146FFF7E3FF05F0D1F801F06E
:10021000DFF803B4FFF7F2FF03BC00F0A1FA00001F
:1002200008480047FEE7FEE7FEE7FEE7FEE7FEE7D9
:10023000FEE7FEE7FEE7FEE703480449044A054BF4
:1002400070470000CD000000380300103873001024
:10025000386300103863001080F30888EFF30880DB
:10026000B0E8F00F80F308887047EFF3088020E9CA
:10027000F00F80F30888704770B5064600F076FAF4
:10028000056806F10B0020F00704B4429CBF002073
:1002900070BD2B466A68BAB11068A04210D304F151
:1002A000080188423CBF5068586007D35168101954
:1002B00041601168091B016058601460101D70BD19
:1002C00013465268002AE7D12146284600F056FA24
:1002D0000028DED170BD00001CB50C46064B7B44E7
:1002E00069460090204600F036FD0446002069462D
:1002F00000F044FD20461CBD9B0A0000FFFFFFFFED
:1003000070B50446051F00F031FA0068002C14BFD8
:10031000446870BD002C18BFAC423CBF20466468E6
:10032000F8D301680A18AA4218BF456003D12A68A9
:1003300005461144016028684119A1421CBF6C6048
:1003400070BD6168696021680844286070BD000064
:100350000FB41CB5084B06AA7B446946009005986B
:1003600000F0F9FC04460020694600F007FD204635
:100370001CBC5DF814FB0000210A00000FB47CB522
:100380000C0009AA009001D02044401E084B7B4479
:1003900069460190089800F0DEFC05461CB100207B
:1003A000694600F0EBFC28467CBC5DF814FB0000BD
:1003B000F509000070B5044685690068C10601D5DD
:1003C000302600E02026C00708D070BDD4E9012106
:1003D00030469047206A00F1010020626D1EF5D57D
:1003E00070BD70B5044685690078C00708D170BD3E
:1003F000D4E9012120209047206A00F10100206209
:100400006D1EF5D570BD70B50C460546012A05D0A8
:100410002878800600D5EA69002302E0012305E080
:100420005B1C934202D2E05C0028F9D1A869E6186F
:10043000C01AA861286A184428622846FFF7BAFF44
:1004400004E0D5E9012114F8010B9047B442F8D338
:100450002846FFF7C6FF70BD2DE9F041064600248F
:1004600010687529314616A511D000F0DCF9002876
:1004700003DAC0F1000013A507E031688A0701D54F
:1004800011A502E0490704D510A5012401E000F000
:10049000D3F900210A2306F1240707E0B0FBF3F2A9
:1004A00003FB1200303078541046491C0028F5D167
:1004B00023462A463046BDE8F04100F0C6B90000A8
:1004C000000000002D0000002B00000020000000B4
:1004D0002DE9F05F894604464FF0000ADFF878B155
:1004E000FB44C0F820A02046E1688847002875D06A
:1004F000252806D0D4E901219047206A401C2062BB
:10050000F1E700265F462046E16888472028054637
:1005100008DB312D06D207EB050010F8200C08B1DE
:100520000643F0E7B00701D526F00406C4F81CA086
:100530000027C4F818A02A2D09D0284604F030FF5F
:1005400038B304EB8708303DC8F8185019E059F863
:10055000041B204604EB87029161E1688847012F64
:10056000054618D1E069002820DA26F020061DE0B3
:10057000D8F8180000EB800005EB40003038C8F8D0
:1005800018002046E1688847054604F009FF002866
:10059000EED1012F0AD02E2D08D12046E1688847E0
:1005A0007F1C0546022F46F02006C4DBA069002808
:1005B00003DA404246F00106A061F00701D026F0C0
:1005C00010066C2D0BD0682D09D04C2D39D06A2D1A
:1005D00035D0742D35D07A2D33D016E038E0E1686F
:1005E0002F4620468847B842054609D16C2F26D0B1
:1005F0004FF48060E168064320468847054604E0E2
:100600006C2F1AD04FF4807006430DB3A5F1410052
:10061000192802D8203546F400664A462946204665
:1006200026604E46FFF78CFD80B101280BD0F61DE9
:1006300026F0070000F1080955E74020E4E7802094
:10064000D8E70020D6E706F104094CE7284651E731
:10065000206ABDE8F09F0000A3690000002000F0C0
:10066000D5FCFFF7CBFD012000F07AF810B5431C54
:1006700002E010F8011B71B18107FAD14FF001328D
:1006800002C88C1A8C4314EAC211F9D0C01A0A06A7
:1006900003D0C01E10BDC01A10BD0A0401D0801EB8
:1006A00010BD0902FCD0401E10BD032A40F230806C
:1006B00010F0030C00F0158011F8013BBCF1020FA3
:1006C000624498BF11F801CB00F8013B38BF11F824
:1006D000013BA2F1040298BF00F801CB38BF00F83B
:1006E000013B11F0030300F09884083AC0F0088041
:1006F00051F8043B083A51F804CBA0E80810F5E79C
:10070000121D5CBF51F8043B40F8043BAFF300807E
:10071000D20724BF11F8013B11F801CB48BF11F8F3
:10072000012B24BF00F8013B00F801CB48BF00F8C3
:10073000012B7047704770477047000070B5064C3A
:100740007C44064D7D4403E0206820448047241DFE
:10075000AC42F9D170BD00008470000088700000C8
:1007600001491820ABBEFEE7260002000048704792
:10077000E0020010704770477047704738B5044674
:100780000A4600206946AFF30080002808BF38BD44
:1007900002460099204600F081FC012038BD01206E
:1007A00000F0E2BDF8B5AFF30080054600200C462E
:1007B000102000BF0646A819A0420DD9324669464E
:1007C0000020AFF30080070008BF00F0CDFD0098C7
:1007D000A04218BF0546C419FFF7C8FF05600746C9
:1007E000F01D20F007004619284600F00AF8B44230
:1007F00008BFF8BDA21B31463868BDE8F84000F0DC
:100800004DBC00210160C0E9011070471020704705
:1008100010B500F03FFC006810BD10B5044600F0B4
:1008200039FC046010BD09684A0501D540B2704723
:10083000C905FCD500B2704709684A0501D5C0B2A8
:100840007047C905FCD580B270472DE9F0470D46C9
:1008500099469246044600F124080168880604D5AA
:10086000E06921F01001216000E00120A84202DDD2
:10087000A0EB050700E00027A16907EB050202EBEA
:100880000900A1EB0000A0612078C00602D4204638
:10089000FFF790FD002608E0D4E901211AF80600D0
:1008A0009047206A401C761C20624E45F4DB20787D
:1008B000C0060AD52046FFF77DFD06E0D4E90121F8
:1008C00030209047206A401C2062381EA7F10107A3
:1008D000F4DC07E0D4E9012118F805009047206A0C
:1008E000401C2062281EA5F10105F3DC2046FFF71D
:1008F00078FD2078000602D50220BDE8F0870120AF
:10090000FBE711680268006A530501D508700BE027
:10091000D30501D5088007E0130603D5C217C1E946
:10092000000201E0520608600120704770472DE97F
:10093000FF4F0C461E464FF0FF378BB0D2E9000147
:10094000DDF860800A908A46C1F30A5505B93D4634
:10095000002108464FF00000BAF1000F00F44000FB
:1009600005DA00EB80004FF4400101EA50004FEA45
:100970009059B9F1010F00DDB9460A9850EA4A00D2
:100980000ED044F61050A5F2FF3545432F14B8F1B0
:10099000000F1ED07542291E1EDDC9F100021CE0A9
:1009A000B8F1010F4FF0000001D0302103E0F24315
:1009B00005E02154401CB042FBDB30460022002100
:1009C00021540B99C1F80880C1E900200FB0BDE89F
:1009D000F08FBD1B6D1CDEE74A4600DA694206A8AF
:1009E00000F012FC06AB07CB03AB07C350460A99D5
:1009F00000F07DFD8DE80700A0F500501F38009045
:100A00000398002D09DD42F21F014A46084403A95C
:100A10000390684600F0DCFF08E0A0F500504A466D
:100A20001F3803A90390684600F0E6FF8DE8070031
:100A30000004000C03D04FF0FF30410800E01046E6
:100A4000B8F1000F03D00022009215461FE0751E7A
:100A500006D400F03DFB02F1300262556D1EF8D560
:100A6000B3460122084302D000227F1C04E0207814
:100A7000302801D100227F1E002A099787D01DE06F
:100A8000112D07DA00F024FB303262556D1C50EA5C
:100A90000102F5D108430FD10021681E05E0235C57
:100AA000625C6354491C2254401E8142F7DBAB4612
:100AB000A81B401E099001E0009848B1002004F8EE
:100AC0000B000B98099AC0F80880C0E9002B7DE75D
:100AD00011264FF000085AE72DE9F04F88460446EA
:100AE000D21D22F0070191B0D1E90001CDE90A0140
:100AF00004F02DF802460B98C00F01D02D2007E01E
:100B00002068810701D52B2002E0202101EAC000E6
:100B1000032A099001D0072A05DB034641462046F7
:100B200000F01CFB0FE12078800601D5E06900E0B1
:100B30000620B8F1650F814606D0B8F1660F18D0CF
:100B4000B8F1670F72D132E00020B9F1110F0090B7
:100B500001DB112301E009F101030AAA01A90CA894
:100B6000FFF7E5FEDDE90C70002609F1010583467B
:100B700048E001204B4600904FF000470AAA01A927
:100B80000CA8FFF7D4FEDDE90DB00C995D460026F8
:100B900018B909F1010001EB0005B9EB050003D418
:100BA000C0F1FF3609F10105A5EB09002BE0B9F111
:100BB000010F01DA4FF001090020B9F1110F009087
:100BC000484601DD112300E003460AAA01A90CA84A
:100BD000FFF7ADFEDDE90C704D4600268346207818
:100BE00000070AD4AB4500DA5D4601A8012D04DDFB
:100BF000411911F8011C302907D04F4502DA17F1CD
:100C0000040F04DA0120824610E06D1EEEE7002F8B
:100C100002DCED1B3E4403E0781CA84200DD0546E3
:100C2000A7EB060000F1010A4FF00047207800070B
:100C300003D4AA4501DB4FF0FF3A0021B7F1004F82
:100C40000DF143088DF8431023D002202B23002FF1
:100C500001DA7F422D234FF00A0C011EA0F10100A2
:100C600000DC4FB197FBFCF10CFB11720F4602F157
:100C7000300208F8012DF0E7A8F101000370218887
:100C8000090501D5452100E06521A0F1010800F822
:100C9000011C09980FA9A1EB080707F1070700B18C
:100CA000012000EB050101EBEA70A1693844A1EBDA
:100CB0000000A0F10100A0612078C00602D4204607
:100CC000FFF778FB099830B1D4E901219047206AF9
:100CD00000F1010020622078C00620D52046FFF7F1
:100CE00069FB1CE0002E04DBB34502DD01A8805D3A
:100CF00000E03020D4E901219047206A761C401C96
:100D0000BAF1010A20620AD100F0C0F9C068016896
:100D1000405CD4E901219047206A401C2062281ED3
:100D2000A5F10105DEDC07E0D4E9012118F8010B8B
:100D30009047206A401C2062381EA7F10107F3DCAF
:100D40002046FFF74EFB022011B040E601694A1C25
:100D500002610878704700B58FB0CDE901310021FC
:100D6000059105497944CDE9031011466846FFF71E
:100D7000AFFB0FB000BD0000E5FFFFFF0A6802F8FF
:100D8000010B0A607047D1E900239A4202D2531C3A
:100D90000B601070704710B5436913B1AFF300805A
:100DA00001E0FFF730FB012010BD127800F12401B3
:100DB0000A7000224A700122EDE711684FF0FF32FD
:100DC000E9E700002DE9FF5F15468A460446DFF893
:100DD000AC80F8440027D8E900103E46CDE9001069
:100DE00011E03AF816106A4602A800F07FFA411C9A
:100DF00007D02178890603D5E269391891420ED8C7
:100E0000074406F101062078800602D5E069B84261
:100E100005DDAE42E5DB3AF816000028E1D1A06915
:100E2000C01BA0612046FFF7C5FAD8E90010CDE944
:100E30000010002016E03AF818106A4602A800F0E8
:100E400055FA8146401C0BD000250DF1080B05E03A
:100E5000D4E901211BF8050090476D1C4D45F7D3DF
:100E600008F10100B0428046E5DB206A3844206288
:100E70002046FFF7B6FABDE8FF9F0000C260000001
:100E80002DE9F0418046D21D22F007020025D2E96B
:100E90000002F52914A612D0002A06DA0023D0EBAE
:100EA000030063EB020211A608E0D8F800108B07DC
:100EB00001D50FA602E0490701D50EA6012511466E
:100EC000002408F1240704E000F002F930323A551A
:100ED000641C50EA0102F7D12B46324621464046B7
:100EE000BDE8F041FFF7B1BC000000002D0000009C
:100EF0002B0000002000000030B4002100F1240489
:100F00000CE002F0070505F130054FEAD20242EA93
:100F10004372655401F101014FEAD30352EA03051C
:100F2000EFD10468002310A2250708D504F020049F
:100F30000C4304D0C46901230CA2641EC46130BCFC
:100F4000FFF783BC10B5044621461068FFF774FC18
:100F500002462046BDE810400023CDE7D21D22F016
:100F60000701D1E90023C7E70000000030000000BE
:100F7000F0B40D460188090502D5234C7C4402E0FB
:100F8000214C7C440E34002100F124060BE002F0D9
:100F90000F074FEA1212E75D42EA03724FEA13139A
:100FA000775401F1010152EA0307F0D102780023DE
:100FB000120704D5702D06D009B111340223224640
:100FC000F0BCFFF742BC10340123F8E770B50446CB
:100FD0000D4621461068FFF72FFC024629462046A1
:100FE000BDE870400023C3E7D21D22F00703D3E918
:100FF0000023BDE70368126843F020030360082361
:10100000C3610023B4E70000205F000010B500F0CA
:1010100093F9BDE8104000F089B910B5203AC0F04E
:101020000B80B1E81850203AA0E81850B1E81850E9
:10103000A0E81850BFF4F5AF5FEA027C24BFB1E826
:101040001850A0E8185044BF18C918C0BDE8104097
:101050005FEA827C24BF51F8043B40F8043B08BFA0
:101060007047D20728BF31F8023B48BF11F8012B67
:1010700028BF20F8023B48BF00F8012B7047000052
:1010800000487047D80200107047000000487047C1
:10109000F802001000487047D8020010034640686C
:1010A0008C46002818BF88423CBF03464068F8D3EE
:1010B00018681844884207D00CF1030020F007009C
:1010C000001D411A521A0146081D0A60FFF718B99F
:1010D00030B5B0F10A024FEA900E71F100034EEA0A
:1010E000817EB0EB0E0061EB91014FEA101E4EEADB
:1010F000017E10EB0E0041EB11114FEA102E4EEA6B
:10110000016E10EB0E0041EB11214FEA104E4EEA3A
:10111000014E10EB0E0041EB1141401841F100016E
:101120004FEAD00040EA41704FEAD10110EB800550
:101130004FEA810444EA907444EB01046D1944EBD6
:101140000404521BA3414FF0000348BF0A3200D5EC
:1011500030BD401C41F1000130BD00002DE9F041DF
:101160001F46044603260168072A01F4006004DBD9
:1011700008B116A505E016A503E008B115A500E025
:1011800015A521F010002060A069C01EA0610FB15C
:10119000401EA0612046FFF70DF94FB1D4E90121AF
:1011A00038469047206A401C2062C01C206206E03E
:1011B000206AFAE7D4E9012115F8010B9047761E61
:1011C000F8D22046FFF70DF9BDE8F0814E414E0000
:1011D0006E616E00494E4600696E660010B5436947
:1011E00013B1AFF3008001E0FFF7ECFD012010BD6B
:1011F000128800F1240182840022C2840122EDE7DA
:1012000011684FF0FF32E9E72DE9F04781461646B5
:101210008AB035487844D0E9002380680092CDE94F
:101220000130314878440C38D0E902230069039238
:101230004FF03702CDE9043041F69B30014491FB79
:10124000F2F0A0F1800502FB10141B3C02D56442B1
:10125000012000E00020DFF890A080460027FA443B
:10126000AAF1C60A0DE0E00709D03246684607EB4E
:1012700047010AEB810100F0BFFB8DE80700641015
:101280007F1C002CEFD1184F7F44B43F17E0E807D4
:1012900013D007EB04100DF1180A90E80E00AAE82D
:1012A0000E00C068F04201D198190890324606A994
:1012B00003A800F0A1FB03AB07C36D10641C002D55
:1012C000E5D132466946B8F1000F03A802D000F01C
:1012D0007FFB01E000F090FBC9E90001C9F808209C
:1012E0000AB0BDE8F08700004C5E000070B51646FD
:1012F0000C46054600F064F8036893F801010128E4
:1013000006D0FF2C0FD8185D68B101202C7070BD7D
:10131000D3F807013246214603442846BDE8704011
:1013200003F2071318474FF0FF3070BD002801D0BB
:10133000FFF716BA7047000010B5002102A000F0B8
:101340004DF8012010BD0000534947414252543A24
:101350002041626E6F726D616C207465726D696E92
:101360006174696F6E00000010B500F051F8BDE8BF
:101370001040FFF7DBBF7546FFF782FEAE46050063
:101380006946534620F00700854618B020B5FEF7A1
:1013900053FFBDE820404FF000064FF000074FF02C
:1013A00000084FF0000B21F00701AC46ACE8C00983
:1013B000ACE8C009ACE8C009ACE8C0098D4670478C
:1013C00010B5FFF763FE001D10BD00BF5D440000B7
:1013D0000446AFF300802046FEF71BFF70B50546BC
:1013E0000C460A2000E06D1C00F07AF835B1287830
:1013F0000028F8D102E0641C00F072F814B12078E3
:101400000028F8D1BDE870400A2000F069B800005B
:1014100010B5012805D0002103A0FFF7DFFF012050
:1014200010BD09A1F8E7000053494752544D454DFE
:101430003A204F7574206F662068656170206D6575
:101440006D6F7279000000003A2048656170206D70
:10145000656D6F727920636F727275707465640068
:101460004FF0013C50F8042B51F8043B9A4221D133
:10147000A2EB0C03934313EACC1317D150F8042BBF
:1014800051F8043B9A4215D1A2EB0C03934313EAA3
:10149000CC130BD150F8042B51F8043B9A4209D1DC
:1014A000A2EB0C03934313EACC13DBD04FF0000004
:1014B000704700BFD01A01BAB1FA81F101F01801EA
:1014C00022FA01F0CB40C1F12001DBB2C0B2C01A58
:1014D0002CFA01F3D11A914311EAC311E6D17047F6
:1014E00008B569468DF800000320ABBE08BD5FEA71
:1014F000400C08BF91F0000F4FEA8C234FEAC12245
:1015000043EA51514FEA1C5018BF00F5F0404FEA32
:10151000300018BF41F000415FEA6C5C00F02980A8
:10152000BCF1FF3F08BF40F080407047130C06BF7E
:1015300012044FF0100C4FF0000C130E04BF1202F7
:101540000CF1080C130F04BF12010CF1040C930FE3
:1015500004BF92000CF1020CD30F04BF52000CF137
:10156000010C11464FF00002A0F11F00A0EB0C008F
:10157000704711F0004F08BF704731F000413FF451
:10158000D5AF0B0C06BF09044FF0100C4FF0000C48
:101590000B0E04BF09020CF1080C0B0F04BF09016C
:1015A0000CF1040C8B0F04BF89000CF1020CCB0F63
:1015B00004BF49000CF1010CCCF12003A0EB0C009E
:1015C00022FA03F302FA0CF241EA030100F10100EE
:1015D000704720F07F4C80EA030023F07F47ACEB9C
:1015E000070303F57C5300F0004003F1FF032DE9EE
:1015F00080494FEA154B09B44FEA144325EA0B4ED4
:1016000024EA03480FF2042606EB132749083E7824
:101610005FEA320203FB0667C7F5000707FB06F621
:101620004FEA54374FEAD64606F1020607FB066C2E
:10163000CCF1005C4FEA1C472CEA074C07FB06F490
:101640000CFB06F504EB15464FEA961634BF002056
:101650004FF000404FEAD13706FB07FC4FEA1C4C25
:101660000CFB0BF7D21B03FB0CF761EB07010CFB28
:101670000EF7B0EB074072EB17420CFB08F734BFD4
:10168000A2EB0742B2EB074261EB17414FEA0C4471
:101690004FEA910706FB07FC4FEA1C4C0CFB0BF7CB
:1016A000B0EBC74072EB573203FB0CF734BFA2EB31
:1016B000C742B2EBC74261EB57310CFB0EF7B0EB00
:1016C000C70072EB57720CFB08F734BFA2EBC702DE
:1016D000B2EBC70261EB5771039F4FEA816141EAA8
:1016E000921104EBCC044FEAD1374FEA826206FB39
:1016F00007FC42EA90124FEA80604FEA1C4C0CFB58
:101700000BF7D21B03FB0CF761EB07010CFB0EF789
:10171000B0EB074072EB17420CFB08F734BFA2EBAB
:101720000742B2EB074261EB17414FEA8C554FEA93
:10173000910704EB9C2406FB07FC4FEA1C4C0CFBB6
:101740000BF7B0EBC74072EB573203FB0CF734BF1B
:10175000A2EBC742B2EBC74261EB57310CFB0EF76D
:10176000B0EBC70072EB57720CFB08F734BFA2EB6B
:10177000C702B2EBC70261EB577115EB4C254FEA7C
:10178000816141EA92114FEA82624FEAD13742EA1F
:10179000901206FB07FC44F100044FEA80604FEA18
:1017A0001C4C0CFB0BF7D21B03FB0CF761EB070186
:1017B0000CFB0EF7B0EB074072EB17420CFB08F77F
:1017C00034BFA2EB0742B2EB074261EB174115EBC6
:1017D0001C154FEA813141EA92414FEA823242EAD6
:1017E00090424FEA80304FEA0C7644F1000448EA18
:1017F00003434EEA0B484FF0000EB2EB080C71EBBE
:10180000030724BF624639464EEB0E0E4FF0000B25
:101810000018524149414BEB0B0BB2EB080C71EB3A
:1018200003077BF1000B24BF624639464EEB0E0ED8
:101830004FF0000B0018524149414BEB0B0BB2EB40
:10184000080C71EB03077BF1000B24BF624639469D
:101850004EEB0E0E51EA020718BF46F0010616EBDA
:101860000E7655F1000254F1000103D5BDE889015F
:10187000BDE80088BDE88901BDE80048B6195241BD
:1018800041EB0101A3F10103704780807F7E7D7CE5
:101890007B7A7978777676757473727171706F6E02
:1018A0006E6D6C6C6B6A6A696868676666656464AD
:1018B000636362616160605F5F5E5E5D5D5C5C5B37
:1018C0005B5A5A59595858575756565555555454A6
:1018D000535352525251515050504F4F4F4E4E4D04
:1018E0004D4D4C4C4C4B4B4B4A4A4A494949484850
:1018F0004847474747464646454545444444444390
:1019000043434342424242414141002B26D47700A7
:1019100021D01CB54FEA370703B44FF010004FF049
:1019200010014FF000000FBCBDE810400BF1010B9F
:10193000BBF1010F08BF5FEA170722BF12F10102D6
:1019400011F101014FF0004143F1000300F00040AC
:1019500043EA00007047F9D35708DAE746EA06463B
:1019600013F1400F4FEA16461FDD13F1200FDFBFC2
:1019700016430A46002120335B42C8D0C3F120073A
:1019800046EA064602FA07F74FEA164646EA07060F
:10199000C3F1200722FA03F201FA07F721FA03F153
:1019A0004FF0000342EA0702B1E746EA020646EAC0
:1019B00006464FEA164646EA0106BCBF46EA064618
:1019C000360C4FF000034FF000024FF000019EE78D
:1019D0002DE9C048934630B491E8380007C831EA91
:1019E000400C48BF34EA430C03D5FFF7F2FDFFF784
:1019F0008CFFF0BCBDE800882DE9C048934630B4A8
:101A000091E8380007C810F0804F08BF13F0804FEE
:101A100003D100F005F8FFF778FFF0BCBDE80088BF
:101A200020F07F4780EA030023F07F4C07EB0C0394
:101A3000A3F57C5300F00040A3F1FE0392F0000FE9
:101A400000F0B38095F0000F00F077802DE9014998
:101A50004FEA11404FEA144621EA004800FB06FC19
:101A600024EA064708FB06F607FB08F800FB07F721
:101A700018EB06484CEB164C4FEA124B18EB074894
:101A80004FEA15464CEB174022EA0B4E0BFB06FCC7
:101A900025EA06470EFB06F607FB0EFE0BFB07F7D3
:101AA0001EEB064E4CEB164C4FF000061EEB074E9D
:101AB0004CEB174B18EB0B0840F1000018EB0E0B2A
:101AC00058EB000840F100008F1A4FF000013CBFB6
:101AD000C943661B14BFB5EB040C00213CBFC943CE
:101AE000F61B4FEA17444EEA8E0E27EA04454FEAEA
:101AF0001C4704FB07622CEA074C05FB07F70CFBAD
:101B000005F604FB0CFC16EB074642EB174216EBFE
:101B10000C4642EB1C421BEB060658EB020241410D
:101B200046EA9E0601D5BDE80189B619524141EB4E
:101B30000101A3F10103BDE801894FEA14454FEA11
:101B4000114724EA054621EA074C05FB07F406FB8A
:101B500007F70CFB06F105FB0CFC11EB074144EB0E
:101B600017444FEA124711EB0C4144EB1C4422EAA4
:101B7000074C05FB07F206FB07F70CFB06F605FB17
:101B80000CFC16EB074642EB174216EB0C4642EBF9
:101B90001C456A1854F1000148BF7047B6195241FC
:101BA00041EB0101A3F10103704795F0000F37D01D
:101BB0004FEA11424FEA144721EA024624EA074C51
:101BC00002FB07F106FB07F70CFB06F402FB0CFC1B
:101BD00014EB074441EB17414FEA154714EB0C4453
:101BE00041EB1C4125EA074C02FB07F506FB07F712
:101BF0000CFB06F602FB0CFC16EB074645EB174503
:101C000016EB0C4645EB1C42121951F1000148BF7E
:101C10007047B619524141EB0101A3F1010370472E
:101C20004FEA14454FEA114724EA054621EA074CDA
:101C300005FB07F106FB07F70CFB06F24FF0000669
:101C400005FB0CFC12EB074241EB174112EB0C4277
:101C500051EB1C4148BF7047921841EB0101A3F1C1
:101C60000103704710B54FF48030054908630548FB
:101C700000680068016903480068884710BD0000DB
:101C8000004003401C00001010B50248006800F03E
:101C900013FB10BD3000001010B5FEF7E6FA07493F
:101CA0000860002105480068054A1268904703490A
:101CB000086008460068FEF7CFFA10BD4800001023
:101CC0001000001010B5FEF7D0FA0A4908600A4863
:101CD0000068401C08490860012106480068074A5E
:101CE000126890470349086008460068FEF7B4FA96
:101CF00010BD00004400001014000010100000107F
:101D000020208649086000BF8448006810F0400F1A
:101D1000FAD00320824908604FF000008149C1F8E1
:101D2000A801814908604FF001008049086080489F
:101D3000804908604FF00100A1F1040108604FF0F4
:101D4000AA007D4908604FF055007649C1F88C0023
:101D500000BF7A48006810F0806FFAD003207849FD
:101D600008604FF0AA006F49C1F88C004FF0550091
:101D7000714908604FF02300724908604FF001007C
:101D8000A1F1040108604FF0AA006F4908604FF00C
:101D90005500086000BF6D48006810F4806FFAD0ED
:101DA00003206B4908604FF0AA005E49C1F8AC00FF
:101DB0004FF05500644908606648674908604FF075
:101DC00000005849C1F8C8010846D0F88800C0F39F
:101DD0000160032868D15548006810F0030006D060
:101DE000012823D002283FD003285CD100E000BFA7
:101DF00052480068C0F30E0000F101004FEA4000B5
:101E0000564900FB01F04749D1F88810C1F307415A
:101E100001F10101B0FBF1F141480068C0B200F1ED
:101E20000100B1FBF0F04E4908603CE04348006817
:101E3000C0F30E0000F101004FEA4000494900FBE9
:101E400001F03849D1F88810C1F3074101F10101CF
:101E5000B0FBF1F132480068C0B200F10100B1FB03
:101E6000F0F03F4908601EE034480068C0F30E00FF
:101E700000F101004FEA40004FF4FA4100FB01F08D
:101E80002849D1F88810C1F3074101F10101B0FBE5
:101E9000F1F123480068C0B200F10100B1FBF0F09D
:101EA0002F49086000BF2FE02048006810F00300B1
:101EB00006D0012810D0022819D0032823D100E031
:101EC00000BF17480068C0B200F101002349B1FB10
:101ED000F0F02349086016E011480068C0B200F134
:101EE00001002049B1FBF0F01D4908600BE00C48EF
:101EF0000068C0B200F101004FF4FA41B1FBF0F00C
:101F00001749086000BF00BF0648006820F4704011
:101F100040F480400349086070470000A0C10F40B2
:101F200004C10F4000C00F40ACC10F400CC10F40B6
:101F30006300050084C00F408CC00F4088C00F4074
:101F400080C00F40A4C00F40ACC00F40A8C00F40DD
:101F5000A0C00F40DE872804C4C00F4000093D0028
:101F600000000010001BB70010B50248006800F028
:101F7000A3F910BD2000001010B50248006800F061
:101F80009BF910BD2400001010B50248006800F055
:101F900093F910BD2800001010B50248006800F049
:101FA0008BF910BD2C00001010B5044800680068C3
:101FB000816A02480068884710BD000034000010A4
:101FC00010B5044800680068816A024800688847C4
:101FD00010BD00003800001010B50448006800680B
:101FE000816A02480068884710BD00003C0000106C
:101FF00010B50248006802F053FA10BD400000100E
:1020000000F01F020121914042094FF0E02303EB51
:102010008202C2F8001170472DE9F04104460E46D5
:102020001746032F3AD1606B10B1606B283000E087
:102030000020B04204D1D4E9120104F029F9A064CF
:10204000A06B10B1A06B283000E00020B04204D19A
:10205000D4E9120104F0E6FBA064D4E9111004F005
:10206000AFFA01D2606C07E0216CA06C04F0A8FB11
:1020700001D2206C00E0A06CA064A16CE06B00F0C9
:10208000C9FE04F12C05B846686828B16868016883
:1020900042460B682946984700BF00BFBDE8F08163
:1020A0000FB438B5044608980090204605A90EC91B
:1020B00001F050FF38BC5DF814FB0FB47CB504464A
:1020C0000D46DDE90A01CDE9000129462046DDE99A
:1020D000082301F0A3FF7CBC5DF814FB0FB42DE9CD
:1020E000F04F89B00446179D019516980090204640
:1020F00013A90EC901F0CCFF044604F1280001F039
:1021000063F8A0F1280404F12C0000F01FFEA0F1F8
:102110002C04604820603430A0620C30E0621998D2
:102120002064189860641A98E064616C1B9804F04D
:1021300047FA01D2606C00E01B98A064564F3C2027
:1021400002F0FFFC0646384604F0D2F90490159AD6
:102150001399881804F008FA3946029004F062FBDB
:102160004FF07E51039004F05DFB834604F0C0F90C
:10217000824616980090514605A8049B149A01F0D7
:1021800075FD814645A0CDE90150D9F80C000090BD
:10219000304699E80E0002F06DFA06466063616B06
:1021A00001F1280004F1280100F0C7FD2046616B11
:1021B00001F05FFF3C2002F0C4FC0646384604F004
:1021C00097F9824616980090534605A8DDE9131248
:1021D00001F04CFD814632A0CDE90150D9F80C0048
:1021E0000090304699E80E0002F044FA0646A063DB
:1021F000A16B01F1280004F1280100F09EFD2046AA
:10220000A16B01F036FF3C2002F09BFC80464FF0B2
:102210008041384604F008FA0390159804F0A4F9B8
:102220000290039904F0FEFA834604F061F98246B5
:10223000139804F099F93946039004F029F883467D
:1022400004F056F9049016980090534605A8149A85
:10225000049901F00BFD814612A012A1CDE90151B4
:102260000390D9F80C000090404699E80E0000F069
:10227000F9FD8046E063A16CE06B00F0CBFD2046E9
:10228000E16B01F0F6FE204609B0BDE8F00F5DF805
:1022900014FB0000847000000000F0412B000000DF
:1022A0002D00000000000000024B03608180C2800E
:1022B00070470000D070000010B5044660690068E7
:1022C00010F0010F07D001206169086020680169E2
:1022D0002046884703E0606900686169086010BDB6
:1022E0002DE9F04788B004460E46914622464A48FA
:1022F000206002F1080001F0FAFCA0F1080200BF22
:102300001446464810602674207C052804D2DFE875
:1023100000F0040D151D250028E04FF040206061FD
:102320003F4804600120FFF76BFE1FE03D486061FD
:102330003D4804600220FFF763FE17E03B48606100
:102340003B4804600320FFF75BFE0FE03948606103
:10235000394804600420FFF753FE07E03748606106
:10236000374804600920FFF74BFE00BF00BF484616
:1023700004F012F98046334904F056F90746324911
:1023800004F052F98246012507E005EB850045007F
:102390002E49504603F0EAFF82462D49504604F08C
:1023A0000FFAF2D3504604F0BFF8E060284603F07D
:1023B0003BFD07468846E06803F036FD0022254BCA
:1023C000CDE9000103F044FD3A464346CDE9020160
:1023D00003F03EFD0022204BCDE9040103F058FB41
:1023E000CDE9060103F0DCFC6060681E6169C8602D
:1023F0006169E0688861032061694861207C042884
:1024000003D109206169486002E0012061694860E8
:10241000204608B0BDE8F087EC740000EC700000C6
:10242000200000100080004024000010000009403F
:1024300028000010004009402C00001000800140DE
:102440003000001020BCBE4BBD3786350000204157
:1024500000FF7F4780842E4184D777412DE9F041EA
:1024600086B0044660680268116888476068026840
:10247000D168884705466068026851688847074602
:1024800060680268916888478046E0683844E06088
:102490002069404420616069401C606160690A28CD
:1024A0003DDB0A21E06890FBF1F0E060206990FBE1
:1024B000F1F0206102A8D4F80CC0ACF10A01D4F804
:1024C00010C0ACF10A0205230A2601604260836055
:1024D000C66000BF207AA84210D02572DDE9040151
:1024E000CDE900010DB1012200E003221146206870
:1024F0000268D668DDE90223B0470BE055B1DDE99B
:102500000401CDE9000120680168CE680221DDE9FF
:102510000223B0470020E0602061606100BF06B088
:10252000BDE8F0812DE9FF5F82464FF07E50DAF87A
:102530000C1003F01BFF0446DAF8081003F0A8FEA5
:10254000CAF80800DAF81010886C03F075FECDE9BF
:102550000201DAF8080003F06FFE8046184A194BB2
:1025600003F076FCCDE90001DDE9022303F070FC05
:10257000064603F0EBF8044603F0A8F983464FF053
:102580007E51584603F084FE06460F4904F04CF88D
:1025900005460E4903F0EAFE04460D4904F044F8EE
:1025A0008346584603F0C0FF84B20A4800680068BA
:1025B000002221460368074800689847BDE8FF9F4E
:1025C00054E3A59BC42019400000C84200803B454D
:1025D00000FF7F47540000100146487918B9087978
:1025E00008B1012070470020FCE70146487918B186
:1025F000087908B9012070470020FCE710B50446AF
:1026000004F1080001F070FDE179884201D0012059
:1026100010BD0020FCE770B504460D46A571E079B9
:10262000684001D0012000E00020014604F10800CC
:1026300001F067FD70BD01464879704710B504464A
:10264000607920712068416920468847607110BD1B
:102650002DE9F04104460F4690461D46069E0E4861
:1026600020604246394604F1080001F06DFDA0F1FA
:102670000804002060712071A071E671314604F1F8
:10268000080001F03EFD294604F1080001F051FD6B
:102690002046BDE8F081000014710000014901608E
:1026A00070470000587100002DE9F04104460D46C6
:1026B0001646032E3DD1276B208E81B204F12C00EB
:1026C00001F018FB01210173A06B10B1A06B283041
:1026D00000E00020A84203D1206B401E20630AE0E6
:1026E000E06B10B1E06B283000E00020A84202D17E
:1026F000206B401C2063206B002801DA002007E0DB
:10270000D4E90C01884202DB606B401E00E0206BC4
:102710002063208E81B204F12C0001F0EBFA00213D
:102720000173206BB84203D0206841692046884776
:1027300000BFBDE8F0810FB4F8B50446208E81B229
:1027400004F12C0001F0D6FA05460A98009028689A
:102750008668284607A90EC9B047F8BC5DF814FB87
:102760000FB42DE9FC4104460E46DDE90C01CDE92C
:10277000000131462046DDE90A2301F04FFC208E9E
:1027800081B204F12C0001F0B5FA0546DDE90C0137
:10279000CDE900012868C76831462846DDE90A23EB
:1027A000B847BDE8FC015DF814FB00000FB42DE94B
:1027B000F04788B00446159F0020019014980090BF
:1027C000204611A90EC901F063FC044604F128005B
:1027D00000F0FAFCA0F12804454820603430A062E3
:1027E00004F12C0001F083FAA0F12C0400202063F6
:1027F00017A80390DDF8588000260FE00EB10120E5
:1028000000E0002088F80C00414604F12C0001F0A3
:1028100034FA039850F8048B0390761CBE42EDDB2B
:1028200067633C2002F08DF905460321139890FB65
:10283000F1F932200090149B12981844A0F1320252
:102840004B4604A8119901F011FA064629A000216F
:10285000CDE90110F0680090284696E80E0001F0DE
:1028600009FF0546A063A16B01F1280004F12801CE
:1028700000F063FA2046A16B01F0FBFB3C2002F064
:1028800060F905460321139890FBF1F990FBF1F0F4
:10289000119901EB400A32200090149912980844D3
:1028A000A0F132024B46514604A801F0DFF906467A
:1028B00011A00021CDE90110F0680090284696E8AB
:1028C0000E0001F0D7FE0546E063E16B01F1280040
:1028D00004F1280100F031FA2046E16B01F0C9FB58
:1028E00000200390204608B0BDE8F0075DF814FB17
:1028F000687100003C0000003E0000000FB42DE9AC
:10290000F04188B00446DDE9135801951298009013
:1029100020460FA90EC901F0BBFB044613482060F6
:10292000342002F00EF906461E20009004A80FA9DC
:102930000EC901F09BF90746CDE90158C068009027
:10294000304697E80E0001F0ABFC0646A062C5F1E8
:102950000100A16A08862046A16A01F08AFB204690
:1029600008B0BDE8F0015DF814FB0000A87100009C
:102970002DE9F04704460F4690461E46DDE9089AC9
:10298000002501202071607908B101F025FCA6B175
:1029900020688168204688472068394602692046B9
:1029A0009047002507E018F8051020684269204686
:1029B0009047681CC5B2B542F5DBBAF1000F1DD0D7
:1029C000206881682046884747F001012068026935
:1029D00020469047002507E0206881692046884707
:1029E00009F80500681CC5B2AAF10100A842F3DC91
:1029F0002068C1692046884709F805002068C16839
:102A000020468847607908B101F0D6FB207910B9DB
:102A10000120BDE8F0870020FBE72DE9F0470446E0
:102A2000894617461E46DDE908A8002501202071C9
:102A3000607908B101F0D0FB16B9B8F1000F1FD0D2
:102A400020688168204688472068494602692046F8
:102A50009047002506E0795D20684269204690474E
:102A6000681CC5B2B542F6DB002507E01AF8051070
:102A70002068426920469047681CC5B24545F5DB91
:102A80002068C16820468847607908B101F094FB4E
:102A9000207910B90120BDE8F0870020FBE733B5AD
:102AA00083B0044600200290012002A9CDE9001065
:102AB000217A606802680123556804AAA847617AF0
:102AC000084360729DF8080005B030BDFFB583B0C3
:102AD000044615461E46CDE90056217A6068026814
:102AE0000123576804AAB847617A0843607207B0A7
:102AF000F0BD37B582B00446012004A9CDE900102D
:102B0000217A606802680123156803AAA847617AE0
:102B10000843607205B030BD0146487A00224A720F
:102B200070470000034B0360416002720023437250
:102B300070470000F4750000024A02600122027131
:102B400041717047D87100002DE9F04307460C46EB
:102B500000216DE0DFF8EC8058F82180B7EB184FCA
:102B600065D1DFF8E08038F82180C8F30335DFF85D
:102B7000D48038F82180C8F30712DFF8C88018F82D
:102B8000218008F00F0C4FEA02784FEAD8634FEA31
:102B9000450808EB1216DFF8B08008EB86004FF00E
:102BA000030909FA03F9D0F8008028EA0908C0F8F7
:102BB00000800CFA03F9D0F8008048EA0908C0F850
:102BC0000080DFF8848008F1400808EB86004FF0B1
:102BD000030909FA03F9D0F8008028EA0908C0F8C7
:102BE000008004F0030909FA03F9D0F8008048EAEC
:102BF0000908C0F80080DFF8508008F1680808EB89
:102C000085004FF0010909FA02F9D0F8008028EA9E
:102C10000908C0F80080C4F3001909FA02F9D0F8D5
:102C2000008048EA0908C0F80080BDE8F083491C2C
:102C3000DFF8108058F82180B8F1000F8AD100BF6A
:102C4000F3E700005C00001000C0024010B504462D
:102C500004F1080001F065FA10BD10B5044604F156
:102C6000080001F039FA10BD2DE9F04104460E4686
:102C7000174601F0B1FA2046FFF7EFFF002506E006
:102C8000715D606803681A689047681C85B2BD4230
:102C9000F6DB2046FFF7DAFF01F08EFABDE8F0819F
:102CA0000246074810604868064BC2E90103CB683A
:102CB000D3600B7C13744B6910465361704700005E
:102CC00030760000687600002DE9F04104460D469C
:102CD00016461F460E48206065603A46314604F1AC
:102CE000080001F031FAA0F108044FF00108217C3E
:102CF000E068026853684246984700BF00BF6169B8
:102D0000E06803689A68904700BF2046BDE8F081FC
:102D10003076000001490160704700000072000039
:102D200070B504460D46606828B1606801682A469F
:102D30000B682146984770BD704770B504460D4634
:102D40006560206801682046884770BD01490160C0
:102D500070470000107200000FB47CB504460D46A9
:102D6000DDE90A01CDE9000129462046DDE9082315
:102D700001F054F97CBC5DF814FB70B504460D46B7
:102D80002B462046D4E90D1200F002F870BD000079
:102D90002DE9F84F06460C4615461F462046FDF71E
:102DA00065FC82462846FDF761FC82443846FDF703
:102DB0005DFC504400F101094846FDF75DFA80468C
:102DC0003B46224607A140460095FDF7C1FA306810
:102DD0004146C26A30469047404601F0A5FEBDE834
:102DE000F88F0000257325732573000070B5044625
:102DF0000D4625B906A12046FFF7BFFF03E029468F
:102E00002046FFF7BAFF206841692046884770BD19
:102E10002D2D0000F0B587B005460C46204603F086
:102E20000BFA06A2CDE900010F2103A8FDF7A6FACF
:102E300003A92846FFF7A1FF07B0F0BD252E336692
:102E4000000000007FB505460C46234604A20F2172
:102E50006846FDF793FA69462846FFF78EFF7FBD67
:102E6000256400000FB42DE9FE430446DDE90F752B
:102E7000119E1EA0CDE901700E98009020460BA96E
:102E80000EC901F00DFA0446194820602846FDF7E6
:102E9000EDFB00F101084046FDF7EEF960633046B6
:102EA000FDF7E4FB00F101084046FDF7E5F9A063FA
:102EB0002846FDF7DBFB00F1010842462946606B1E
:102EC000FDF7F3FB3046FDF7D1FB00F10108424668
:102ED0003146A06BFDF7E9FB06A12046FFF786FF10
:102EE0002046BDE8FE035DF814FB00002D2D2D00EB
:102EF0001C7200002D2D000010B5002203681B7805
:102F00008B4207DC03685B788B4203DB03681B782A
:102F1000CB1ADAB2D0E90043A47802FB0433836011
:102F200010BDF0B503460C46184601F0CDFD02FB7E
:102F3000004085B2986800EBE500007805F00707CF
:102F40008021394100EA01060EB10120F0BD0020C8
:102F5000FCE70160426043688360704710B5044637
:102F60000420A16808600820A168886120685021B9
:102F7000026A20469047A0688068C0B210BD70B554
:102F800004460D464FF6FF76207950B100BF701E03
:102F900080B2060005D0A068406800F0FC00A8429E
:102FA000F5D12EB9002020712068C16820468847DD
:102FB00070BD10B504460C20A168886120685821B6
:102FC000026A20469047A0688068C0B210BD1021F8
:102FD00082681160082182689161704770B504466B
:102FE000012020712068C1682046884740F2FF65B3
:102FF00000BF681E80B20500FBD12020A1680860D8
:1030000020680821026A2046904770BD70B50446CA
:103010000D46A06885602820A168886115F0010F21
:1030200005D020684021026A2046904704E02068CD
:103030001821026A2046904770BD70B504460D46BF
:10304000A06885600820A168886120682821026A3C
:103050002046904770BD00002DE9F04304460E461F
:103060001746984641462046FFF766FD04461E482F
:1030700020604FF01209012E02D0022E0BD000BFAB
:103080001A48A06049462820FFF75EFD49462620E1
:10309000FFF75AFD0AE01648A06049462920FFF7CD
:1030A00053FD49462720FFF74FFD00BF00BF37B152
:1030B000012F07D0022F07D0032F07D000BF40F207
:1030C000E24505E07D2503E01F2501E00C2500BF5A
:1030D00000BFA0684561A06805614020A168086044
:1030E0002046BDE8F08300005472000000C0054097
:1030F00000000A400246002000BF0B4BDB6813F0C3
:10310000010FFAD0084B996000BF074BDB6813F042
:10311000100FFAD102E0044B9B68D8B2024BDB6877
:1031200013F0040FF7D1704700000340F0B50646D6
:103130000C4615463046FFF7EDFD06461E4830604A
:10314000002700212520FFF7FFFC00211520FFF7B5
:10315000FBFC00211820FFF7F7FC1848006840F43A
:1031600080601749C1F8C400062C04D2DFE804F0DF
:103170000406080A0C0E00BF312709E0182707E0F3
:103180000B2705E0052703E0022701E0002700BF29
:1031900000BFC5F30010072141EA801005F00101CE
:1031A00040EAC11040EA0720064908600220086191
:1031B00048603046F0BD000080720000C4C00F407F
:1031C00000C00F400000034001490160704700004B
:1031D0009072000070B504460D462046FFF75EFA77
:1031E000044604482060656060680268116888478A
:1031F000204670BD9C7200000181428170472DE91C
:10320000F84F0446894692461D460A9E009620685D
:103210002B4652464946C76B2046B84700270FE069
:103220004FF0000808E0A18B2068426C20469047D0
:1032300008F101001FFA80F8A845F4DB781C87B27A
:10324000B742EDDBBDE8F88F41837047C18370471B
:10325000818370472DE9F84F04468946494604F1B9
:103260000C00FFF749FE04F10C0001F031FC217E57
:103270004843401C85B204F10C0001F025FC217E7E
:1032800000FB01F600956289218920683346C76BEF
:103290002046B84700252EE0002727E000261DE045
:1032A0002A46314604F10C00FFF73BFE82464FF000
:1032B00000080EE0BAF1000F01D0E08B00E0608B57
:1032C00001462068426C2046904708F1010000F05A
:1032D000FF08207E4045EDDC701CC6B204F10C00F6
:1032E00001F0F2FBB042DBDC781CC7B2207EB842B2
:1032F000D4DC681CC5B204F10C0001F0E9FBA84263
:10330000CADC04F10C0001F0DFFB2189227E02FB04
:1033100000102081BDE8F88F3FB50446079D1422B8
:103320000A212046FEF7C0FF04460B48206001A892
:1033300007C8C4E90412E06025761F2060834CF2C0
:103340001860A0834FF6FF70E08300202081608129
:10335000204604B030BD0000B07200001CB5044629
:1033600004F1080002F081FAD0B920688168204693
:103370008847012802D0022810D107E001200190DF
:1033800001A904F1080002F080FA08E00220009090
:10339000694604F1080002F078FA00E000BF00BFBF
:1033A00004F1080002F061FAD0B9206841682046B3
:1033B0008847032802D0042810D107E00320019099
:1033C00001A904F1080002F060FA08E0042000906E
:1033D000694604F1080002F058FA00E000BF00BF9F
:1033E0001CBD10B50446206988B120690268916946
:1033F000884720690268916A884708B1032010BD98
:1034000020690268516A884708B10420F7E7002064
:10341000F5E700002DE9F04105460F46164600216C
:10342000284600F045FC05460F48286005F10804D1
:103430004FF01408002020716071A07184F807809B
:10344000E079002803DDE07901F075FB206000BF22
:10345000A4F108052F6126B130682946426830463C
:1034600090472846BDE8F0810073000070B504461F
:103470000D4660680168CA692946904770BD70B5FD
:1034800004460D46606801684A6A2946904770BD47
:103490002DE9F84304460D4616461F46DDE9088926
:1034A000606801680A6A49469047CDF80080606804
:1034B00001683B463246D1F830C02946E047BDE8B6
:1034C000F88310B50446606802681168884710BD2B
:1034D0002DE9F04104460F4690461D46606801689C
:1034E00042468B6A39469847002606E0A95D606827
:1034F00003689A689047701CC6B2A85D0028F5D191
:10350000BDE8F0812DE9FC470446884691469A467D
:10351000DDE90A750C9ECDE90056206853464A46FF
:103520004146D0F824C02046E04709EB0700401B85
:1035300082B2CDE90056206853464146D0F824C0F7
:103540002046E047CDE9007620682B464A464146B2
:10355000D0F824C02046E04708EB0A00401B81B2A7
:10356000CDE9007620682B464A46D0F824C0204694
:10357000E047BDE8FC87000070B504460D462046D4
:10358000FFF78CF804460448206065602046FFF78A
:1035900098FF204670BD00001473000010B504466B
:1035A000322000F0FBFD00220721204600F058F9F0
:1035B0004FF480720121204600F052F94FF4C062AE
:1035C0000221204600F04CF900220421204600F0A0
:1035D00047F940F207220821204600F041F9002275
:1035E0000921204600F03CF900220A21204600F083
:1035F00037F900220C21204600F032F900220D217B
:10360000204600F02DF900220F21204600F028F975
:1036100000221021204600F023F90022112120462B
:1036200000F01EF900221221204600F019F90022B4
:103630001321204600F014F9C82000F0AFFD41F23C
:10364000B0221021204600F00BF90722112120465C
:1036500000F006F9322000F0A1FD40F2851212219F
:10366000204600F0FDF8322000F098FD4FF4A05203
:103670001321204600F0F4F80E222921204600F004
:10368000EFF800222A21204600F0EAF8322000F06C
:1036900085FD4FF41C526021204600F0E1F8012224
:1036A0006121204600F0DCF800226A21204600F06B
:1036B000D7F800228021204600F0D2F80022812194
:1036C000204600F0CDF800228221204600F0C8F804
:1036D00000228321204600F0C3F8002284212046E6
:1036E00000F0BEF800228521204600F0B9F8102233
:1036F0009021204600F0B4F800229221204600F0EC
:10370000AFF803229321204600F0AAF84FF4887204
:103710009521204600F0A4F800229721204600F0D1
:103720009FF800229821204600F09AF841F23802D2
:103730000321204600F094F8002084F83800204649
:1037400000F09BF84FF489720721204600F088F8BA
:1037500010BDF8B50446F020009020684FF4A07327
:1037600000221146C56B2046A84700250CE0002624
:1037700006E0618B2068426C20469047701C86B240
:10378000F02EF6DB681C85B2B5F5A07FEFDBF8BD47
:103790002DE9F04105460C4616461F46DDF8188017
:1037A00032465021284600F05BF806EB0800401E28
:1037B00082B25121284600F053F822465221284671
:1037C00000F04EF8E019401E82B25321284600F066
:1037D00047F832462021284600F042F822462121AF
:1037E000284600F03DF82221284600F00DF8002080
:1037F00085F83800BDE8F08170B504460D462946CD
:10380000204600F017F870BD38B505460C4608A0F4
:103810000068009020128DF80100E0B28DF80200DF
:103820000322694605F12000FFF71EFA38BD0000AB
:103830007000000038B505460C4608A000680090EE
:1038400020128DF80100E0B28DF8020003226946D3
:1038500005F12000FFF708FA38BD000072000000F3
:1038600070B505460E46144631462846FFF7CCFF94
:1038700021462846FFF7DEFF70BD10B5044694F8D8
:103880003800B8B9002250212046FFF7E9FFEF22A7
:1038900051212046FFF7E4FF002252212046FFF786
:1038A000DFFF40F23F1253212046FFF7D9FF0120EE
:1038B00084F8380010BD00000FB4F8B505460E4678
:1038C00014460C9F0097284609A90EC9FFF724FD4E
:1038D00005460E482860314605F12000FFF7E0F963
:1038E000A0F1200520680121026820469047206849
:1038F000C168204688472846FFF750FE2068416887
:10390000204688472846F8BC5DF814FB5873000031
:103910002DE9FC4104460B2104F11000FFF7BFF82C
:10392000002856D005236A464D2104F11000FFF708
:10393000CDF801224B2104F11000FFF7DAF8002244
:103940004B2104F11000FFF7D4F89DF801009DF819
:1039500000104FF4807202FB010085B29DF8030055
:103960009DF8021002FB010086B29DF8048004F16C
:103970001000FFF7D1F840BBB8F10A0F26DD0A2D81
:1039800021DDB5F57F6F1EDC0A2E1CDDB6F57F6FDD
:1039900019DC608900FB06F7421EF91707EB11518D
:1039A0000813002101F056FFA080A18901FB05F753
:1039B000F91707EB1151A389A3EB21305A1E0021FF
:1039C00001F048FFE0800120207201E00020207219
:1039D00000BFBDE8FC8100002DE9F04104460F4620
:1039E00015461E46DDF8188042463146204600F056
:1039F0004BFD0446384820600DB1882000E082204D
:103A00000246394604F11000FFF78CF8A0F11004CB
:103A10000222032104F11000FFF76BF80A2000F0E6
:103A2000BDFB0C22042104F11000FFF762F8002214
:103A30000A2104F11000FFF75CF86922202104F14B
:103A40001000FFF756F8022000F0A8FB0122212108
:103A500004F11000FFF74DF80022172104F11000C7
:103A6000FFF747F80022412104F11000FFF741F869
:103A700001224A2104F11000FFF73BF801224B21FB
:103A800004F11000FFF735F800224B2104F110007B
:103A9000FFF72FF80722562104F11000FFF729F84D
:103AA0000122582104F11000FFF723F801224021E0
:103AB00004F11000FFF71DF8FF220B2104F11000A4
:103AC000FFF717F80122092104F11000FFF711F8A0
:103AD0002046BDE8F0810000A87300002DE9F04108
:103AE00004460D461746032F25D115B1A5F12C002C
:103AF00000E000200646F36B0BB9012300E0002331
:103B00001946606803685A689047F36B012B00D12F
:103B100000E000231946A06803685A689047F36BD9
:103B2000022B01D1012300E000231946E06803685D
:103B30005A68904700BFBDE8F08100002DE9F041D0
:103B400004460D46164615B1A5F1280000E00020F8
:103B50000746032E14D1207908B9012000E0002087
:103B600020712179A06803685A68904723790BB1C6
:103B700004A300E006A31946786B0368DA6A90474D
:103B8000BDE8F0814C4544313A206F6E00000000E2
:103B90004C4544313A206F666600000010B504467B
:103BA000E08A10B1E08A401EE082A069A8B1A06955
:103BB000026891698847A0690268916A884740B99C
:103BC000E08A50B9A08A40B1A0690268D1698847EB
:103BD00018B1A08AE082012010BDE069A8B1E069B7
:103BE000026891698847E0690268916A884740B92C
:103BF000E08A50B9A08A40B1E0690268D16988477B
:103C000018B1A08AE0820220E6E70020E4E7000085
:103C10002DE9F04704460E4617469846DDE9085957
:103C20002A4641462046FFF7F5FB04460E48206031
:103C3000A661E76185B1286801682846884758B1C0
:103C400028680168284688474FF47A7109FB01F11A
:103C5000B1FBF0F0A08201E00020A082A08AE08207
:103C60002046BDE8F0870000D873000010B5029C24
:103C7000016042608360C46010BD03460A46196853
:103C800008E0914201D100207047486808B14968B6
:103C900000E001E00029F4D100BF09B14A6000E072
:103CA0001A600120F0E7704701464868704700003D
:103CB00030B504460D4605482060002060601DB107
:103CC00021462846FFF7D9FF204630BD5C7600002C
:103CD00001460868704770B505462C6804E0206806
:103CE0000168204688476468002CF8D170BD002127
:103CF0000160704710B50246106800E0406820B1CE
:103D00000B00A1F10104A1B2F8D110BD10B502461B
:103D10000B4600F061FA107C08B9012100E0002197
:103D200002F1080050F8210030F8134000F044FA86
:103D3000204610BD10B504462068416920468847DA
:103D4000217C09B1012200E0002204F1080151F8B0
:103D50002210A27E21F81200E07E401CE076E07E78
:103D6000617E884209DAE17E6069405CA076A17ECE
:103D7000206882692046904707E00020E076E17ED7
:103D80006069405CA0760020207710BD70B50446C5
:103D90000D46207EA84217DD607E217E884213DA20
:103DA0000020627EA16821F812000021627EE06896
:103DB00020F81210617E481C6076606945542068C6
:103DC0002946C2692046904770BD10B50446607E02
:103DD000A0B1207F90B90020E076E17E6069405C70
:103DE000A076207C08B9012000E00020207401208A
:103DF0002077A17E206882692046904710BD000090
:103E000070B504460D46164600212046FFF750FFC8
:103E100004460F48206026B130682146426830468B
:103E200090470020A076E07660762576680000F066
:103E300082FEA060680000F07EFEE060284600F090
:103E40007AFE6061002020742077204670BD00005B
:103E5000EC730000014A02600171704714740000A5
:103E600070470FB410B5044600BF05990398084485
:103E7000A169884211DB069904980844E1698842E7
:103E80000BDB216AA06908440399884205DD616A59
:103E9000E06908440499884203DC002010BC5DF806
:103EA00014FB0120FAE710B50446207B30B9A06866
:103EB00030B1A06802685168884708B1012010BD80
:103EC0000020FCE70FB4F8B504462068416820469E
:103ED000884710B1F8BC5DF814FB00BF09980028B2
:103EE00004DD0A98002801DD012000E0002078B3FD
:103EF0000A98009020680569204607A90EC9A847BE
:103F000030B30A9800902068C669204607A90EC9F8
:103F1000B04704F11000FFF7DBFE05460DE000207E
:103F200028730A98009028688668284607A90EC951
:103F3000B0472846FFF7B8FE0546002DEFD10A9896
:103F400000902068066A204607A90EC9B04700BF46
:103F500000BFBFE70FB4F0B58BB00446DDE9130135
:103F60000144D4E908201044814204DA11A80FC8A2
:103F700007AD0FC504E004F118000FC807AD0FC569
:103F800007A80FC803AD0FC5A68A1148007810F026
:103F9000010F08D10E4800F0EEFD20B10D4800BF22
:103FA0000B48AFF300800B480568069880B2CDE956
:103FB0000006059883B2049882B2039881B22868FB
:103FC000476A2846B84700BF0BB0F0BC5DF814FB49
:103FD000F0000010F400001038B504462068416875
:103FE0002046884700B138BDA06848B1606A00909B
:103FF000A06801688D68D4E90723A169A84708E093
:104000000548C06800902068856803480EC82046AF
:10401000A84700BFE7E70000C80200100FB42DE971
:10402000FC4105460E4605F11000FFF751FE04461F
:1040300019E0032E08D00D980090206807692046EB
:104040000AA90EC9B84750B1DDE90C01CDE900015C
:104050002068C76831462046DDE90A23B847204674
:10406000FFF722FE0446002CE3D1BDE8FC015DF819
:1040700014FB70B504460D46AC6028682146826981
:1040800028469047294604F11000FFF7F6FD70BD61
:104090000FB470B50446099E254600212846FFF757
:1040A00007FE05460A482C460A48286004F110001D
:1040B000FFF71DFEA0F11004A68205A80FC804F1A9
:1040C00018050FC501202073204670BC5DF814FB55
:1040D000AC7500002874000010B50446E168606803
:1040E00003681A69904710BD10B5044660680268FD
:1040F00051698847E168084201D0012010BD0020C5
:10410000FCE770B504460D462DB1E16860680368B0
:104110009A68904704E0E168606803681A6990470C
:1041200070BD10B50446E168606803689A689047FE
:1041300010BD70B504460D46217A60680268536868
:104140002A46984770BD000010B5044B03604160DB
:104150000272047A0123A340C36010BD6876000098
:104160000149016070470000587400002DE9F041DA
:104170000446204601F058FE05460022064B01F099
:1041800067FE074601F00CFE84B201E0601E84B2B7
:10419000002CFBDCBDE8F0810080304010B5044607
:1041A00005E04FF47A70FFF7E1FF601E84B2002C47
:1041B000F7DC10BD7047000006480078002804DDD9
:1041C00004480078401E034908700248007800B98E
:1041D00062B670470C00001072B603480078401CAD
:1041E00001490870704700000C00001000B503463C
:1041F0000A46FDF785FDFFF7DDFF0AB1FFF7ECFF8B
:10420000184600BD70B504460D4684F8325020684B
:1042100041692046884770BD0FB41FB504460A980F
:104220000090204607A90EC9FFF794FE94F83210BB
:10423000A28A238EE06ACDE90032CDE9021004F1B2
:1042400018000FC800F04EFA1FBC5DF814FB70B5E3
:1042500004460D462846FCF709FAA16A884201D8AF
:10426000E06A80B9E06A10B1E06A00F05DFC2846BF
:10427000FCF7FCF9A062A16A481CFBF7FDFFE062B5
:10428000E06A00B970BDA16A4A1C2946E06AFCF7E1
:104290000CFA206841692046884700BFF2E7000019
:1042A0000FB47CB50446DDE90B6501960A980090D1
:1042B000204607A90EC9FFF7EBFE04460A48206016
:1042C0004FF6FF702086012084F832000020E06263
:1042D0002846FCF7CBF9A06229462046FFF7B7FF36
:1042E00020467CBC5DF814FB7874000001238B40F1
:1042F000026A1A4342F08072014B1A607047000054
:104300000040034030B505460C46082C05D2DFE8D6
:1043100004F0050A0F14191E232800BF02210020F3
:10432000FEF712FC22E002210120FEF70DFC1DE049
:1043300002210846FEF708FC18E002210320FEF7E0
:1043400003FC13E002210420FEF7FEFB0EE0022135
:104350000520FEF7F9FB09E002210620FEF7F4FB39
:1043600004E002210720FEF7EFFB00BF00BF30BDD5
:1043700001460248406880B2704700000040034098
:1043800070B504460D462A4608212046FFF738FD41
:1043900004460F4820600F4804600F48006840F44E
:1043A00080500E49C1F8C4000D48006840F4001068
:1043B0000B4908604FF48070C8600A482062206A88
:1043C00008604FF01600FDF71BFE204670BD000090
:1043D000B07400001C000010C4C00F4000C00F40AB
:1043E000004003400001200010B522B94FF6C07311
:1043F0000B40014C236010BD00C0084010B50446BE
:1044000001212046FFF726FD04460D4820600221C9
:104410000820FEF799FB0B48006820F440000A4989
:10442000C1F8A80107480068064908604FF0190064
:10443000064908814FF006004860204610BD000084
:10444000D8740000A8C10F4000C00F4000C0084051
:1044500010B5044604F10800FFF73DFC10BD01460D
:104460004868704730B504460D46294604F10800F7
:10447000FFF703FC30BD0146888870470146C888B5
:1044800070470146087A7047044B0360418182817E
:1044900000238380C380037270470000087500000A
:1044A0002DE9F04707462F48D0F8008018F0080F94
:1044B00014D008202C4908602C49384600F064F8D4
:1044C0002B49384600F074F8044614F0100F03D05E
:1044D0003868816838468847BDE8F08718F4007F5F
:1044E0000CD02449384600F04FF82349384600F0F4
:1044F0005FF804464FF400701B49086018F0040F81
:104500002ED01E48D0F800904FF001054FF0000665
:104510001DE019EA050F17D029EA050918480560BA
:1045200000BF1048006810F0200FFAD0154804684A
:104530004FEA660006F0010240EAC2113868C4F38F
:104540008002036838469847701CC6B26D00202E62
:1045500002DAB9F1000FDCD104200349086000BF82
:1045600000BFB9E700C2005008C200500005FE00BD
:104570000002FE000005FB000002FB0030C20050FC
:1045800038C2005014C200501022064B1A60064A6E
:10459000C2F8101200BF054A126812F0100FFAD0CC
:1045A0007047000008C2005000C0005000C2005018
:1045B00002463020064B18600648C0F8101200BFB3
:1045C0000548006810F0200FFAD0044800687047D2
:1045D00008C2005000C0005000C2005014C2005079
:1045E0000FB438B5044608980090204605A90EC9B6
:1045F000FFF7B0FC38BC5DF814FB0FB42DE9FC41AB
:1046000004460D46DDE90C01CDE9000129462046AE
:10461000DDE90A23FFF702FD012D04D0032D24D18B
:1046200094F8300008B3012D01D1012000E00020F2
:1046300084F83000022194F8300008B1208F00E0A7
:10464000A08ACDE9000104F118000FC800F0BEF8FF
:1046500004F128062F46706828B1706801683A4650
:104660000B683146984700BF00BFBDE8FC015DF80C
:1046700014FB00000FB4FEB50446DDE90D570195AB
:104680000C980090204609A90EC9FFF701FD0446C9
:1046900004F12800FEF75AFBA0F12804104820601E
:1046A0003030A0624FF478402087342000F049FA7F
:1046B0000646CDE901570C980090304609A90EC96D
:1046C000FFF7EEFD06466063002084F830002046C8
:1046D000616BFFF7CEFC2046FEBC5DF814FB0000CA
:1046E000207500000FB42DE9F04FC3B0519F509ECC
:1046F000529D54A8019002A8019A5399FBF7ECFD32
:104700000020019000F04CF80468206831464269AE
:104710002046904720683946026920469047DDF8D8
:104720003081012D1ED14E9801F01EFF8346A9074E
:1047300001F01CFE82464C9801F016FF5146009095
:1047400001F0A6FD814601F0D3FE824602A8FBF7E8
:104750008DFF4FEA500900F023F8406809FB00F094
:10476000AAEB4008022D0BD102A8FBF77FFF814680
:1047700000F016F840684E9A4C99114409FB101845
:104780004D9882B21FFA88F1206802ABD0F818C0A9
:104790002046E04743B0BDE8F00F5DF814FB000091
:1047A00010B50848007810F0010F08D1054800F056
:1047B000E2F920B1044800BF0248AFF3008002488C
:1047C00010BD0000F0000010F4000010FFB583B031
:1047D000DDE90C561048007810F0010F08D10E48A2
:1047E00000F0C9F920B10D4800BF0B48AFF30080BD
:1047F0000A480468069880B2CDE9016500900598E2
:1048000083B2049882B2039881B22068876A2046F6
:10481000B84707B0F0BD0000F0000010F400001031
:104820000FB438B5044608980090204605A90EC973
:10483000FFF716FB0021204600F03BF838BC5DF87E
:1048400014FB10B50446032104F12C00FEF768FAAE
:1048500010BD2DE9F04104460D461646032E01D049
:10486000012E24D10020E06304F11000FFF730FA9C
:1048700007460EE015B1A5F1280000E00020B8427F
:1048800000D108E0E06B401CE0633846FFF70CFA0B
:104890000746002FEED100BF15B1A5F1280000E0BA
:1048A0000020A0633146204600F003F800BFBDE8B9
:1048B000F0817CB504460E4604F11000FFF708FABB
:1048C000054612E00221A06BA84202D1B4F84000D4
:1048D00000E0A88ACDE9000105F118000FC8FFF734
:1048E00075FF2846FFF7E0F90546002DEAD131466D
:1048F00004F12C00FEF714FA7CBD0FB438B5044661
:1049000008980090204605A90EC9FFF723FB38BC84
:104910005DF814FB0FB47CB504460D46DDE90A01D1
:10492000CDE9000129462046DDE90823FFF776FBA3
:104930007CBC5DF814FB00000FB42DE9F04F89B08A
:104940000446DDF85C80CDF804801698009020467F
:1049500013A90EC9FFF79CFB044604F12800FEF7DB
:1049600033FCA0F1280404F12C00FEF7EFF9A0F1CC
:104970002C042C4820603830A0620C30E06218987B
:1049800060634FF6E070A4F840001AA808901998E8
:1049900007904FF00009002639E03C2000F0D1F8E4
:1049A00005461598616B90FBF1FB16980090DDE9C8
:1049B000130200EB09015B4603A8FFF757F9824693
:1049C0000798CDE90180DAF80C00009028469AE8B3
:1049D0000E00FFF74FFE05462F4604F1280107F1B0
:1049E0002800FEF7AAF939462046FFF742FBE663A6
:1049F000A7631598616B90FBF1F0484400F0FF0944
:104A00000898006807900898001D0890761C606B55
:104A1000B042C2DC00200890204609B0BDE8F00F8B
:104A20005DF814FB5C7500000146087B7047704719
:104A3000704710B512F0010F07D043681B680124BE
:104A40008C4023434468236006E043681B680124CC
:104A50008C40A3434468236010BD4268D161704715
:104A6000014648684069704742689161704700009C
:104A700070B504460D462046FFF772FB0446104809
:104A80002060052D04D2DFE805F004070B0F1300AA
:104A900000BF0C4860600FE00A48203060600BE007
:104AA00008484030606007E006486030606003E01E
:104AB00004488030606000BF00BF204670BD000029
:104AC000D475000000C0092001460868C07870470E
:104AD000014608680079704770B504460D461646D1
:104AE000283C324629462046FDF796FA70BD70B53F
:104AF00004460D461646283C324629462046FDF718
:104B0000D3FD70BD70B504460D461646283C3246AE
:104B100029462046FFF79DFE70BD10B504462C3C8B
:104B20002046FFF78EFE10BD10B5044614B1204696
:104B3000FBF7E6FB10BD10B504462046FBF79CFBD7
:104B400010BD10B504462046FBF796FB10BD49008A
:104B500050EAC12018BF04204A0D18BF40F00100E0
:104B600040F2FF72B2EB515F08BF40F00200012833
:104B700008BF05207047016809B100207047012176
:104B8000016008467047FBF769FD00002DE9F74F0B
:104B9000144696B00021C4E902111799089121F03A
:104BA0000045CA498D4206DC1799C4E9000119B0D5
:104BB0000020BDE8F08FC649DFF818A3A9423CDD0C
:104BC0000899C54E0029C54FC54A1799534619DDA6
:104BD00001F048FA554506D0C24AC34B01F042FAEB
:104BE000C4E900010AE04FF0D352BF4B01F03AFA9A
:104BF00032463B4601F036FAC4E9000119B0012003
:104C0000BDE8F08F00F094FE554506D0B54AB64B8E
:104C100000F08EFEC4E900010AE04FF0D352B24B1F
:104C200000F086FE32463B4600F082FEC4E90001F9
:104C300019B04FF0FF30BDE8F08FAC49A942179989
:104C400078DB21F000488346A94AAA4B414601F08F
:104C5000FFF80022A84B00F06BFE01F071F80990FC
:104C600001F0CBF806460F469D4A534601F0F0F896
:104C70005A46434601F0EAF980468A46994A9A4BD9
:104C80003046394601F0E4F82A0D01250B924246E0
:104C9000534601F0DBF9032DC4E9000139D00B982C
:104CA000C1F30A51401A05EB45111139814230DA3E
:104CB0009248C346784400EB0510CDF81CA00C9038
:104CC000D0E900233046394601F0C2F8CDE90201AF
:104CD00002460B465846079901F0C4F980468A46B9
:104CE00002460B465846079901F0BCF9DDE902235C
:104CF00001F0B8F983460C9803913946D0E90223B4
:104D0000304601F0A5F85A46039B01F0ABF96D1C43
:104D1000BDE708980028A2BF099819B0BDE8F08F38
:104D2000616881F000416160099819B04042BDE8B6
:104D3000F08FFFE7C1F3130141F480110E91179931
:104D4000C1F30A51A1F2F532511102F01F08C8F166
:104D50002002129200220C920D92694A7A4402EBD0
:104D6000810101F1140C0DA95FF00607DCF80020A9
:104D7000DCF8045002FA08F3129AD1F800A025FAE0
:104D800002F21A430E9BA2FB0356A2FB00329A4486
:104D900015449A4534BF4FF0010B4FF0000B51F80A
:104DA000043C05EB0B0E7344954234BF01220022F4
:104DB0001644BBF1000F02D0AB4202D903E0AB4274
:104DC00001D2012200E000223244C1F800A041E9F2
:104DD0000223091FACF1040C7F1EC7D10898DDE93E
:104DE0000A6500F10050800F11900898099F80001B
:104DF00001F003F880468A46384601F015F86FF056
:104E00001D0201F0B8FD07463046059101F00CF88F
:104E10006FF03D0201F0AFFDCDE90310284601F02F
:104E200003F86FF05D0201F0A6FD064602460B4650
:104E30000191DDE9031000F07BFD3A46059B00F08F
:104E400077FD4246534600F073FD00200D46834631
:104E50004246534601F006F93A46059B01F002F935
:104E6000DDE9033201F0FEF83246019B01F0EEF875
:104E7000DFF89480234A434600F0EAFF06460F46D7
:104E8000224A234B5846294600F0E2FF32463B4671
:104E900000F04EFD0F4606464FF0A84243465846E6
:104EA000294600F0D5FF32463B4600F041FD179AF7
:104EB00012F0004F04D0119A81F000415242119239
:104EC000C4E90001119819B0BDE8F08FFB21E93F5A
:104ED0007CD90240FB21F93F7370032E8A19A33B52
:104EE000000040543163621A61B4D03DFB21394166
:104EF00083C8C96D305FE43F0000E03F40220000FE
:104F0000C8210000182D4454FB21F93D3326A61179
:104F1000460B113C2DE9FF4D21F0004807460C4699
:104F2000B8F1795F08DA00F00BFF002801BF00201C
:104F3000324904B0BDE8F08D3A4623461046194682
:104F400000F086FF054602462D480E460B46062118
:104F5000784400F05DF82A46334600F079FFDDE939
:104F6000022382468B463846214600F071FF0446F4
:104F70000F4652465B462846314600F069FF2246FE
:104F80003B4601F06FF807468A464FF0FF3228464D
:104F9000314601F0F0FC1B4A90450ADA3A46534686
:104FA00001F060F804B00022BDE8F04D134B01F0B1
:104FB0004DB8154A4245A8BFA8F500154FF00004AA
:104FC000B8BF124D22462B4601F04CF806468846E3
:104FD00022462B460020094901F044F804460D46BC
:104FE0003A4653463046414601F03CF804B022466A
:104FF0002B46BDE8F04D01F029B800000000F03F5D
:10500000741F00003333D33F0000E93F0000D23F5C
:105010002DE9F0414F1E00EBC7010446D1E9000124
:1050200015461E4637F006020DD02A46334600F0DC
:105030000FFF7F1E04EBC703D3E9002300F078FCC9
:1050400037F00602F1D1022F25D0042F13D0062FFE
:1050500018BFBDE8F0812A46334600F0F9FED4E9D6
:105060000A2300F065FC2A46334600F0F1FED4E93D
:10507000082300F05DFC2A46334600F0E9FED4E93F
:10508000062300F055FC2A46334600F0E1FED4E941
:10509000042300F04DFC2A46334600F0D9FED4E943
:1050A000022300F045FC2A46334600F0D1FED4E945
:1050B0000023BDE8F04100F03BBC00002DE9FF4DAE
:1050C000054621F0004084B00C46B0F1795F0BDA60
:1050D0002846FFF73CFD042808BF00F065F8284685
:1050E00008B02146BDE8F08D2A460B46104600F078
:1050F000AFFE06460F462A46234600F0A9FE80462C
:1051000026488A4632463B4605217844FFF780FF11
:1051100083461098029160B3214A224B4046514683
:1051200000F096FECDE900015A4640465146029BEA
:1051300000F08EFE82468846DDE906014FF0FF3220
:1051400001F019FC5246434600F08CFF32463B46C4
:1051500000F07EFEDDE9062300F084FFDDE9002398
:1051600000F080FF08B02A462346BDE8F04D00F06D
:105170006DBF0B465A463046394600F069FE084A74
:10518000084B00F0D5FB4246534600F061FE08B0E4
:105190002A462346BDE8F04D00F0CABBB21E00000F
:1051A000495555555555C5BF024A0020110701F014
:1051B000E2BB000001FDFFFF014800BF7047000097
:1051C000C802001030B587B000215848FFF70EF82C
:1051D0004FF47A7200215648FDF782F864220421C8
:1051E0005448FDF77DF800215348FFF741FC0121A9
:1051F0005248FFF73DFC02215148FFF739FC0421DA
:105200005048FFF735FC5048FFF7F8F848494F4839
:10521000FFF7B6F8112205214D48FDF787FF062359
:10522000454A4B494B48FDF74FFD1C2245494A482A
:10523000FEF78AFF04AD494C621D21462846FDF762
:1052400088FE00BF02200290DDE90501CDE90001E2
:10525000414A40494248049BFEF72EFB40494148E1
:10526000FDF7B8FF01231A4602213F48FDF7F4FE7F
:10527000F0204FF4A07300223B4900903B48FEF71A
:10528000ABFB0120002318222C4900903848FDF781
:10529000DFF9012000231A22284900903548FDF744
:1052A000D7F9012000231422244900903248FDF749
:1052B000CFF9C8201E49304B2D4ACDE900102D49A9
:1052C0002E48FEF7A5FC002001231F221B49009059
:1052D0002B48FDF7BDF90020012302221849009058
:1052E0002848FDF7B5F90020012303221449009056
:1052F0002548FDF7ADF90020012304221049009054
:105300002248FDF7A5F919220B492148FEF71CFF99
:10531000204C214D00212046FEF7CAFC04461F48C0
:105320002060E56000BF07B030BD0000B80000108D
:10533000FC00001014010010BC000010C40000109C
:10534000CC000010D4000010DC0000102C01001074
:10535000E40000105001001068010010026A000013
:1053600078010010E8000010B4010010C001001026
:10537000DC010010F40100100C02001024020010E7
:10538000440200105C020010740200108C02001035
:10539000A4020010B402001000007A44087100005A
:1053A00030380A2801D201207047002070470000E1
:1053B0009EB0C44910A8FEF7DFF810AE4FF4A07AF3
:1053C000F0204FF0080B0590FFF7EAF9C0F804B0A1
:1053D000FFF7E6F906600598534600221146009053
:1053E00001A8FEF743FCB84990E80C10C06881E8BA
:1053F0000C10C86000BF0221B448FEF7C7FCB449D6
:10540000B448FFF72FF82C20FFF79BFB8046B2A093
:105410004FF6FF71CDE90110AB48C0680090AA4873
:105420000EC84046FDF76AFA80460F900C20FFF741
:1054300088FB0646DFF8A4A21D903046FDF7C4FEA7
:105440000646A7483060C6F808A000BF1D960E9615
:105450003C20FFF776FB1C901E20F02350222821D1
:10546000009018A8FEF702FC06469EA00021CDE998
:105470000110F068009096E80E001C98FFF7FAF80B
:105480001C900D90DDE90D012830FDF756FC0D99BB
:105490000F98FEF7EEFD1020FFF753FB0646DFF8EE
:1054A00050A2DFF850B21790934805903046FDF7B0
:1054B0008BFE064691483060C6F804A0C6F808B0D6
:1054C0000598F06000BF17960C964420FFF739FB53
:1054D00016901E20F02378222821009018A8FEF7AD
:1054E000C5FB064686A088A189A20323CDE9023226
:1054F000CDE9041000200190F068009096E80E00BD
:105500001698FFF719FA16900B90DDE90B012C3075
:10551000FDF713FC0B990F98FEF7ABFD2C20FFF75E
:1055200010FB80467CA04FF6FF71CDE90110664864
:10553000C068009064480EC84046FDF7DFF9804619
:105540000A903C20FFF7FDFA15901E20F023502210
:105550002821009018A8FEF789FB064670A071A1CB
:105560000022CDE901210390F068009096E80E003A
:105570001598FDF777FC81461590D9F800000021B9
:10558000826A4846904749460A98FEF772FD2C20E9
:10559000FFF7D7FA804665A04FF6FF71CDE90110FD
:1055A0004948C068009048480EC84046FDF7A6F933
:1055B00009903420FFF7C5FA14901E20F0235022E2
:1055C0002821009018A8FEF751FB064659A000219B
:1055D000CDE90110F068009096E80E001498FEF7EF
:1055E0005FFE14900890DDE90810FEF742FD5020A0
:1055F000FFF7A7FA13901E20F023782228210090AD
:1056000018A8FEF733FB064600204D494D4ACDE968
:105610000202CDE904100190F068009096E80E00B7
:105620001398FCF75BFD13900790294907980861D0
:1056300007990998FEF71DFD4020FFF782FA1290A6
:1056400003230F9ADDE90901CDE90132CDE9031009
:105650001D48C06800901C480EC81298FDF7A6F8B7
:10566000074612901820FFF76CFA04463648276068
:10567000606000212268117300BF25461248C0688F
:1056800000903868866810480EC83846B047002039
:10569000069015E02846FCF7E1FE0698411C0691AD
:1056A00064280DD10948FEF790FB02210748FEF758
:1056B0002DFB064631464846FDF7C4FB0020069008
:1056C000E8E7000078010010C80200102C0100106B
:1056D000B4020010FC0000104C45440044020010CD
:1056E000CC7300004C4544313A206F6666000000E0
:1056F0005C020010740200108C020010C0730000E5
:105700004C454434000000004C4544330000000088
:105710004C45443200000000504F54490000000046
:10572000206B6700706F74693A000000534F554E4C
:10573000440000006672657175656E637900000053
:105740000000C84200007A44C001001000B5294B97
:1057500021F0004287B09A4203DC002213460092F7
:1057600033E0254B9A420DD168B94FF00100FBF7A9
:1057700054F8002207B01346104611465DF804EBBA
:1057800000F086B906DB07B04FF001025DF804EBCC
:1057900001F0F1B802AAFFF7F9F910F003014FF098
:1057A00001000DD0012914D002291AD00DF1080CE6
:1057B000BCE80F00FFF7AEFB07B081F0004100BD71
:1057C0000DF1080C0090BCE80F00FFF777FC07B064
:1057D00000BD0DF1080CBCE80F00FFF79BFB07B004
:1057E00000BD0DF1080C0090BCE80F00FFF766FC4F
:1057F000E2E70000FB21E93F0000F07F10B500293F
:105800000AD00878002807D005487844FBF728FE1E
:10581000002801D0002010BD0248784410BD0000CF
:10582000921E00008A1E000010B500290AD00878D8
:10583000002807D005487844FBF712FE002801D065
:10584000002010BD0248784410BD0000821E0000F8
:105850007A1E00000346934201DD104670478B42DA
:1058600001DA0846FAE71846F8E700B50246FEF7FF
:10587000B3FC9079D179884201DB012000E000205F
:105880000346FEF799FC184600BD30B502460B46AC
:105890000024FEF7A1FC9079D179884211DA1878BA
:1058A0001579116848551179D079401E814202DA84
:1058B0001079401C00E0002010719079401C90711C
:1058C0000124FEF779FC204630BD000021F00042A3
:1058D000A2F16052B2F5801F01F0004328BFD2F15F
:1058E0007F6C0BD95FEA001C43EAC20242EB5070A6
:1058F00018BF704728BF20F001007047B2F5801F25
:10590000BCBF184670474FEA410C1CF5001F02D27D
:10591000084600F050BF70B500F044FB000000895D
:10592000FFF7F6BF4FF00040A0F580007047000081
:1059300010B591EA030F48BF83F0004300F19A834A
:10594000841A71EB030C05D2121943EB0C03001BF4
:1059500061EB0C01DFF824E14FEA1154A4EB135C76
:105960001EEA430F18BF9EEA445F73D023EA0E037A
:10597000DCF1200E21EA045143F4801332D322FAE1
:105980000CFE10EB0E0023FA0CFE41EB0E01CCF1E5
:10599000200E03FA0EFE10EB0E0051F10001B1F5DE
:1059A000801FCCF1200E32D201EB045112FA0EF21C
:1059B000BDE8104058BF7047401C38BF5FEA420244
:1059C00018BF7047002814BF20F0010041F100010A
:1059D0004FEA410313F5001F38BF7047A1F1C041E2
:1059E00000F02EBB012A43EB0302ACF1200CDCF1EA
:1059F0001F0E32BF4FF0000E23FA0CF310EB030022
:105A000041EB0451B4EB115FD0D0A1EB045101F58F
:105A1000801149085FEA300001EB04510ED350F1C8
:105A2000000038BF12FA0EFE08D1BDE81040C9E7E9
:105A3000401C38BF5FEA4202CAD1C3E7BDE810404C
:105A40004FEA410313F5001F38BF7047A1F1C04171
:105A500000F0F6BA9EEA445F08D011EA5E0FBDE896
:105A6000104004BF01F0004100207047BDE8104025
:105A700070B500F097FA00BF64FBBE3E0000E0FF87
:105A800002494FF0000000F044BF00BF0000F87F63
:105A90002DE9C04130B4DFF8A0C23CEA111418BFB0
:105AA0003CEA131400F0EC8081EA03051CEA1114AF
:105AB00044EAD57418BF1CEA131500F0C780A4EBA4
:105AC00005044FF0004545EAC12145EAC32341EAF8
:105AD000505143EA525304F17F74994204F5003463
